{
  "contractName": "AddressBasedDIDManager",
  "abi": [
    {
      "inputs": [
        {
          "internalType": "bytes",
          "name": "_prefix",
          "type": "bytes"
        },
        {
          "internalType": "address",
          "name": "_dbAddr",
          "type": "address"
        }
      ],
      "payable": false,
      "stateMutability": "nonpayable",
      "type": "constructor"
    },
    {
      "anonymous": false,
      "inputs": [
        {
          "indexed": true,
          "internalType": "address",
          "name": "operator",
          "type": "address"
        },
        {
          "indexed": false,
          "internalType": "string",
          "name": "did",
          "type": "string"
        },
        {
          "indexed": false,
          "internalType": "bytes32",
          "name": "hash",
          "type": "bytes32"
        },
        {
          "indexed": false,
          "internalType": "string",
          "name": "uri",
          "type": "string"
        }
      ],
      "name": "DIDCreated",
      "type": "event"
    },
    {
      "anonymous": false,
      "inputs": [
        {
          "indexed": true,
          "internalType": "address",
          "name": "operator",
          "type": "address"
        },
        {
          "indexed": true,
          "internalType": "string",
          "name": "did",
          "type": "string"
        }
      ],
      "name": "DIDDeleted",
      "type": "event"
    },
    {
      "anonymous": false,
      "inputs": [
        {
          "indexed": true,
          "internalType": "address",
          "name": "operator",
          "type": "address"
        },
        {
          "indexed": true,
          "internalType": "string",
          "name": "did",
          "type": "string"
        },
        {
          "indexed": false,
          "internalType": "bytes32",
          "name": "hash",
          "type": "bytes32"
        },
        {
          "indexed": false,
          "internalType": "string",
          "name": "uri",
          "type": "string"
        }
      ],
      "name": "DIDUpdated",
      "type": "event"
    },
    {
      "anonymous": false,
      "inputs": [
        {
          "indexed": true,
          "internalType": "address",
          "name": "previousOwner",
          "type": "address"
        },
        {
          "indexed": true,
          "internalType": "address",
          "name": "newOwner",
          "type": "address"
        }
      ],
      "name": "OwnershipTransferred",
      "type": "event"
    },
    {
      "constant": true,
      "inputs": [],
      "name": "db",
      "outputs": [
        {
          "internalType": "contract DIDStorage",
          "name": "",
          "type": "address"
        }
      ],
      "payable": false,
      "stateMutability": "view",
      "type": "function"
    },
    {
      "constant": true,
      "inputs": [
        {
          "internalType": "bytes",
          "name": "did",
          "type": "bytes"
        }
      ],
      "name": "getHash",
      "outputs": [
        {
          "internalType": "bytes32",
          "name": "",
          "type": "bytes32"
        }
      ],
      "payable": false,
      "stateMutability": "view",
      "type": "function"
    },
    {
      "constant": true,
      "inputs": [
        {
          "internalType": "bytes",
          "name": "did",
          "type": "bytes"
        }
      ],
      "name": "getOwner",
      "outputs": [
        {
          "internalType": "address",
          "name": "",
          "type": "address"
        }
      ],
      "payable": false,
      "stateMutability": "view",
      "type": "function"
    },
    {
      "constant": true,
      "inputs": [
        {
          "internalType": "bytes",
          "name": "did",
          "type": "bytes"
        }
      ],
      "name": "getURI",
      "outputs": [
        {
          "internalType": "bytes",
          "name": "",
          "type": "bytes"
        }
      ],
      "payable": false,
      "stateMutability": "view",
      "type": "function"
    },
    {
      "constant": true,
      "inputs": [],
      "name": "owner",
      "outputs": [
        {
          "internalType": "address",
          "name": "",
          "type": "address"
        }
      ],
      "payable": false,
      "stateMutability": "view",
      "type": "function"
    },
    {
      "constant": false,
      "inputs": [
        {
          "internalType": "address",
          "name": "newOwner",
          "type": "address"
        }
      ],
      "name": "transferDBOwnership",
      "outputs": [],
      "payable": false,
      "stateMutability": "nonpayable",
      "type": "function"
    },
    {
      "constant": false,
      "inputs": [
        {
          "internalType": "address",
          "name": "newOwner",
          "type": "address"
        }
      ],
      "name": "transferOwnership",
      "outputs": [],
      "payable": false,
      "stateMutability": "nonpayable",
      "type": "function"
    },
    {
      "constant": true,
      "inputs": [
        {
          "internalType": "bytes",
          "name": "did",
          "type": "bytes"
        }
      ],
      "name": "decodeInternalKey",
      "outputs": [
        {
          "internalType": "bytes20",
          "name": "",
          "type": "bytes20"
        }
      ],
      "payable": false,
      "stateMutability": "view",
      "type": "function"
    },
    {
      "constant": false,
      "inputs": [
        {
          "internalType": "bytes32",
          "name": "h",
          "type": "bytes32"
        },
        {
          "internalType": "bytes",
          "name": "uri",
          "type": "bytes"
        }
      ],
      "name": "registerDID",
      "outputs": [],
      "payable": false,
      "stateMutability": "nonpayable",
      "type": "function"
    },
    {
      "constant": false,
      "inputs": [
        {
          "internalType": "bytes32",
          "name": "h",
          "type": "bytes32"
        },
        {
          "internalType": "bytes",
          "name": "uri",
          "type": "bytes"
        }
      ],
      "name": "updateDID",
      "outputs": [],
      "payable": false,
      "stateMutability": "nonpayable",
      "type": "function"
    },
    {
      "constant": false,
      "inputs": [],
      "name": "deregisterDID",
      "outputs": [],
      "payable": false,
      "stateMutability": "nonpayable",
      "type": "function"
    }
  ],
  "bytecode": "0x60806040523480156200001157600080fd5b50604051620042e1380380620042e1833981810160405260408110156200003757600080fd5b81019080805160405193929190846401000000008211156200005857600080fd5b838201915060208201858111156200006f57600080fd5b82518660018202830111640100000000821117156200008d57600080fd5b8083526020830192505050908051906020019080838360005b83811015620000c3578082015181840152602081019050620000a6565b50505050905090810190601f168015620000f15780820380516001836020036101000a031916815260200191505b50604052602001805190602001909291905050508082336000806101000a81548173ffffffffffffffffffffffffffffffffffffffff021916908373ffffffffffffffffffffffffffffffffffffffff160217905550600073ffffffffffffffffffffffffffffffffffffffff168273ffffffffffffffffffffffffffffffffffffffff1614156200026257806040516200018c90620002ae565b8080602001828103825283818151815260200191508051906020019080838360005b83811015620001cb578082015181840152602081019050620001ae565b50505050905090810190601f168015620001f95780820380516001836020036101000a031916815260200191505b5092505050604051809103906000f0801580156200021b573d6000803e3d6000fd5b50600160006101000a81548173ffffffffffffffffffffffffffffffffffffffff021916908373ffffffffffffffffffffffffffffffffffffffff160217905550620002a4565b81600160006101000a81548173ffffffffffffffffffffffffffffffffffffffff021916908373ffffffffffffffffffffffffffffffffffffffff1602179055505b50505050620002bc565b610e94806200344d83390190565b61318180620002cc6000396000f3fe608060405234801561001057600080fd5b50600436106100a95760003560e01c80638626dea9116100715780638626dea9146102d05780638da5cb5b14610404578063b00140aa1461044e578063b102bfbe1461051d578063bf6d313914610618578063f2fde38b14610705576100a9565b806332aad017146100ae5780633d039cb3146100f25780634d655aff146100fc578063627c625a1461014657806372e0b98b1461020b575b600080fd5b6100f0600480360360208110156100c457600080fd5b81019080803573ffffffffffffffffffffffffffffffffffffffff169060200190929190505050610749565b005b6100fa61085e565b005b610104610876565b604051808273ffffffffffffffffffffffffffffffffffffffff1673ffffffffffffffffffffffffffffffffffffffff16815260200191505060405180910390f35b6102096004803603604081101561015c57600080fd5b81019080803590602001909291908035906020019064010000000081111561018357600080fd5b82018360208201111561019557600080fd5b803590602001918460018302840111640100000000831117156101b757600080fd5b91908080601f016020809104026020016040519081016040528093929190818152602001838380828437600081840152601f19601f82011690508083019250505050505050919291929050505061089c565b005b6102ce6004803603604081101561022157600080fd5b81019080803590602001909291908035906020019064010000000081111561024857600080fd5b82018360208201111561025a57600080fd5b8035906020019184600183028401116401000000008311171561027c57600080fd5b91908080601f016020809104026020016040519081016040528093929190818152602001838380828437600081840152601f19601f8201169050808301925050505050505091929192905050506108b8565b005b610389600480360360208110156102e657600080fd5b810190808035906020019064010000000081111561030357600080fd5b82018360208201111561031557600080fd5b8035906020019184600183028401116401000000008311171561033757600080fd5b91908080601f016020809104026020016040519081016040528093929190818152602001838380828437600081840152601f19601f8201169050808301925050505050505091929192905050506108d4565b6040518080602001828103825283818151815260200191508051906020019080838360005b838110156103c95780820151818401526020810190506103ae565b50505050905090810190601f1680156103f65780820380516001836020036101000a031916815260200191505b509250505060405180910390f35b61040c610bcf565b604051808273ffffffffffffffffffffffffffffffffffffffff1673ffffffffffffffffffffffffffffffffffffffff16815260200191505060405180910390f35b6105076004803603602081101561046457600080fd5b810190808035906020019064010000000081111561048157600080fd5b82018360208201111561049357600080fd5b803590602001918460018302840111640100000000831117156104b557600080fd5b91908080601f016020809104026020016040519081016040528093929190818152602001838380828437600081840152601f19601f820116905080830192505050505050509192919290505050610bf4565b6040518082815260200191505060405180910390f35b6105d66004803603602081101561053357600080fd5b810190808035906020019064010000000081111561055057600080fd5b82018360208201111561056257600080fd5b8035906020019184600183028401116401000000008311171561058457600080fd5b91908080601f016020809104026020016040519081016040528093929190818152602001838380828437600081840152601f19601f820116905080830192505050505050509192919290505050610eee565b604051808273ffffffffffffffffffffffffffffffffffffffff1673ffffffffffffffffffffffffffffffffffffffff16815260200191505060405180910390f35b6106d16004803603602081101561062e57600080fd5b810190808035906020019064010000000081111561064b57600080fd5b82018360208201111561065d57600080fd5b8035906020019184600183028401116401000000008311171561067f57600080fd5b91908080601f016020809104026020016040519081016040528093929190818152602001838380828437600081840152601f19601f8201169050808301925050505050505091929192905050506111e8565b60405180826bffffffffffffffffffffffff19166bffffffffffffffffffffffff1916815260200191505060405180910390f35b6107476004803603602081101561071b57600080fd5b81019080803573ffffffffffffffffffffffffffffffffffffffff1690602001909291905050506118c9565b005b6000809054906101000a900473ffffffffffffffffffffffffffffffffffffffff1673ffffffffffffffffffffffffffffffffffffffff163373ffffffffffffffffffffffffffffffffffffffff16146107a257600080fd5b600160009054906101000a900473ffffffffffffffffffffffffffffffffffffffff1673ffffffffffffffffffffffffffffffffffffffff1663f2fde38b826040518263ffffffff1660e01b8152600401808273ffffffffffffffffffffffffffffffffffffffff1673ffffffffffffffffffffffffffffffffffffffff168152602001915050600060405180830381600087803b15801561084357600080fd5b505af1158015610857573d6000803e3d6000fd5b5050505050565b61087461086a33611a1a565b3360601b33611da7565b565b600160009054906101000a900473ffffffffffffffffffffffffffffffffffffffff1681565b6108b46108a833611a1a565b3360601b33858561233c565b5050565b6108d06108c433611a1a565b3360601b33858561270b565b5050565b606060006108e1836111e8565b9050600160009054906101000a900473ffffffffffffffffffffffffffffffffffffffff1673ffffffffffffffffffffffffffffffffffffffff1663430e0aee826040518263ffffffff1660e01b815260040180826bffffffffffffffffffffffff19166bffffffffffffffffffffffff1916815260200191505060206040518083038186803b15801561097457600080fd5b505afa158015610988573d6000803e3d6000fd5b505050506040513d602081101561099e57600080fd5b8101908080519060200190929190505050610a21576040517f08c379a00000000000000000000000000000000000000000000000000000000081526004018080602001828103825260128152602001807f44494420646f6573206e6f74206578697374000000000000000000000000000081525060200191505060405180910390fd5b6060600160009054906101000a900473ffffffffffffffffffffffffffffffffffffffff1673ffffffffffffffffffffffffffffffffffffffff16635acecc78836040518263ffffffff1660e01b815260040180826bffffffffffffffffffffffff19166bffffffffffffffffffffffff1916815260200191505060006040518083038186803b158015610ab457600080fd5b505afa158015610ac8573d6000803e3d6000fd5b505050506040513d6000823e3d601f19601f820116820180604052506060811015610af257600080fd5b81019080805190602001909291908051906020019092919080516040519392919084640100000000821115610b2657600080fd5b83820191506020820185811115610b3c57600080fd5b8251866001820283011164010000000082111715610b5957600080fd5b8083526020830192505050908051906020019080838360005b83811015610b8d578082015181840152602081019050610b72565b50505050905090810190601f168015610bba5780820380516001836020036101000a031916815260200191505b50604052505050925050508092505050919050565b6000809054906101000a900473ffffffffffffffffffffffffffffffffffffffff1681565b600080610c00836111e8565b9050600160009054906101000a900473ffffffffffffffffffffffffffffffffffffffff1673ffffffffffffffffffffffffffffffffffffffff1663430e0aee826040518263ffffffff1660e01b815260040180826bffffffffffffffffffffffff19166bffffffffffffffffffffffff1916815260200191505060206040518083038186803b158015610c9357600080fd5b505afa158015610ca7573d6000803e3d6000fd5b505050506040513d6020811015610cbd57600080fd5b8101908080519060200190929190505050610d40576040517f08c379a00000000000000000000000000000000000000000000000000000000081526004018080602001828103825260128152602001807f44494420646f6573206e6f74206578697374000000000000000000000000000081525060200191505060405180910390fd5b6000600160009054906101000a900473ffffffffffffffffffffffffffffffffffffffff1673ffffffffffffffffffffffffffffffffffffffff16635acecc78836040518263ffffffff1660e01b815260040180826bffffffffffffffffffffffff19166bffffffffffffffffffffffff1916815260200191505060006040518083038186803b158015610dd357600080fd5b505afa158015610de7573d6000803e3d6000fd5b505050506040513d6000823e3d601f19601f820116820180604052506060811015610e1157600080fd5b81019080805190602001909291908051906020019092919080516040519392919084640100000000821115610e4557600080fd5b83820191506020820185811115610e5b57600080fd5b8251866001820283011164010000000082111715610e7857600080fd5b8083526020830192505050908051906020019080838360005b83811015610eac578082015181840152602081019050610e91565b50505050905090810190601f168015610ed95780820380516001836020036101000a031916815260200191505b50604052505050509150508092505050919050565b600080610efa836111e8565b9050600160009054906101000a900473ffffffffffffffffffffffffffffffffffffffff1673ffffffffffffffffffffffffffffffffffffffff1663430e0aee826040518263ffffffff1660e01b815260040180826bffffffffffffffffffffffff19166bffffffffffffffffffffffff1916815260200191505060206040518083038186803b158015610f8d57600080fd5b505afa158015610fa1573d6000803e3d6000fd5b505050506040513d6020811015610fb757600080fd5b810190808051906020019092919050505061103a576040517f08c379a00000000000000000000000000000000000000000000000000000000081526004018080602001828103825260128152602001807f44494420646f6573206e6f74206578697374000000000000000000000000000081525060200191505060405180910390fd5b6000600160009054906101000a900473ffffffffffffffffffffffffffffffffffffffff1673ffffffffffffffffffffffffffffffffffffffff16635acecc78836040518263ffffffff1660e01b815260040180826bffffffffffffffffffffffff19166bffffffffffffffffffffffff1916815260200191505060006040518083038186803b1580156110cd57600080fd5b505afa1580156110e1573d6000803e3d6000fd5b505050506040513d6000823e3d601f19601f82011682018060405250606081101561110b57600080fd5b8101908080519060200190929190805190602001909291908051604051939291908464010000000082111561113f57600080fd5b8382019150602082018581111561115557600080fd5b825186600182028301116401000000008211171561117257600080fd5b8083526020830192505050908051906020019080838360005b838110156111a657808201518184015260208101905061118b565b50505050905090810190601f1680156111d35780820380516001836020036101000a031916815260200191505b50604052505050505090508092505050919050565b600061135482600160009054906101000a900473ffffffffffffffffffffffffffffffffffffffff1673ffffffffffffffffffffffffffffffffffffffff166312d05d3d6040518163ffffffff1660e01b815260040160006040518083038186803b15801561125657600080fd5b505afa15801561126a573d6000803e3d6000fd5b505050506040513d6000823e3d601f19601f82011682018060405250602081101561129457600080fd5b81019080805160405193929190846401000000008211156112b457600080fd5b838201915060208201858111156112ca57600080fd5b82518660018202830111640100000000821117156112e757600080fd5b8083526020830192505050908051906020019080838360005b8381101561131b578082015181840152602081019050611300565b50505050905090810190601f1680156113485780820380516001836020036101000a031916815260200191505b50604052505050612d13565b6113c6576040517f08c379a000000000000000000000000000000000000000000000000000000000815260040180806020018281038252600b8152602001807f696e76616c69642044494400000000000000000000000000000000000000000081525060200191505060405180910390fd5b606061153383600160009054906101000a900473ffffffffffffffffffffffffffffffffffffffff1673ffffffffffffffffffffffffffffffffffffffff166312d05d3d6040518163ffffffff1660e01b815260040160006040518083038186803b15801561143457600080fd5b505afa158015611448573d6000803e3d6000fd5b505050506040513d6000823e3d601f19601f82011682018060405250602081101561147257600080fd5b810190808051604051939291908464010000000082111561149257600080fd5b838201915060208201858111156114a857600080fd5b82518660018202830111640100000000821117156114c557600080fd5b8083526020830192505050908051906020019080838360005b838110156114f95780820151818401526020810190506114de565b50505050905090810190601f1680156115265780820380516001836020036101000a031916815260200191505b5060405250505051612dd0565b9050602a815114801561159e57507f30000000000000000000000000000000000000000000000000000000000000008160008151811061156f57fe5b602001015160f81c60f81b7effffffffffffffffffffffffffffffffffffffffffffffffffffffffffffff1916145b801561160257507f7800000000000000000000000000000000000000000000000000000000000000816001815181106115d357fe5b602001015160f81c60f81b7effffffffffffffffffffffffffffffffffffffffffffffffffffffffffffff1916145b611674576040517f08c379a000000000000000000000000000000000000000000000000000000000815260040180806020018281038252600b8152602001807f696e76616c69642044494400000000000000000000000000000000000000000081525060200191505060405180910390fd5b60008090506000806000600290505b602a8110156118b9576101008402935084818151811061169f57fe5b602001015160f81c60f81b60f81c60ff1692508460018201815181106116c157fe5b602001015160f81c60f81b60f81c60ff16915060618373ffffffffffffffffffffffffffffffffffffffff1610158015611712575060668373ffffffffffffffffffffffffffffffffffffffff1611155b15611722576057830392506117bc565b60308373ffffffffffffffffffffffffffffffffffffffff1610158015611760575060398373ffffffffffffffffffffffffffffffffffffffff1611155b15611770576030830392506117bb565b60418373ffffffffffffffffffffffffffffffffffffffff16101580156117ae575060468373ffffffffffffffffffffffffffffffffffffffff1611155b156117ba576037830392505b5b5b60618273ffffffffffffffffffffffffffffffffffffffff16101580156117fa575060668273ffffffffffffffffffffffffffffffffffffffff1611155b1561180a576057820391506118a4565b60308273ffffffffffffffffffffffffffffffffffffffff1610158015611848575060398273ffffffffffffffffffffffffffffffffffffffff1611155b15611858576030820391506118a3565b60418273ffffffffffffffffffffffffffffffffffffffff1610158015611896575060468273ffffffffffffffffffffffffffffffffffffffff1611155b156118a2576037820391505b5b5b81601084020184019350600281019050611683565b508260601b945050505050919050565b6000809054906101000a900473ffffffffffffffffffffffffffffffffffffffff1673ffffffffffffffffffffffffffffffffffffffff163373ffffffffffffffffffffffffffffffffffffffff161461192257600080fd5b600073ffffffffffffffffffffffffffffffffffffffff168173ffffffffffffffffffffffffffffffffffffffff16141561195c57600080fd5b8073ffffffffffffffffffffffffffffffffffffffff166000809054906101000a900473ffffffffffffffffffffffffffffffffffffffff1673ffffffffffffffffffffffffffffffffffffffff167f8be0079c531659141344cd1fd0a4f28419497f9722a3daafe3b4186f6b6457e060405160405180910390a3806000806101000a81548173ffffffffffffffffffffffffffffffffffffffff021916908373ffffffffffffffffffffffffffffffffffffffff16021790555050565b606080600160009054906101000a900473ffffffffffffffffffffffffffffffffffffffff1673ffffffffffffffffffffffffffffffffffffffff166312d05d3d6040518163ffffffff1660e01b815260040160006040518083038186803b158015611a8557600080fd5b505afa158015611a99573d6000803e3d6000fd5b505050506040513d6000823e3d601f19601f820116820180604052506020811015611ac357600080fd5b8101908080516040519392919084640100000000821115611ae357600080fd5b83820191506020820185811115611af957600080fd5b8251866001820283011164010000000082111715611b1657600080fd5b8083526020830192505050908051906020019080838360005b83811015611b4a578082015181840152602081019050611b2f565b50505050905090810190601f168015611b775780820380516001836020036101000a031916815260200191505b50604052505050611b8784612ecb565b6040516020018083805190602001908083835b60208310611bbd5780518252602082019150602081019050602083039250611b9a565b6001836020036101000a03801982511681845116808217855250505050505090500182805190602001908083835b60208310611c0e5780518252602082019150602081019050602083039250611beb565b6001836020036101000a038019825116818451168082178552505050505050905001925050506040516020818303038152906040529050606081516040519080825280601f01601f191660200182016040528015611c7b5781602001600182028038833980820191505090505b50905060008090505b8251811015611d9c576041838281518110611c9b57fe5b602001015160f81c60f81b60f81c60ff1610158015611cd75750605a838281518110611cc357fe5b602001015160f81c60f81b60f81c60ff1611155b15611d3c576020838281518110611cea57fe5b602001015160f81c60f81b60f81c0160f81b828281518110611d0857fe5b60200101907effffffffffffffffffffffffffffffffffffffffffffffffffffffffffffff1916908160001a905350611d8f565b828181518110611d4857fe5b602001015160f81c60f81b828281518110611d5f57fe5b60200101907effffffffffffffffffffffffffffffffffffffffffffffffffffffffffffff1916908160001a9053505b8080600101915050611c84565b508092505050919050565b600160009054906101000a900473ffffffffffffffffffffffffffffffffffffffff1673ffffffffffffffffffffffffffffffffffffffff1663430e0aee836040518263ffffffff1660e01b815260040180826bffffffffffffffffffffffff19166bffffffffffffffffffffffff1916815260200191505060206040518083038186803b158015611e3857600080fd5b505afa158015611e4c573d6000803e3d6000fd5b505050506040513d6020811015611e6257600080fd5b8101908080519060200190929190505050611ee5576040517f08c379a00000000000000000000000000000000000000000000000000000000081526004018080602001828103825260128152602001807f44494420646f6573206e6f74206578697374000000000000000000000000000081525060200191505060405180910390fd5b6000806060600160009054906101000a900473ffffffffffffffffffffffffffffffffffffffff1673ffffffffffffffffffffffffffffffffffffffff16635acecc78866040518263ffffffff1660e01b815260040180826bffffffffffffffffffffffff19166bffffffffffffffffffffffff1916815260200191505060006040518083038186803b158015611f7b57600080fd5b505afa158015611f8f573d6000803e3d6000fd5b505050506040513d6000823e3d601f19601f820116820180604052506060811015611fb957600080fd5b81019080805190602001909291908051906020019092919080516040519392919084640100000000821115611fed57600080fd5b8382019150602082018581111561200357600080fd5b825186600182028301116401000000008211171561202057600080fd5b8083526020830192505050908051906020019080838360005b83811015612054578082015181840152602081019050612039565b50505050905090810190601f1680156120815780820380516001836020036101000a031916815260200191505b506040525050509250925092508373ffffffffffffffffffffffffffffffffffffffff168373ffffffffffffffffffffffffffffffffffffffff161461212f576040517f08c379a000000000000000000000000000000000000000000000000000000000815260040180806020018281038252600d8152602001807f6e6f207065726d697373696f6e0000000000000000000000000000000000000081525060200191505060405180910390fd5b600160009054906101000a900473ffffffffffffffffffffffffffffffffffffffff1673ffffffffffffffffffffffffffffffffffffffff166348cab05b8660008786866040518663ffffffff1660e01b815260040180866bffffffffffffffffffffffff19166bffffffffffffffffffffffff19168152602001851515151581526020018473ffffffffffffffffffffffffffffffffffffffff1673ffffffffffffffffffffffffffffffffffffffff16815260200183815260200180602001828103825283818151815260200191508051906020019080838360005b8381101561222857808201518184015260208101905061220d565b50505050905090810190601f1680156122555780820380516001836020036101000a031916815260200191505b509650505050505050600060405180830381600087803b15801561227857600080fd5b505af115801561228c573d6000803e3d6000fd5b50505050856040518082805190602001908083835b602083106122c457805182526020820191506020810190506020830392506122a1565b6001836020036101000a03801982511681845116808217855250505050505090500191505060405180910390203373ffffffffffffffffffffffffffffffffffffffff167f56c5173d83675a7f2b174113df9205152eb36c65ab39e41d5d1b8d9cb88eabd260405160405180910390a3505050505050565b600160009054906101000a900473ffffffffffffffffffffffffffffffffffffffff1673ffffffffffffffffffffffffffffffffffffffff1663430e0aee856040518263ffffffff1660e01b815260040180826bffffffffffffffffffffffff19166bffffffffffffffffffffffff1916815260200191505060206040518083038186803b1580156123cd57600080fd5b505afa1580156123e1573d6000803e3d6000fd5b505050506040513d60208110156123f757600080fd5b81019080805190602001909291905050501561247b576040517f08c379a000000000000000000000000000000000000000000000000000000000815260040180806020018281038252600d8152602001807f6475706c6963617465204449440000000000000000000000000000000000000081525060200191505060405180910390fd5b600160009054906101000a900473ffffffffffffffffffffffffffffffffffffffff1673ffffffffffffffffffffffffffffffffffffffff166348cab05b8560018686866040518663ffffffff1660e01b815260040180866bffffffffffffffffffffffff19166bffffffffffffffffffffffff19168152602001851515151581526020018473ffffffffffffffffffffffffffffffffffffffff1673ffffffffffffffffffffffffffffffffffffffff16815260200183815260200180602001828103825283818151815260200191508051906020019080838360005b83811015612574578082015181840152602081019050612559565b50505050905090810190601f1680156125a15780820380516001836020036101000a031916815260200191505b509650505050505050600060405180830381600087803b1580156125c457600080fd5b505af11580156125d8573d6000803e3d6000fd5b505050508273ffffffffffffffffffffffffffffffffffffffff167f0a36151ef7283a91a6a8d052cd44a0c20f8c7207decf22d985eba8eb0a5a268b868484604051808060200184815260200180602001838103835286818151815260200191508051906020019080838360005b83811015612661578082015181840152602081019050612646565b50505050905090810190601f16801561268e5780820380516001836020036101000a031916815260200191505b50838103825284818151815260200191508051906020019080838360005b838110156126c75780820151818401526020810190506126ac565b50505050905090810190601f1680156126f45780820380516001836020036101000a031916815260200191505b509550505050505060405180910390a25050505050565b600160009054906101000a900473ffffffffffffffffffffffffffffffffffffffff1673ffffffffffffffffffffffffffffffffffffffff1663430e0aee856040518263ffffffff1660e01b815260040180826bffffffffffffffffffffffff19166bffffffffffffffffffffffff1916815260200191505060206040518083038186803b15801561279c57600080fd5b505afa1580156127b0573d6000803e3d6000fd5b505050506040513d60208110156127c657600080fd5b8101908080519060200190929190505050612849576040517f08c379a00000000000000000000000000000000000000000000000000000000081526004018080602001828103825260128152602001807f44494420646f6573206e6f74206578697374000000000000000000000000000081525060200191505060405180910390fd5b6000600160009054906101000a900473ffffffffffffffffffffffffffffffffffffffff1673ffffffffffffffffffffffffffffffffffffffff16635acecc78866040518263ffffffff1660e01b815260040180826bffffffffffffffffffffffff19166bffffffffffffffffffffffff1916815260200191505060006040518083038186803b1580156128dc57600080fd5b505afa1580156128f0573d6000803e3d6000fd5b505050506040513d6000823e3d601f19601f82011682018060405250606081101561291a57600080fd5b8101908080519060200190929190805190602001909291908051604051939291908464010000000082111561294e57600080fd5b8382019150602082018581111561296457600080fd5b825186600182028301116401000000008211171561298157600080fd5b8083526020830192505050908051906020019080838360005b838110156129b557808201518184015260208101905061299a565b50505050905090810190601f1680156129e25780820380516001836020036101000a031916815260200191505b50604052505050505090508373ffffffffffffffffffffffffffffffffffffffff168173ffffffffffffffffffffffffffffffffffffffff1614612a8e576040517f08c379a000000000000000000000000000000000000000000000000000000000815260040180806020018281038252600d8152602001807f6e6f207065726d697373696f6e0000000000000000000000000000000000000081525060200191505060405180910390fd5b600160009054906101000a900473ffffffffffffffffffffffffffffffffffffffff1673ffffffffffffffffffffffffffffffffffffffff166348cab05b8660018787876040518663ffffffff1660e01b815260040180866bffffffffffffffffffffffff19166bffffffffffffffffffffffff19168152602001851515151581526020018473ffffffffffffffffffffffffffffffffffffffff1673ffffffffffffffffffffffffffffffffffffffff16815260200183815260200180602001828103825283818151815260200191508051906020019080838360005b83811015612b87578082015181840152602081019050612b6c565b50505050905090810190601f168015612bb45780820380516001836020036101000a031916815260200191505b509650505050505050600060405180830381600087803b158015612bd757600080fd5b505af1158015612beb573d6000803e3d6000fd5b50505050856040518082805190602001908083835b60208310612c235780518252602082019150602081019050602083039250612c00565b6001836020036101000a03801982511681845116808217855250505050505090500191505060405180910390208473ffffffffffffffffffffffffffffffffffffffff167f30665598c4da8be2cccefb7fe32a379decd1eae407564569a8e95b51e3afccd785856040518083815260200180602001828103825283818151815260200191508051906020019080838360005b83811015612cd0578082015181840152602081019050612cb5565b50505050905090810190601f168015612cfd5780820380516001836020036101000a031916815260200191505b50935050505060405180910390a3505050505050565b60008151835111612d275760009050612dca565b60008090505b8251811015612dc457838181518110612d4257fe5b602001015160f81c60f81b7effffffffffffffffffffffffffffffffffffffffffffffffffffffffffffff1916838281518110612d7b57fe5b602001015160f81c60f81b7effffffffffffffffffffffffffffffffffffffffffffffffffffffffffffff191614612db7576000915050612dca565b8080600101915050612d2d565b50600190505b92915050565b60608183511015612e49576040517f08c379a00000000000000000000000000000000000000000000000000000000081526004018080602001828103825260128152602001807f52656164206f7574206f6620626f756e6473000000000000000000000000000081525060200191505060405180910390fd5b60008284510390506060811560008114612e6e57604051915060208201604052612ebf565b6040519150601f8316801560200281840101848101878315602002848b0101015b81831015612eac5780518352602083019250602081019050612e8f565b50858552601f19601f8301166040525050505b50809250505092915050565b606060008273ffffffffffffffffffffffffffffffffffffffff1660001b905060606040518060400160405280601081526020017f303132333435363738396162636465660000000000000000000000000000000081525090506060602a6040519080825280601f01601f191660200182016040528015612f5b5781602001600182028038833980820191505090505b5090507f300000000000000000000000000000000000000000000000000000000000000081600081518110612f8c57fe5b60200101907effffffffffffffffffffffffffffffffffffffffffffffffffffffffffffff1916908160001a9053507f780000000000000000000000000000000000000000000000000000000000000081600181518110612fe957fe5b60200101907effffffffffffffffffffffffffffffffffffffffffffffffffffffffffffff1916908160001a90535060008090505b60148110156131405782600485600c84016020811061303957fe5b1a60f81b7effffffffffffffffffffffffffffffffffffffffffffffffffffffffffffff1916901c60f81c60ff168151811061307157fe5b602001015160f81c60f81b82600283026002018151811061308e57fe5b60200101907effffffffffffffffffffffffffffffffffffffffffffffffffffffffffffff1916908160001a90535082600f60f81b85600c8401602081106130d257fe5b1a60f81b1660f81c60ff16815181106130e757fe5b602001015160f81c60f81b82600283026003018151811061310457fe5b60200101907effffffffffffffffffffffffffffffffffffffffffffffffffffffffffffff1916908160001a905350808060010191505061301e565b5080935050505091905056fea265627a7a7231582009794dee99936da529a376dcd2bf3733ca6b66622aa9f26bb79fa839ef4e29ad64736f6c6343000510003260806040523480156200001157600080fd5b5060405162000e9438038062000e94833981810160405260208110156200003757600080fd5b81019080805160405193929190846401000000008211156200005857600080fd5b838201915060208201858111156200006f57600080fd5b82518660018202830111640100000000821117156200008d57600080fd5b8083526020830192505050908051906020019080838360005b83811015620000c3578082015181840152602081019050620000a6565b50505050905090810190601f168015620000f15780820380516001836020036101000a031916815260200191505b50604052505050336000806101000a81548173ffffffffffffffffffffffffffffffffffffffff021916908373ffffffffffffffffffffffffffffffffffffffff16021790555062000149816200015060201b60201c565b5062000275565b6000809054906101000a900473ffffffffffffffffffffffffffffffffffffffff1673ffffffffffffffffffffffffffffffffffffffff163373ffffffffffffffffffffffffffffffffffffffff1614620001aa57600080fd5b8060019080519060200190620001c2929190620001c6565b5050565b828054600181600116156101000203166002900490600052602060002090601f016020900481019282601f106200020957805160ff19168380011785556200023a565b828001600101855582156200023a579182015b82811115620002395782518255916020019190600101906200021c565b5b5090506200024991906200024d565b5090565b6200027291905b808211156200026e57600081600090555060010162000254565b5090565b90565b610c0f80620002856000396000f3fe608060405234801561001057600080fd5b506004361061007d5760003560e01c80634f1531451161005b5780634f153145146102645780635acecc781461031f5780638da5cb5b1461040f578063f2fde38b146104595761007d565b806312d05d3d14610082578063430e0aee1461010557806348cab05b1461015a575b600080fd5b61008a61049d565b6040518080602001828103825283818151815260200191508051906020019080838360005b838110156100ca5780820151818401526020810190506100af565b50505050905090810190601f1680156100f75780820380516001836020036101000a031916815260200191505b509250505060405180910390f35b6101406004803603602081101561011b57600080fd5b8101908080356bffffffffffffffffffffffff1916906020019092919050505061053f565b604051808215151515815260200191505060405180910390f35b610262600480360360a081101561017057600080fd5b8101908080356bffffffffffffffffffffffff19169060200190929190803515159060200190929190803573ffffffffffffffffffffffffffffffffffffffff16906020019092919080359060200190929190803590602001906401000000008111156101dc57600080fd5b8201836020820111156101ee57600080fd5b8035906020019184600183028401116401000000008311171561021057600080fd5b91908080601f016020809104026020016040519081016040528093929190818152602001838380828437600081840152601f19601f82011690508083019250505050505050919291929050505061058a565b005b61031d6004803603602081101561027a57600080fd5b810190808035906020019064010000000081111561029757600080fd5b8201836020820111156102a957600080fd5b803590602001918460018302840111640100000000831117156102cb57600080fd5b91908080601f016020809104026020016040519081016040528093929190818152602001838380828437600081840152601f19601f8201169050808301925050505050505091929192905050506106e5565b005b61035a6004803603602081101561033557600080fd5b8101908080356bffffffffffffffffffffffff19169060200190929190505050610758565b604051808473ffffffffffffffffffffffffffffffffffffffff1673ffffffffffffffffffffffffffffffffffffffff16815260200183815260200180602001828103825283818151815260200191508051906020019080838360005b838110156103d25780820151818401526020810190506103b7565b50505050905090810190601f1680156103ff5780820380516001836020036101000a031916815260200191505b5094505050505060405180910390f35b61041761093f565b604051808273ffffffffffffffffffffffffffffffffffffffff1673ffffffffffffffffffffffffffffffffffffffff16815260200191505060405180910390f35b61049b6004803603602081101561046f57600080fd5b81019080803573ffffffffffffffffffffffffffffffffffffffff169060200190929190505050610964565b005b606060018054600181600116156101000203166002900480601f0160208091040260200160405190810160405280929190818152602001828054600181600116156101000203166002900480156105355780601f1061050a57610100808354040283529160200191610535565b820191906000526020600020905b81548152906001019060200180831161051857829003601f168201915b5050505050905090565b600060026000836bffffffffffffffffffffffff19166bffffffffffffffffffffffff1916815260200190815260200160002060000160009054906101000a900460ff169050919050565b6000809054906101000a900473ffffffffffffffffffffffffffffffffffffffff1673ffffffffffffffffffffffffffffffffffffffff163373ffffffffffffffffffffffffffffffffffffffff16146105e357600080fd5b604051806080016040528085151581526020018473ffffffffffffffffffffffffffffffffffffffff1681526020018381526020018281525060026000876bffffffffffffffffffffffff19166bffffffffffffffffffffffff1916815260200190815260200160002060008201518160000160006101000a81548160ff02191690831515021790555060208201518160000160016101000a81548173ffffffffffffffffffffffffffffffffffffffff021916908373ffffffffffffffffffffffffffffffffffffffff1602179055506040820151816001015560608201518160020190805190602001906106da929190610ab5565b509050505050505050565b6000809054906101000a900473ffffffffffffffffffffffffffffffffffffffff1673ffffffffffffffffffffffffffffffffffffffff163373ffffffffffffffffffffffffffffffffffffffff161461073e57600080fd5b8060019080519060200190610754929190610b35565b5050565b60008060606107668461053f565b6107d8576040517f08c379a00000000000000000000000000000000000000000000000000000000081526004018080602001828103825260128152602001807f44494420646f6573206e6f74206578697374000000000000000000000000000081525060200191505060405180910390fd5b60026000856bffffffffffffffffffffffff19166bffffffffffffffffffffffff1916815260200190815260200160002060000160019054906101000a900473ffffffffffffffffffffffffffffffffffffffff1660026000866bffffffffffffffffffffffff19166bffffffffffffffffffffffff191681526020019081526020016000206001015460026000876bffffffffffffffffffffffff19166bffffffffffffffffffffffff19168152602001908152602001600020600201808054600181600116156101000203166002900480601f01602080910402602001604051908101604052809291908181526020018280546001816001161561010002031660029004801561092b5780601f106109005761010080835404028352916020019161092b565b820191906000526020600020905b81548152906001019060200180831161090e57829003601f168201915b505050505090509250925092509193909250565b6000809054906101000a900473ffffffffffffffffffffffffffffffffffffffff1681565b6000809054906101000a900473ffffffffffffffffffffffffffffffffffffffff1673ffffffffffffffffffffffffffffffffffffffff163373ffffffffffffffffffffffffffffffffffffffff16146109bd57600080fd5b600073ffffffffffffffffffffffffffffffffffffffff168173ffffffffffffffffffffffffffffffffffffffff1614156109f757600080fd5b8073ffffffffffffffffffffffffffffffffffffffff166000809054906101000a900473ffffffffffffffffffffffffffffffffffffffff1673ffffffffffffffffffffffffffffffffffffffff167f8be0079c531659141344cd1fd0a4f28419497f9722a3daafe3b4186f6b6457e060405160405180910390a3806000806101000a81548173ffffffffffffffffffffffffffffffffffffffff021916908373ffffffffffffffffffffffffffffffffffffffff16021790555050565b828054600181600116156101000203166002900490600052602060002090601f016020900481019282601f10610af657805160ff1916838001178555610b24565b82800160010185558215610b24579182015b82811115610b23578251825591602001919060010190610b08565b5b509050610b319190610bb5565b5090565b828054600181600116156101000203166002900490600052602060002090601f016020900481019282601f10610b7657805160ff1916838001178555610ba4565b82800160010185558215610ba4579182015b82811115610ba3578251825591602001919060010190610b88565b5b509050610bb19190610bb5565b5090565b610bd791905b80821115610bd3576000816000905550600101610bbb565b5090565b9056fea265627a7a723158209adf7819135c6338a733b6d8957c05d9f30f68401ef63d97667b66deae230c5f64736f6c63430005100032",
  "source": "pragma solidity >=0.4.22 <0.6.0;\n\nimport './DIDManagerBase.sol';\n\ncontract AddressBasedDIDManager is DIDManagerBase {\n\n    constructor(bytes memory _prefix, address _dbAddr) DIDBase(_dbAddr, _prefix) public {}\n\n    function decodeInternalKey(bytes memory did) public view returns (bytes20) {\n        require(hasPrefix(did, db.getPrefix()), \"invalid DID\");\n        bytes memory domainID = (slice(did, db.getPrefix().length));\n        require(domainID.length == 42 && domainID[0] == '0' && domainID[1] == 'x', \"invalid DID\");\n        uint160 iaddr = 0;\n        uint160 b1;\n        uint160 b2;\n        for (uint i=2; i<2+2*20; i+=2){\n            iaddr *= 256;\n            b1 = uint8(domainID[i]);\n            b2 = uint8(domainID[i+1]);\n            if ((b1 >= 97)&&(b1 <= 102)) b1 -= 87;\n            else if ((b1 >= 48)&&(b1 <= 57)) b1 -= 48;\n            else if ((b1 >= 65)&&(b1 <= 70)) b1 -= 55;\n            if ((b2 >= 97)&&(b2 <= 102)) b2 -= 87;\n            else if ((b2 >= 48)&&(b2 <= 57)) b2 -= 48;\n            else if ((b2 >= 65)&&(b2 <= 70)) b2 -= 55;\n            iaddr += (b1*16+b2);\n        }\n        return bytes20(iaddr);\n    }\n\n    function registerDID(bytes32 h, bytes memory uri) public {\n        internalCreateDID(getDID(msg.sender), bytes20(msg.sender), msg.sender, h, uri);\n    }\n\n    function updateDID(bytes32 h, bytes memory uri) public {\n        internalUpdateDID(getDID(msg.sender), bytes20(msg.sender), msg.sender, h, uri);\n    }\n\n    function deregisterDID() public {\n        internalDeleteDID(getDID(msg.sender), bytes20(msg.sender), msg.sender);\n    }\n\n    function addrToString(address _addr) internal pure returns(string memory) {\n        bytes32 value = bytes32(uint256(_addr));\n        bytes memory alphabet = \"0123456789abcdef\";\n\n        bytes memory str = new bytes(42);\n        str[0] = '0';\n        str[1] = 'x';\n        for (uint i = 0; i < 20; i++) {\n            str[2+i*2] = alphabet[uint8(value[i + 12] >> 4)];\n            str[3+i*2] = alphabet[uint8(value[i + 12] & 0x0f)];\n        }\n        return string(str);\n    }\n\n    function getDID(address addr) internal view returns (bytes memory) {\n\t\tbytes memory bStr = abi.encodePacked(db.getPrefix(), addrToString(addr));\n\t\tbytes memory bLower = new bytes(bStr.length);\n\t\tfor (uint i = 0; i < bStr.length; i++) {\n\t\t\tif ((uint8(bStr[i]) >= 65) && (uint8(bStr[i]) <= 90)) {\n\t\t\t\tbLower[i] = bytes1(int8(bStr[i]) + 32);\n\t\t\t} else {\n\t\t\t\tbLower[i] = bStr[i];\n\t\t\t}\n\t\t}\n\t\treturn bLower;\n\t}\n}\n",
  "sourcePath": "/root/iotex-did/smartcontracts/contracts/AddressBasedDIDManager.sol",
  "compiler": {
    "name": "solc",
    "version": "0.5.16+commit.9c3226ce.Emscripten.clang"
  },
  "schemaVersion": "3.2.0",
  "updatedAt": "2020-07-15T03:29:24.476Z",
  "devdoc": {
    "methods": {
      "transferOwnership(address)": {
        "details": "Allows the current owner to transfer control of the contract to a newOwner.",
        "params": {
          "newOwner": "The address to transfer ownership to."
        }
      }
    }
  },
  "userdoc": {
    "methods": {}
  }
}