{
  "contractName": "AddressBasedDIDManagerWithAgentEnabled",
  "abi": [
    {
      "inputs": [
        {
          "internalType": "bytes",
          "name": "_prefix",
          "type": "bytes"
        },
        {
          "internalType": "address",
          "name": "_dbAddr",
          "type": "address"
        }
      ],
      "payable": false,
      "stateMutability": "nonpayable",
      "type": "constructor"
    },
    {
      "anonymous": false,
      "inputs": [
        {
          "indexed": true,
          "internalType": "address",
          "name": "operator",
          "type": "address"
        },
        {
          "indexed": false,
          "internalType": "string",
          "name": "did",
          "type": "string"
        },
        {
          "indexed": false,
          "internalType": "bytes32",
          "name": "hash",
          "type": "bytes32"
        },
        {
          "indexed": false,
          "internalType": "string",
          "name": "uri",
          "type": "string"
        }
      ],
      "name": "DIDCreated",
      "type": "event"
    },
    {
      "anonymous": false,
      "inputs": [
        {
          "indexed": true,
          "internalType": "address",
          "name": "operator",
          "type": "address"
        },
        {
          "indexed": true,
          "internalType": "string",
          "name": "did",
          "type": "string"
        }
      ],
      "name": "DIDDeleted",
      "type": "event"
    },
    {
      "anonymous": false,
      "inputs": [
        {
          "indexed": true,
          "internalType": "address",
          "name": "operator",
          "type": "address"
        },
        {
          "indexed": true,
          "internalType": "string",
          "name": "did",
          "type": "string"
        },
        {
          "indexed": false,
          "internalType": "bytes32",
          "name": "hash",
          "type": "bytes32"
        },
        {
          "indexed": false,
          "internalType": "string",
          "name": "uri",
          "type": "string"
        }
      ],
      "name": "DIDUpdated",
      "type": "event"
    },
    {
      "anonymous": false,
      "inputs": [
        {
          "indexed": true,
          "internalType": "address",
          "name": "previousOwner",
          "type": "address"
        },
        {
          "indexed": true,
          "internalType": "address",
          "name": "newOwner",
          "type": "address"
        }
      ],
      "name": "OwnershipTransferred",
      "type": "event"
    },
    {
      "anonymous": false,
      "inputs": [
        {
          "indexed": false,
          "internalType": "bytes",
          "name": "msg",
          "type": "bytes"
        }
      ],
      "name": "authMsg",
      "type": "event"
    },
    {
      "anonymous": false,
      "inputs": [
        {
          "indexed": false,
          "internalType": "bytes32",
          "name": "msg",
          "type": "bytes32"
        }
      ],
      "name": "hash",
      "type": "event"
    },
    {
      "anonymous": false,
      "inputs": [
        {
          "indexed": false,
          "internalType": "address",
          "name": "authorizer",
          "type": "address"
        }
      ],
      "name": "register",
      "type": "event"
    },
    {
      "constant": true,
      "inputs": [],
      "name": "db",
      "outputs": [
        {
          "internalType": "contract DIDStorage",
          "name": "",
          "type": "address"
        }
      ],
      "payable": false,
      "stateMutability": "view",
      "type": "function"
    },
    {
      "constant": true,
      "inputs": [
        {
          "internalType": "bytes",
          "name": "did",
          "type": "bytes"
        }
      ],
      "name": "decodeInternalKey",
      "outputs": [
        {
          "internalType": "bytes20",
          "name": "",
          "type": "bytes20"
        }
      ],
      "payable": false,
      "stateMutability": "view",
      "type": "function"
    },
    {
      "constant": false,
      "inputs": [],
      "name": "deregisterDID",
      "outputs": [],
      "payable": false,
      "stateMutability": "nonpayable",
      "type": "function"
    },
    {
      "constant": true,
      "inputs": [
        {
          "internalType": "bytes",
          "name": "did",
          "type": "bytes"
        },
        {
          "internalType": "bytes32",
          "name": "h",
          "type": "bytes32"
        },
        {
          "internalType": "bytes",
          "name": "uri",
          "type": "bytes"
        },
        {
          "internalType": "address",
          "name": "agent",
          "type": "address"
        }
      ],
      "name": "getCreateAuthMessage",
      "outputs": [
        {
          "internalType": "bytes",
          "name": "",
          "type": "bytes"
        }
      ],
      "payable": false,
      "stateMutability": "view",
      "type": "function"
    },
    {
      "constant": true,
      "inputs": [
        {
          "internalType": "bytes",
          "name": "did",
          "type": "bytes"
        },
        {
          "internalType": "address",
          "name": "agent",
          "type": "address"
        }
      ],
      "name": "getDeleteAuthMessage",
      "outputs": [
        {
          "internalType": "bytes",
          "name": "",
          "type": "bytes"
        }
      ],
      "payable": false,
      "stateMutability": "view",
      "type": "function"
    },
    {
      "constant": true,
      "inputs": [
        {
          "internalType": "bytes",
          "name": "did",
          "type": "bytes"
        }
      ],
      "name": "getHash",
      "outputs": [
        {
          "internalType": "bytes32",
          "name": "",
          "type": "bytes32"
        }
      ],
      "payable": false,
      "stateMutability": "view",
      "type": "function"
    },
    {
      "constant": true,
      "inputs": [
        {
          "internalType": "bytes",
          "name": "did",
          "type": "bytes"
        }
      ],
      "name": "getOwner",
      "outputs": [
        {
          "internalType": "address",
          "name": "",
          "type": "address"
        }
      ],
      "payable": false,
      "stateMutability": "view",
      "type": "function"
    },
    {
      "constant": true,
      "inputs": [
        {
          "internalType": "bytes",
          "name": "did",
          "type": "bytes"
        }
      ],
      "name": "getURI",
      "outputs": [
        {
          "internalType": "bytes",
          "name": "",
          "type": "bytes"
        }
      ],
      "payable": false,
      "stateMutability": "view",
      "type": "function"
    },
    {
      "constant": true,
      "inputs": [
        {
          "internalType": "bytes",
          "name": "did",
          "type": "bytes"
        },
        {
          "internalType": "bytes32",
          "name": "h",
          "type": "bytes32"
        },
        {
          "internalType": "bytes",
          "name": "uri",
          "type": "bytes"
        },
        {
          "internalType": "address",
          "name": "agent",
          "type": "address"
        }
      ],
      "name": "getUpdateAuthMessage",
      "outputs": [
        {
          "internalType": "bytes",
          "name": "",
          "type": "bytes"
        }
      ],
      "payable": false,
      "stateMutability": "view",
      "type": "function"
    },
    {
      "constant": true,
      "inputs": [],
      "name": "owner",
      "outputs": [
        {
          "internalType": "address",
          "name": "",
          "type": "address"
        }
      ],
      "payable": false,
      "stateMutability": "view",
      "type": "function"
    },
    {
      "constant": false,
      "inputs": [
        {
          "internalType": "bytes32",
          "name": "h",
          "type": "bytes32"
        },
        {
          "internalType": "bytes",
          "name": "uri",
          "type": "bytes"
        }
      ],
      "name": "registerDID",
      "outputs": [],
      "payable": false,
      "stateMutability": "nonpayable",
      "type": "function"
    },
    {
      "constant": false,
      "inputs": [
        {
          "internalType": "address",
          "name": "newOwner",
          "type": "address"
        }
      ],
      "name": "transferDBOwnership",
      "outputs": [],
      "payable": false,
      "stateMutability": "nonpayable",
      "type": "function"
    },
    {
      "constant": false,
      "inputs": [
        {
          "internalType": "address",
          "name": "newOwner",
          "type": "address"
        }
      ],
      "name": "transferOwnership",
      "outputs": [],
      "payable": false,
      "stateMutability": "nonpayable",
      "type": "function"
    },
    {
      "constant": false,
      "inputs": [
        {
          "internalType": "bytes32",
          "name": "h",
          "type": "bytes32"
        },
        {
          "internalType": "bytes",
          "name": "uri",
          "type": "bytes"
        }
      ],
      "name": "updateDID",
      "outputs": [],
      "payable": false,
      "stateMutability": "nonpayable",
      "type": "function"
    },
    {
      "constant": false,
      "inputs": [
        {
          "internalType": "bytes32",
          "name": "h",
          "type": "bytes32"
        },
        {
          "internalType": "bytes",
          "name": "uri",
          "type": "bytes"
        },
        {
          "internalType": "address",
          "name": "authorizer",
          "type": "address"
        },
        {
          "internalType": "bytes",
          "name": "auth",
          "type": "bytes"
        }
      ],
      "name": "registerByAgent",
      "outputs": [],
      "payable": false,
      "stateMutability": "nonpayable",
      "type": "function"
    },
    {
      "constant": false,
      "inputs": [
        {
          "internalType": "bytes",
          "name": "did",
          "type": "bytes"
        },
        {
          "internalType": "bytes32",
          "name": "h",
          "type": "bytes32"
        },
        {
          "internalType": "bytes",
          "name": "uri",
          "type": "bytes"
        },
        {
          "internalType": "bytes",
          "name": "auth",
          "type": "bytes"
        }
      ],
      "name": "updateByAgent",
      "outputs": [],
      "payable": false,
      "stateMutability": "nonpayable",
      "type": "function"
    },
    {
      "constant": false,
      "inputs": [
        {
          "internalType": "bytes",
          "name": "did",
          "type": "bytes"
        },
        {
          "internalType": "bytes",
          "name": "auth",
          "type": "bytes"
        }
      ],
      "name": "deregisterByAgent",
      "outputs": [],
      "payable": false,
      "stateMutability": "nonpayable",
      "type": "function"
    }
  ],
  "bytecode": "0x60806040523480156200001157600080fd5b50604051620066c2380380620066c2833981810160405260408110156200003757600080fd5b81019080805160405193929190846401000000008211156200005857600080fd5b838201915060208201858111156200006f57600080fd5b82518660018202830111640100000000821117156200008d57600080fd5b8083526020830192505050908051906020019080838360005b83811015620000c3578082015181840152602081019050620000a6565b50505050905090810190601f168015620000f15780820380516001836020036101000a031916815260200191505b506040526020018051906020019092919050505081818082336000806101000a81548173ffffffffffffffffffffffffffffffffffffffff021916908373ffffffffffffffffffffffffffffffffffffffff160217905550600073ffffffffffffffffffffffffffffffffffffffff168273ffffffffffffffffffffffffffffffffffffffff1614156200026457806040516200018e90620002b2565b8080602001828103825283818151815260200191508051906020019080838360005b83811015620001cd578082015181840152602081019050620001b0565b50505050905090810190601f168015620001fb5780820380516001836020036101000a031916815260200191505b5092505050604051809103906000f0801580156200021d573d6000803e3d6000fd5b50600160006101000a81548173ffffffffffffffffffffffffffffffffffffffff021916908373ffffffffffffffffffffffffffffffffffffffff160217905550620002a6565b81600160006101000a81548173ffffffffffffffffffffffffffffffffffffffff021916908373ffffffffffffffffffffffffffffffffffffffff1602179055505b505050505050620002c0565b610e94806200582e83390190565b61555e80620002d06000396000f3fe608060405234801561001057600080fd5b506004361061010b5760003560e01c80638da5cb5b116100a2578063bf6d313911610071578063bf6d313914610b13578063c0d8d15414610c00578063cc3b41dc14610d7c578063dd12015314610f71578063f2fde38b146111665761010b565b80638da5cb5b1461070c578063b00140aa14610756578063b102bfbe14610825578063b387dfce146109205761010b565b8063627c625a116100de578063627c625a146102fc57806372e0b98b146103c15780638626dea91461048657806388c460eb146105ba5761010b565b806332aad017146101105780633bdcb26c146101545780633d039cb3146102a85780634d655aff146102b2575b600080fd5b6101526004803603602081101561012657600080fd5b81019080803573ffffffffffffffffffffffffffffffffffffffff1690602001909291905050506111aa565b005b61022d6004803603604081101561016a57600080fd5b810190808035906020019064010000000081111561018757600080fd5b82018360208201111561019957600080fd5b803590602001918460018302840111640100000000831117156101bb57600080fd5b91908080601f016020809104026020016040519081016040528093929190818152602001838380828437600081840152601f19601f820116905080830192505050505050509192919290803573ffffffffffffffffffffffffffffffffffffffff1690602001909291905050506112bf565b6040518080602001828103825283818151815260200191508051906020019080838360005b8381101561026d578082015181840152602081019050610252565b50505050905090810190601f16801561029a5780820380516001836020036101000a031916815260200191505b509250505060405180910390f35b6102b0611462565b005b6102ba61147a565b604051808273ffffffffffffffffffffffffffffffffffffffff1673ffffffffffffffffffffffffffffffffffffffff16815260200191505060405180910390f35b6103bf6004803603604081101561031257600080fd5b81019080803590602001909291908035906020019064010000000081111561033957600080fd5b82018360208201111561034b57600080fd5b8035906020019184600183028401116401000000008311171561036d57600080fd5b91908080601f016020809104026020016040519081016040528093929190818152602001838380828437600081840152601f19601f8201169050808301925050505050505091929192905050506114a0565b005b610484600480360360408110156103d757600080fd5b8101908080359060200190929190803590602001906401000000008111156103fe57600080fd5b82018360208201111561041057600080fd5b8035906020019184600183028401116401000000008311171561043257600080fd5b91908080601f016020809104026020016040519081016040528093929190818152602001838380828437600081840152601f19601f8201169050808301925050505050505091929192905050506114bc565b005b61053f6004803603602081101561049c57600080fd5b81019080803590602001906401000000008111156104b957600080fd5b8201836020820111156104cb57600080fd5b803590602001918460018302840111640100000000831117156104ed57600080fd5b91908080601f016020809104026020016040519081016040528093929190818152602001838380828437600081840152601f19601f8201169050808301925050505050505091929192905050506114d8565b6040518080602001828103825283818151815260200191508051906020019080838360005b8381101561057f578082015181840152602081019050610564565b50505050905090810190601f1680156105ac5780820380516001836020036101000a031916815260200191505b509250505060405180910390f35b61070a600480360360408110156105d057600080fd5b81019080803590602001906401000000008111156105ed57600080fd5b8201836020820111156105ff57600080fd5b8035906020019184600183028401116401000000008311171561062157600080fd5b91908080601f016020809104026020016040519081016040528093929190818152602001838380828437600081840152601f19601f8201169050808301925050505050505091929192908035906020019064010000000081111561068457600080fd5b82018360208201111561069657600080fd5b803590602001918460018302840111640100000000831117156106b857600080fd5b91908080601f016020809104026020016040519081016040528093929190818152602001838380828437600081840152601f19601f8201169050808301925050505050505091929192905050506117d3565b005b610714611b86565b604051808273ffffffffffffffffffffffffffffffffffffffff1673ffffffffffffffffffffffffffffffffffffffff16815260200191505060405180910390f35b61080f6004803603602081101561076c57600080fd5b810190808035906020019064010000000081111561078957600080fd5b82018360208201111561079b57600080fd5b803590602001918460018302840111640100000000831117156107bd57600080fd5b91908080601f016020809104026020016040519081016040528093929190818152602001838380828437600081840152601f19601f820116905080830192505050505050509192919290505050611bab565b6040518082815260200191505060405180910390f35b6108de6004803603602081101561083b57600080fd5b810190808035906020019064010000000081111561085857600080fd5b82018360208201111561086a57600080fd5b8035906020019184600183028401116401000000008311171561088c57600080fd5b91908080601f016020809104026020016040519081016040528093929190818152602001838380828437600081840152601f19601f820116905080830192505050505050509192919290505050611ea5565b604051808273ffffffffffffffffffffffffffffffffffffffff1673ffffffffffffffffffffffffffffffffffffffff16815260200191505060405180910390f35b610b116004803603608081101561093657600080fd5b810190808035906020019064010000000081111561095357600080fd5b82018360208201111561096557600080fd5b8035906020019184600183028401116401000000008311171561098757600080fd5b91908080601f016020809104026020016040519081016040528093929190818152602001838380828437600081840152601f19601f82011690508083019250505050505050919291929080359060200190929190803590602001906401000000008111156109f457600080fd5b820183602082011115610a0657600080fd5b80359060200191846001830284011164010000000083111715610a2857600080fd5b91908080601f016020809104026020016040519081016040528093929190818152602001838380828437600081840152601f19601f82011690508083019250505050505050919291929080359060200190640100000000811115610a8b57600080fd5b820183602082011115610a9d57600080fd5b80359060200191846001830284011164010000000083111715610abf57600080fd5b91908080601f016020809104026020016040519081016040528093929190818152602001838380828437600081840152601f19601f82011690508083019250505050505050919291929050505061219f565b005b610bcc60048036036020811015610b2957600080fd5b8101908080359060200190640100000000811115610b4657600080fd5b820183602082011115610b5857600080fd5b80359060200191846001830284011164010000000083111715610b7a57600080fd5b91908080601f016020809104026020016040519081016040528093929190818152602001838380828437600081840152601f19601f8201169050808301925050505050505091929192905050506128ad565b60405180826bffffffffffffffffffffffff19166bffffffffffffffffffffffff1916815260200191505060405180910390f35b610d7a60048036036080811015610c1657600080fd5b810190808035906020019092919080359060200190640100000000811115610c3d57600080fd5b820183602082011115610c4f57600080fd5b80359060200191846001830284011164010000000083111715610c7157600080fd5b91908080601f016020809104026020016040519081016040528093929190818152602001838380828437600081840152601f19601f820116905080830192505050505050509192919290803573ffffffffffffffffffffffffffffffffffffffff16906020019092919080359060200190640100000000811115610cf457600080fd5b820183602082011115610d0657600080fd5b80359060200191846001830284011164010000000083111715610d2857600080fd5b91908080601f016020809104026020016040519081016040528093929190818152602001838380828437600081840152601f19601f820116905080830192505050505050509192919290505050612f8e565b005b610ef660048036036080811015610d9257600080fd5b8101908080359060200190640100000000811115610daf57600080fd5b820183602082011115610dc157600080fd5b80359060200191846001830284011164010000000083111715610de357600080fd5b91908080601f016020809104026020016040519081016040528093929190818152602001838380828437600081840152601f19601f8201169050808301925050505050505091929192908035906020019092919080359060200190640100000000811115610e5057600080fd5b820183602082011115610e6257600080fd5b80359060200191846001830284011164010000000083111715610e8457600080fd5b91908080601f016020809104026020016040519081016040528093929190818152602001838380828437600081840152601f19601f820116905080830192505050505050509192919290803573ffffffffffffffffffffffffffffffffffffffff16906020019092919050505061349e565b6040518080602001828103825283818151815260200191508051906020019080838360005b83811015610f36578082015181840152602081019050610f1b565b50505050905090810190601f168015610f635780820380516001836020036101000a031916815260200191505b509250505060405180910390f35b6110eb60048036036080811015610f8757600080fd5b8101908080359060200190640100000000811115610fa457600080fd5b820183602082011115610fb657600080fd5b80359060200191846001830284011164010000000083111715610fd857600080fd5b91908080601f016020809104026020016040519081016040528093929190818152602001838380828437600081840152601f19601f820116905080830192505050505050509192919290803590602001909291908035906020019064010000000081111561104557600080fd5b82018360208201111561105757600080fd5b8035906020019184600183028401116401000000008311171561107957600080fd5b91908080601f016020809104026020016040519081016040528093929190818152602001838380828437600081840152601f19601f820116905080830192505050505050509192919290803573ffffffffffffffffffffffffffffffffffffffff169060200190929190505050613716565b6040518080602001828103825283818151815260200191508051906020019080838360005b8381101561112b578082015181840152602081019050611110565b50505050905090810190601f1680156111585780820380516001836020036101000a031916815260200191505b509250505060405180910390f35b6111a86004803603602081101561117c57600080fd5b81019080803573ffffffffffffffffffffffffffffffffffffffff16906020019092919050505061398e565b005b6000809054906101000a900473ffffffffffffffffffffffffffffffffffffffff1673ffffffffffffffffffffffffffffffffffffffff163373ffffffffffffffffffffffffffffffffffffffff161461120357600080fd5b600160009054906101000a900473ffffffffffffffffffffffffffffffffffffffff1673ffffffffffffffffffffffffffffffffffffffff1663f2fde38b826040518263ffffffff1660e01b8152600401808273ffffffffffffffffffffffffffffffffffffffff1673ffffffffffffffffffffffffffffffffffffffff168152602001915050600060405180830381600087803b1580156112a457600080fd5b505af11580156112b8573d6000803e3d6000fd5b5050505050565b60606112ca82613adf565b836112d430613adf565b60405160200180807f4920617574686f72697a65200000000000000000000000000000000000000000815250600c0184805190602001908083835b60208310611332578051825260208201915060208101905060208303925061130f565b6001836020036101000a038019825116818451168082178552505050505050905001807f20746f2064656c65746520444944200000000000000000000000000000000000815250600f0183805190602001908083835b602083106113ab5780518252602082019150602081019050602083039250611388565b6001836020036101000a038019825116818451168082178552505050505050905001807f20696e20636f6e74726163742000000000000000000000000000000000000000815250600d0182805190602001908083835b602083106114245780518252602082019150602081019050602083039250611401565b6001836020036101000a0380198251168184511680821785525050505050509050019350505050604051602081830303815290604052905092915050565b61147861146e33613d60565b3360601b336140ed565b565b600160009054906101000a900473ffffffffffffffffffffffffffffffffffffffff1681565b6114b86114ac33613d60565b3360601b338585614682565b5050565b6114d46114c833613d60565b3360601b338585614a51565b5050565b606060006114e5836128ad565b9050600160009054906101000a900473ffffffffffffffffffffffffffffffffffffffff1673ffffffffffffffffffffffffffffffffffffffff1663430e0aee826040518263ffffffff1660e01b815260040180826bffffffffffffffffffffffff19166bffffffffffffffffffffffff1916815260200191505060206040518083038186803b15801561157857600080fd5b505afa15801561158c573d6000803e3d6000fd5b505050506040513d60208110156115a257600080fd5b8101908080519060200190929190505050611625576040517f08c379a00000000000000000000000000000000000000000000000000000000081526004018080602001828103825260128152602001807f44494420646f6573206e6f74206578697374000000000000000000000000000081525060200191505060405180910390fd5b6060600160009054906101000a900473ffffffffffffffffffffffffffffffffffffffff1673ffffffffffffffffffffffffffffffffffffffff16635acecc78836040518263ffffffff1660e01b815260040180826bffffffffffffffffffffffff19166bffffffffffffffffffffffff1916815260200191505060006040518083038186803b1580156116b857600080fd5b505afa1580156116cc573d6000803e3d6000fd5b505050506040513d6000823e3d601f19601f8201168201806040525060608110156116f657600080fd5b8101908080519060200190929190805190602001909291908051604051939291908464010000000082111561172a57600080fd5b8382019150602082018581111561174057600080fd5b825186600182028301116401000000008211171561175d57600080fd5b8083526020830192505050908051906020019080838360005b83811015611791578082015181840152602081019050611776565b50505050905090810190601f1680156117be5780820380516001836020036101000a031916815260200191505b50604052505050925050508092505050919050565b60006117de836128ad565b9050600160009054906101000a900473ffffffffffffffffffffffffffffffffffffffff1673ffffffffffffffffffffffffffffffffffffffff1663430e0aee826040518263ffffffff1660e01b815260040180826bffffffffffffffffffffffff19166bffffffffffffffffffffffff1916815260200191505060206040518083038186803b15801561187157600080fd5b505afa158015611885573d6000803e3d6000fd5b505050506040513d602081101561189b57600080fd5b810190808051906020019092919050505061191e576040517f08c379a00000000000000000000000000000000000000000000000000000000081526004018080602001828103825260128152602001807f44494420646f6573206e6f74206578697374000000000000000000000000000081525060200191505060405180910390fd5b6000600160009054906101000a900473ffffffffffffffffffffffffffffffffffffffff1673ffffffffffffffffffffffffffffffffffffffff16635acecc78836040518263ffffffff1660e01b815260040180826bffffffffffffffffffffffff19166bffffffffffffffffffffffff1916815260200191505060006040518083038186803b1580156119b157600080fd5b505afa1580156119c5573d6000803e3d6000fd5b505050506040513d6000823e3d601f19601f8201168201806040525060608110156119ef57600080fd5b81019080805190602001909291908051906020019092919080516040519392919084640100000000821115611a2357600080fd5b83820191506020820185811115611a3957600080fd5b8251866001820283011164010000000082111715611a5657600080fd5b8083526020830192505050908051906020019080838360005b83811015611a8a578082015181840152602081019050611a6f565b50505050905090810190601f168015611ab75780820380516001836020036101000a031916815260200191505b5060405250505050509050611ad5611acf85336112bf565b84615059565b73ffffffffffffffffffffffffffffffffffffffff168173ffffffffffffffffffffffffffffffffffffffff1614611b75576040517f08c379a00000000000000000000000000000000000000000000000000000000081526004018080602001828103825260118152602001807f696e76616c6964207369676e617475726500000000000000000000000000000081525060200191505060405180910390fd5b611b808483836140ed565b50505050565b6000809054906101000a900473ffffffffffffffffffffffffffffffffffffffff1681565b600080611bb7836128ad565b9050600160009054906101000a900473ffffffffffffffffffffffffffffffffffffffff1673ffffffffffffffffffffffffffffffffffffffff1663430e0aee826040518263ffffffff1660e01b815260040180826bffffffffffffffffffffffff19166bffffffffffffffffffffffff1916815260200191505060206040518083038186803b158015611c4a57600080fd5b505afa158015611c5e573d6000803e3d6000fd5b505050506040513d6020811015611c7457600080fd5b8101908080519060200190929190505050611cf7576040517f08c379a00000000000000000000000000000000000000000000000000000000081526004018080602001828103825260128152602001807f44494420646f6573206e6f74206578697374000000000000000000000000000081525060200191505060405180910390fd5b6000600160009054906101000a900473ffffffffffffffffffffffffffffffffffffffff1673ffffffffffffffffffffffffffffffffffffffff16635acecc78836040518263ffffffff1660e01b815260040180826bffffffffffffffffffffffff19166bffffffffffffffffffffffff1916815260200191505060006040518083038186803b158015611d8a57600080fd5b505afa158015611d9e573d6000803e3d6000fd5b505050506040513d6000823e3d601f19601f820116820180604052506060811015611dc857600080fd5b81019080805190602001909291908051906020019092919080516040519392919084640100000000821115611dfc57600080fd5b83820191506020820185811115611e1257600080fd5b8251866001820283011164010000000082111715611e2f57600080fd5b8083526020830192505050908051906020019080838360005b83811015611e63578082015181840152602081019050611e48565b50505050905090810190601f168015611e905780820380516001836020036101000a031916815260200191505b50604052505050509150508092505050919050565b600080611eb1836128ad565b9050600160009054906101000a900473ffffffffffffffffffffffffffffffffffffffff1673ffffffffffffffffffffffffffffffffffffffff1663430e0aee826040518263ffffffff1660e01b815260040180826bffffffffffffffffffffffff19166bffffffffffffffffffffffff1916815260200191505060206040518083038186803b158015611f4457600080fd5b505afa158015611f58573d6000803e3d6000fd5b505050506040513d6020811015611f6e57600080fd5b8101908080519060200190929190505050611ff1576040517f08c379a00000000000000000000000000000000000000000000000000000000081526004018080602001828103825260128152602001807f44494420646f6573206e6f74206578697374000000000000000000000000000081525060200191505060405180910390fd5b6000600160009054906101000a900473ffffffffffffffffffffffffffffffffffffffff1673ffffffffffffffffffffffffffffffffffffffff16635acecc78836040518263ffffffff1660e01b815260040180826bffffffffffffffffffffffff19166bffffffffffffffffffffffff1916815260200191505060006040518083038186803b15801561208457600080fd5b505afa158015612098573d6000803e3d6000fd5b505050506040513d6000823e3d601f19601f8201168201806040525060608110156120c257600080fd5b810190808051906020019092919080519060200190929190805160405193929190846401000000008211156120f657600080fd5b8382019150602082018581111561210c57600080fd5b825186600182028301116401000000008211171561212957600080fd5b8083526020830192505050908051906020019080838360005b8381101561215d578082015181840152602081019050612142565b50505050905090810190601f16801561218a5780820380516001836020036101000a031916815260200191505b50604052505050505090508092505050919050565b60006121aa856128ad565b9050600160009054906101000a900473ffffffffffffffffffffffffffffffffffffffff1673ffffffffffffffffffffffffffffffffffffffff1663430e0aee826040518263ffffffff1660e01b815260040180826bffffffffffffffffffffffff19166bffffffffffffffffffffffff1916815260200191505060206040518083038186803b15801561223d57600080fd5b505afa158015612251573d6000803e3d6000fd5b505050506040513d602081101561226757600080fd5b81019080805190602001909291905050506122ea576040517f08c379a00000000000000000000000000000000000000000000000000000000081526004018080602001828103825260128152602001807f44494420646f6573206e6f74206578697374000000000000000000000000000081525060200191505060405180910390fd5b6000600160009054906101000a900473ffffffffffffffffffffffffffffffffffffffff1673ffffffffffffffffffffffffffffffffffffffff16635acecc78836040518263ffffffff1660e01b815260040180826bffffffffffffffffffffffff19166bffffffffffffffffffffffff1916815260200191505060006040518083038186803b15801561237d57600080fd5b505afa158015612391573d6000803e3d6000fd5b505050506040513d6000823e3d601f19601f8201168201806040525060608110156123bb57600080fd5b810190808051906020019092919080519060200190929190805160405193929190846401000000008211156123ef57600080fd5b8382019150602082018581111561240557600080fd5b825186600182028301116401000000008211171561242257600080fd5b8083526020830192505050908051906020019080838360005b8381101561245657808201518184015260208101905061243b565b50505050905090810190601f1680156124835780820380516001836020036101000a031916815260200191505b5060405250505050509050606061249c87878733613716565b905060606124aa8251615162565b8260405160200180807f19457468657265756d205369676e6564204d6573736167653a0a000000000000815250601a0183805190602001908083835b6020831061250957805182526020820191506020810190506020830392506124e6565b6001836020036101000a03801982511681845116808217855250505050505090500182805190602001908083835b6020831061255a5780518252602082019150602081019050602083039250612537565b6001836020036101000a0380198251168184511680821785525050505050509050019250505060405160208183030381529060405290507f47e6302b843e320d72a50f9412a09b8ccad6d33294db9cd968bd13e90e16e508826040518080602001828103825283818151815260200191508051906020019080838360005b838110156125f35780820151818401526020810190506125d8565b50505050905090810190601f1680156126205780820380516001836020036101000a031916815260200191505b509250505060405180910390a17f47e6302b843e320d72a50f9412a09b8ccad6d33294db9cd968bd13e90e16e508816040518080602001828103825283818151815260200191508051906020019080838360005b8381101561268f578082015181840152602081019050612674565b50505050905090810190601f1680156126bc5780820380516001836020036101000a031916815260200191505b509250505060405180910390a17fd8389dc559aa0a8c6ffecc778865159cea397fa8c1cba3db9a4d0a8be374d66281805190602001206040518082815260200191505060405180910390a17f4420e4869750c98a56ac621854d2d00e598698ac87193cdfcbb6ed1164e9cbcd61273d6127378a8a8a33613716565b87615059565b604051808273ffffffffffffffffffffffffffffffffffffffff1673ffffffffffffffffffffffffffffffffffffffff16815260200191505060405180910390a17f4420e4869750c98a56ac621854d2d00e598698ac87193cdfcbb6ed1164e9cbcd83604051808273ffffffffffffffffffffffffffffffffffffffff1673ffffffffffffffffffffffffffffffffffffffff16815260200191505060405180910390a16127f66127f089898933613716565b86615059565b73ffffffffffffffffffffffffffffffffffffffff168373ffffffffffffffffffffffffffffffffffffffff1614612896576040517f08c379a00000000000000000000000000000000000000000000000000000000081526004018080602001828103825260118152602001807f696e76616c6964207369676e617475726500000000000000000000000000000081525060200191505060405180910390fd5b6128a38885858a8a614a51565b5050505050505050565b6000612a1982600160009054906101000a900473ffffffffffffffffffffffffffffffffffffffff1673ffffffffffffffffffffffffffffffffffffffff166312d05d3d6040518163ffffffff1660e01b815260040160006040518083038186803b15801561291b57600080fd5b505afa15801561292f573d6000803e3d6000fd5b505050506040513d6000823e3d601f19601f82011682018060405250602081101561295957600080fd5b810190808051604051939291908464010000000082111561297957600080fd5b8382019150602082018581111561298f57600080fd5b82518660018202830111640100000000821117156129ac57600080fd5b8083526020830192505050908051906020019080838360005b838110156129e05780820151818401526020810190506129c5565b50505050905090810190601f168015612a0d5780820380516001836020036101000a031916815260200191505b5060405250505061528f565b612a8b576040517f08c379a000000000000000000000000000000000000000000000000000000000815260040180806020018281038252600b8152602001807f696e76616c69642044494400000000000000000000000000000000000000000081525060200191505060405180910390fd5b6060612bf883600160009054906101000a900473ffffffffffffffffffffffffffffffffffffffff1673ffffffffffffffffffffffffffffffffffffffff166312d05d3d6040518163ffffffff1660e01b815260040160006040518083038186803b158015612af957600080fd5b505afa158015612b0d573d6000803e3d6000fd5b505050506040513d6000823e3d601f19601f820116820180604052506020811015612b3757600080fd5b8101908080516040519392919084640100000000821115612b5757600080fd5b83820191506020820185811115612b6d57600080fd5b8251866001820283011164010000000082111715612b8a57600080fd5b8083526020830192505050908051906020019080838360005b83811015612bbe578082015181840152602081019050612ba3565b50505050905090810190601f168015612beb5780820380516001836020036101000a031916815260200191505b506040525050505161534c565b9050602a8151148015612c6357507f300000000000000000000000000000000000000000000000000000000000000081600081518110612c3457fe5b602001015160f81c60f81b7effffffffffffffffffffffffffffffffffffffffffffffffffffffffffffff1916145b8015612cc757507f780000000000000000000000000000000000000000000000000000000000000081600181518110612c9857fe5b602001015160f81c60f81b7effffffffffffffffffffffffffffffffffffffffffffffffffffffffffffff1916145b612d39576040517f08c379a000000000000000000000000000000000000000000000000000000000815260040180806020018281038252600b8152602001807f696e76616c69642044494400000000000000000000000000000000000000000081525060200191505060405180910390fd5b60008090506000806000600290505b602a811015612f7e5761010084029350848181518110612d6457fe5b602001015160f81c60f81b60f81c60ff169250846001820181518110612d8657fe5b602001015160f81c60f81b60f81c60ff16915060618373ffffffffffffffffffffffffffffffffffffffff1610158015612dd7575060668373ffffffffffffffffffffffffffffffffffffffff1611155b15612de757605783039250612e81565b60308373ffffffffffffffffffffffffffffffffffffffff1610158015612e25575060398373ffffffffffffffffffffffffffffffffffffffff1611155b15612e3557603083039250612e80565b60418373ffffffffffffffffffffffffffffffffffffffff1610158015612e73575060468373ffffffffffffffffffffffffffffffffffffffff1611155b15612e7f576037830392505b5b5b60618273ffffffffffffffffffffffffffffffffffffffff1610158015612ebf575060668273ffffffffffffffffffffffffffffffffffffffff1611155b15612ecf57605782039150612f69565b60308273ffffffffffffffffffffffffffffffffffffffff1610158015612f0d575060398273ffffffffffffffffffffffffffffffffffffffff1611155b15612f1d57603082039150612f68565b60418273ffffffffffffffffffffffffffffffffffffffff1610158015612f5b575060468273ffffffffffffffffffffffffffffffffffffffff1611155b15612f67576037820391505b5b5b81601084020184019350600281019050612d48565b508260601b945050505050919050565b6060612f9983613d60565b905060008360601b9050600160009054906101000a900473ffffffffffffffffffffffffffffffffffffffff1673ffffffffffffffffffffffffffffffffffffffff1663430e0aee826040518263ffffffff1660e01b815260040180826bffffffffffffffffffffffff19166bffffffffffffffffffffffff1916815260200191505060206040518083038186803b15801561303457600080fd5b505afa158015613048573d6000803e3d6000fd5b505050506040513d602081101561305e57600080fd5b8101908080519060200190929190505050156130e2576040517f08c379a000000000000000000000000000000000000000000000000000000000815260040180806020018281038252600d8152602001807f6475706c6963617465204449440000000000000000000000000000000000000081525060200191505060405180910390fd5b60606130f08388883361349e565b905060606130fe8251615162565b8260405160200180807f19457468657265756d205369676e6564204d6573736167653a0a000000000000815250601a0183805190602001908083835b6020831061315d578051825260208201915060208101905060208303925061313a565b6001836020036101000a03801982511681845116808217855250505050505090500182805190602001908083835b602083106131ae578051825260208201915060208101905060208303925061318b565b6001836020036101000a0380198251168184511680821785525050505050509050019250505060405160208183030381529060405290507f47e6302b843e320d72a50f9412a09b8ccad6d33294db9cd968bd13e90e16e508826040518080602001828103825283818151815260200191508051906020019080838360005b8381101561324757808201518184015260208101905061322c565b50505050905090810190601f1680156132745780820380516001836020036101000a031916815260200191505b509250505060405180910390a17f47e6302b843e320d72a50f9412a09b8ccad6d33294db9cd968bd13e90e16e508816040518080602001828103825283818151815260200191508051906020019080838360005b838110156132e35780820151818401526020810190506132c8565b50505050905090810190601f1680156133105780820380516001836020036101000a031916815260200191505b509250505060405180910390a17fd8389dc559aa0a8c6ffecc778865159cea397fa8c1cba3db9a4d0a8be374d66281805190602001206040518082815260200191505060405180910390a17f4420e4869750c98a56ac621854d2d00e598698ac87193cdfcbb6ed1164e9cbcd61339161338b868b8b3361349e565b87615059565b604051808273ffffffffffffffffffffffffffffffffffffffff1673ffffffffffffffffffffffffffffffffffffffff16815260200191505060405180910390a16133e76133e1858a8a3361349e565b86615059565b73ffffffffffffffffffffffffffffffffffffffff168673ffffffffffffffffffffffffffffffffffffffff1614613487576040517f08c379a00000000000000000000000000000000000000000000000000000000081526004018080602001828103825260118152602001807f696e76616c6964207369676e617475726500000000000000000000000000000081525060200191505060405180910390fd5b6134948484888b8b614682565b5050505050505050565b60606134a982613adf565b856134b330613adf565b868660405160200180807f4920617574686f72697a65200000000000000000000000000000000000000000815250600c0186805190602001908083835b6020831061351357805182526020820191506020810190506020830392506134f0565b6001836020036101000a038019825116818451168082178552505050505050905001807f20746f2063726561746520444944200000000000000000000000000000000000815250600f0185805190602001908083835b6020831061358c5780518252602082019150602081019050602083039250613569565b6001836020036101000a038019825116818451168082178552505050505050905001807f20696e20636f6e7472616374207769746820000000000000000000000000000081525060120184805190602001908083835b6020831061360557805182526020820191506020810190506020830392506135e2565b6001836020036101000a038019825116818451168082178552505050505050905001807f2028000000000000000000000000000000000000000000000000000000000000815250600201838152602001807f2c2000000000000000000000000000000000000000000000000000000000000081525060020182805190602001908083835b602083106136ac5780518252602082019150602081019050602083039250613689565b6001836020036101000a038019825116818451168082178552505050505050905001807f2900000000000000000000000000000000000000000000000000000000000000815250600101955050505050506040516020818303038152906040529050949350505050565b606061372182613adf565b8561372b30613adf565b868660405160200180807f4920617574686f72697a65200000000000000000000000000000000000000000815250600c0186805190602001908083835b6020831061378b5780518252602082019150602081019050602083039250613768565b6001836020036101000a038019825116818451168082178552505050505050905001807f20746f2075706461746520444944200000000000000000000000000000000000815250600f0185805190602001908083835b6020831061380457805182526020820191506020810190506020830392506137e1565b6001836020036101000a038019825116818451168082178552505050505050905001807f20696e20636f6e747261637420746f200000000000000000000000000000000081525060100184805190602001908083835b6020831061387d578051825260208201915060208101905060208303925061385a565b6001836020036101000a038019825116818451168082178552505050505050905001807f2028000000000000000000000000000000000000000000000000000000000000815250600201838152602001807f2c2000000000000000000000000000000000000000000000000000000000000081525060020182805190602001908083835b602083106139245780518252602082019150602081019050602083039250613901565b6001836020036101000a038019825116818451168082178552505050505050905001807f2900000000000000000000000000000000000000000000000000000000000000815250600101955050505050506040516020818303038152906040529050949350505050565b6000809054906101000a900473ffffffffffffffffffffffffffffffffffffffff1673ffffffffffffffffffffffffffffffffffffffff163373ffffffffffffffffffffffffffffffffffffffff16146139e757600080fd5b600073ffffffffffffffffffffffffffffffffffffffff168173ffffffffffffffffffffffffffffffffffffffff161415613a2157600080fd5b8073ffffffffffffffffffffffffffffffffffffffff166000809054906101000a900473ffffffffffffffffffffffffffffffffffffffff1673ffffffffffffffffffffffffffffffffffffffff167f8be0079c531659141344cd1fd0a4f28419497f9722a3daafe3b4186f6b6457e060405160405180910390a3806000806101000a81548173ffffffffffffffffffffffffffffffffffffffff021916908373ffffffffffffffffffffffffffffffffffffffff16021790555050565b606060008273ffffffffffffffffffffffffffffffffffffffff1660001b905060606040518060400160405280601081526020017f303132333435363738396162636465660000000000000000000000000000000081525090506060602a6040519080825280601f01601f191660200182016040528015613b6f5781602001600182028038833980820191505090505b5090507f300000000000000000000000000000000000000000000000000000000000000081600081518110613ba057fe5b60200101907effffffffffffffffffffffffffffffffffffffffffffffffffffffffffffff1916908160001a9053507f780000000000000000000000000000000000000000000000000000000000000081600181518110613bfd57fe5b60200101907effffffffffffffffffffffffffffffffffffffffffffffffffffffffffffff1916908160001a90535060008090505b6014811015613d545782600485600c840160208110613c4d57fe5b1a60f81b7effffffffffffffffffffffffffffffffffffffffffffffffffffffffffffff1916901c60f81c60ff1681518110613c8557fe5b602001015160f81c60f81b826002830260020181518110613ca257fe5b60200101907effffffffffffffffffffffffffffffffffffffffffffffffffffffffffffff1916908160001a90535082600f60f81b85600c840160208110613ce657fe5b1a60f81b1660f81c60ff1681518110613cfb57fe5b602001015160f81c60f81b826002830260030181518110613d1857fe5b60200101907effffffffffffffffffffffffffffffffffffffffffffffffffffffffffffff1916908160001a9053508080600101915050613c32565b50809350505050919050565b606080600160009054906101000a900473ffffffffffffffffffffffffffffffffffffffff1673ffffffffffffffffffffffffffffffffffffffff166312d05d3d6040518163ffffffff1660e01b815260040160006040518083038186803b158015613dcb57600080fd5b505afa158015613ddf573d6000803e3d6000fd5b505050506040513d6000823e3d601f19601f820116820180604052506020811015613e0957600080fd5b8101908080516040519392919084640100000000821115613e2957600080fd5b83820191506020820185811115613e3f57600080fd5b8251866001820283011164010000000082111715613e5c57600080fd5b8083526020830192505050908051906020019080838360005b83811015613e90578082015181840152602081019050613e75565b50505050905090810190601f168015613ebd5780820380516001836020036101000a031916815260200191505b50604052505050613ecd84613adf565b6040516020018083805190602001908083835b60208310613f035780518252602082019150602081019050602083039250613ee0565b6001836020036101000a03801982511681845116808217855250505050505090500182805190602001908083835b60208310613f545780518252602082019150602081019050602083039250613f31565b6001836020036101000a038019825116818451168082178552505050505050905001925050506040516020818303038152906040529050606081516040519080825280601f01601f191660200182016040528015613fc15781602001600182028038833980820191505090505b50905060008090505b82518110156140e2576041838281518110613fe157fe5b602001015160f81c60f81b60f81c60ff161015801561401d5750605a83828151811061400957fe5b602001015160f81c60f81b60f81c60ff1611155b1561408257602083828151811061403057fe5b602001015160f81c60f81b60f81c0160f81b82828151811061404e57fe5b60200101907effffffffffffffffffffffffffffffffffffffffffffffffffffffffffffff1916908160001a9053506140d5565b82818151811061408e57fe5b602001015160f81c60f81b8282815181106140a557fe5b60200101907effffffffffffffffffffffffffffffffffffffffffffffffffffffffffffff1916908160001a9053505b8080600101915050613fca565b508092505050919050565b600160009054906101000a900473ffffffffffffffffffffffffffffffffffffffff1673ffffffffffffffffffffffffffffffffffffffff1663430e0aee836040518263ffffffff1660e01b815260040180826bffffffffffffffffffffffff19166bffffffffffffffffffffffff1916815260200191505060206040518083038186803b15801561417e57600080fd5b505afa158015614192573d6000803e3d6000fd5b505050506040513d60208110156141a857600080fd5b810190808051906020019092919050505061422b576040517f08c379a00000000000000000000000000000000000000000000000000000000081526004018080602001828103825260128152602001807f44494420646f6573206e6f74206578697374000000000000000000000000000081525060200191505060405180910390fd5b6000806060600160009054906101000a900473ffffffffffffffffffffffffffffffffffffffff1673ffffffffffffffffffffffffffffffffffffffff16635acecc78866040518263ffffffff1660e01b815260040180826bffffffffffffffffffffffff19166bffffffffffffffffffffffff1916815260200191505060006040518083038186803b1580156142c157600080fd5b505afa1580156142d5573d6000803e3d6000fd5b505050506040513d6000823e3d601f19601f8201168201806040525060608110156142ff57600080fd5b8101908080519060200190929190805190602001909291908051604051939291908464010000000082111561433357600080fd5b8382019150602082018581111561434957600080fd5b825186600182028301116401000000008211171561436657600080fd5b8083526020830192505050908051906020019080838360005b8381101561439a57808201518184015260208101905061437f565b50505050905090810190601f1680156143c75780820380516001836020036101000a031916815260200191505b506040525050509250925092508373ffffffffffffffffffffffffffffffffffffffff168373ffffffffffffffffffffffffffffffffffffffff1614614475576040517f08c379a000000000000000000000000000000000000000000000000000000000815260040180806020018281038252600d8152602001807f6e6f207065726d697373696f6e0000000000000000000000000000000000000081525060200191505060405180910390fd5b600160009054906101000a900473ffffffffffffffffffffffffffffffffffffffff1673ffffffffffffffffffffffffffffffffffffffff166348cab05b8660008786866040518663ffffffff1660e01b815260040180866bffffffffffffffffffffffff19166bffffffffffffffffffffffff19168152602001851515151581526020018473ffffffffffffffffffffffffffffffffffffffff1673ffffffffffffffffffffffffffffffffffffffff16815260200183815260200180602001828103825283818151815260200191508051906020019080838360005b8381101561456e578082015181840152602081019050614553565b50505050905090810190601f16801561459b5780820380516001836020036101000a031916815260200191505b509650505050505050600060405180830381600087803b1580156145be57600080fd5b505af11580156145d2573d6000803e3d6000fd5b50505050856040518082805190602001908083835b6020831061460a57805182526020820191506020810190506020830392506145e7565b6001836020036101000a03801982511681845116808217855250505050505090500191505060405180910390203373ffffffffffffffffffffffffffffffffffffffff167f56c5173d83675a7f2b174113df9205152eb36c65ab39e41d5d1b8d9cb88eabd260405160405180910390a3505050505050565b600160009054906101000a900473ffffffffffffffffffffffffffffffffffffffff1673ffffffffffffffffffffffffffffffffffffffff1663430e0aee856040518263ffffffff1660e01b815260040180826bffffffffffffffffffffffff19166bffffffffffffffffffffffff1916815260200191505060206040518083038186803b15801561471357600080fd5b505afa158015614727573d6000803e3d6000fd5b505050506040513d602081101561473d57600080fd5b8101908080519060200190929190505050156147c1576040517f08c379a000000000000000000000000000000000000000000000000000000000815260040180806020018281038252600d8152602001807f6475706c6963617465204449440000000000000000000000000000000000000081525060200191505060405180910390fd5b600160009054906101000a900473ffffffffffffffffffffffffffffffffffffffff1673ffffffffffffffffffffffffffffffffffffffff166348cab05b8560018686866040518663ffffffff1660e01b815260040180866bffffffffffffffffffffffff19166bffffffffffffffffffffffff19168152602001851515151581526020018473ffffffffffffffffffffffffffffffffffffffff1673ffffffffffffffffffffffffffffffffffffffff16815260200183815260200180602001828103825283818151815260200191508051906020019080838360005b838110156148ba57808201518184015260208101905061489f565b50505050905090810190601f1680156148e75780820380516001836020036101000a031916815260200191505b509650505050505050600060405180830381600087803b15801561490a57600080fd5b505af115801561491e573d6000803e3d6000fd5b505050508273ffffffffffffffffffffffffffffffffffffffff167f0a36151ef7283a91a6a8d052cd44a0c20f8c7207decf22d985eba8eb0a5a268b868484604051808060200184815260200180602001838103835286818151815260200191508051906020019080838360005b838110156149a757808201518184015260208101905061498c565b50505050905090810190601f1680156149d45780820380516001836020036101000a031916815260200191505b50838103825284818151815260200191508051906020019080838360005b83811015614a0d5780820151818401526020810190506149f2565b50505050905090810190601f168015614a3a5780820380516001836020036101000a031916815260200191505b509550505050505060405180910390a25050505050565b600160009054906101000a900473ffffffffffffffffffffffffffffffffffffffff1673ffffffffffffffffffffffffffffffffffffffff1663430e0aee856040518263ffffffff1660e01b815260040180826bffffffffffffffffffffffff19166bffffffffffffffffffffffff1916815260200191505060206040518083038186803b158015614ae257600080fd5b505afa158015614af6573d6000803e3d6000fd5b505050506040513d6020811015614b0c57600080fd5b8101908080519060200190929190505050614b8f576040517f08c379a00000000000000000000000000000000000000000000000000000000081526004018080602001828103825260128152602001807f44494420646f6573206e6f74206578697374000000000000000000000000000081525060200191505060405180910390fd5b6000600160009054906101000a900473ffffffffffffffffffffffffffffffffffffffff1673ffffffffffffffffffffffffffffffffffffffff16635acecc78866040518263ffffffff1660e01b815260040180826bffffffffffffffffffffffff19166bffffffffffffffffffffffff1916815260200191505060006040518083038186803b158015614c2257600080fd5b505afa158015614c36573d6000803e3d6000fd5b505050506040513d6000823e3d601f19601f820116820180604052506060811015614c6057600080fd5b81019080805190602001909291908051906020019092919080516040519392919084640100000000821115614c9457600080fd5b83820191506020820185811115614caa57600080fd5b8251866001820283011164010000000082111715614cc757600080fd5b8083526020830192505050908051906020019080838360005b83811015614cfb578082015181840152602081019050614ce0565b50505050905090810190601f168015614d285780820380516001836020036101000a031916815260200191505b50604052505050505090508373ffffffffffffffffffffffffffffffffffffffff168173ffffffffffffffffffffffffffffffffffffffff1614614dd4576040517f08c379a000000000000000000000000000000000000000000000000000000000815260040180806020018281038252600d8152602001807f6e6f207065726d697373696f6e0000000000000000000000000000000000000081525060200191505060405180910390fd5b600160009054906101000a900473ffffffffffffffffffffffffffffffffffffffff1673ffffffffffffffffffffffffffffffffffffffff166348cab05b8660018787876040518663ffffffff1660e01b815260040180866bffffffffffffffffffffffff19166bffffffffffffffffffffffff19168152602001851515151581526020018473ffffffffffffffffffffffffffffffffffffffff1673ffffffffffffffffffffffffffffffffffffffff16815260200183815260200180602001828103825283818151815260200191508051906020019080838360005b83811015614ecd578082015181840152602081019050614eb2565b50505050905090810190601f168015614efa5780820380516001836020036101000a031916815260200191505b509650505050505050600060405180830381600087803b158015614f1d57600080fd5b505af1158015614f31573d6000803e3d6000fd5b50505050856040518082805190602001908083835b60208310614f695780518252602082019150602081019050602083039250614f46565b6001836020036101000a03801982511681845116808217855250505050505090500191505060405180910390208473ffffffffffffffffffffffffffffffffffffffff167f30665598c4da8be2cccefb7fe32a379decd1eae407564569a8e95b51e3afccd785856040518083815260200180602001828103825283818151815260200191508051906020019080838360005b83811015615016578082015181840152602081019050614ffb565b50505050905090810190601f1680156150435780820380516001836020036101000a031916815260200191505b50935050505060405180910390a3505050505050565b600061515a6150688451615162565b8460405160200180807f19457468657265756d205369676e6564204d6573736167653a0a000000000000815250601a0183805190602001908083835b602083106150c757805182526020820191506020810190506020830392506150a4565b6001836020036101000a03801982511681845116808217855250505050505090500182805190602001908083835b6020831061511857805182526020820191506020810190506020830392506150f5565b6001836020036101000a038019825116818451168082178552505050505050905001925050506040516020818303038152906040528051906020012083615447565b905092915050565b606060008214156151aa576040518060400160405280600181526020017f3000000000000000000000000000000000000000000000000000000000000000815250905061528a565b600082905060005b600082146151d4578080600101915050600a82816151cc57fe5b0491506151b2565b6060816040519080825280601f01601f1916602001820160405280156152095781602001600182028038833980820191505090505b50905060006001830390505b6000861461528257600a868161522757fe5b0660300160f81b8282806001900393508151811061524157fe5b60200101907effffffffffffffffffffffffffffffffffffffffffffffffffffffffffffff1916908160001a905350600a868161527a57fe5b049550615215565b819450505050505b919050565b600081518351116152a35760009050615346565b60008090505b8251811015615340578381815181106152be57fe5b602001015160f81c60f81b7effffffffffffffffffffffffffffffffffffffffffffffffffffffffffffff19168382815181106152f757fe5b602001015160f81c60f81b7effffffffffffffffffffffffffffffffffffffffffffffffffffffffffffff191614615333576000915050615346565b80806001019150506152a9565b50600190505b92915050565b606081835110156153c5576040517f08c379a00000000000000000000000000000000000000000000000000000000081526004018080602001828103825260128152602001807f52656164206f7574206f6620626f756e6473000000000000000000000000000081525060200191505060405180910390fd5b600082845103905060608115600081146153ea5760405191506020820160405261543b565b6040519150601f8316801560200281840101848101878315602002848b0101015b81831015615428578051835260208301925060208101905061540b565b50858552601f19601f8301166040525050505b50809250505092915050565b60008060008060418551146154625760009350505050615523565b6020850151925060408501519150606085015160001a9050601b8160ff16101561548d57601b810190505b601b8160ff16141580156154a55750601c8160ff1614155b156154b65760009350505050615523565b60018682858560405160008152602001604052604051808581526020018460ff1660ff1681526020018381526020018281526020019450505050506020604051602081039080840390855afa158015615513573d6000803e3d6000fd5b5050506020604051035193505050505b9291505056fea265627a7a723158208284b6b1f6a6be92fa05b2554b039c6f3f6f72bb582bc5341a007792f2b2cfbf64736f6c6343000510003260806040523480156200001157600080fd5b5060405162000e9438038062000e94833981810160405260208110156200003757600080fd5b81019080805160405193929190846401000000008211156200005857600080fd5b838201915060208201858111156200006f57600080fd5b82518660018202830111640100000000821117156200008d57600080fd5b8083526020830192505050908051906020019080838360005b83811015620000c3578082015181840152602081019050620000a6565b50505050905090810190601f168015620000f15780820380516001836020036101000a031916815260200191505b50604052505050336000806101000a81548173ffffffffffffffffffffffffffffffffffffffff021916908373ffffffffffffffffffffffffffffffffffffffff16021790555062000149816200015060201b60201c565b5062000275565b6000809054906101000a900473ffffffffffffffffffffffffffffffffffffffff1673ffffffffffffffffffffffffffffffffffffffff163373ffffffffffffffffffffffffffffffffffffffff1614620001aa57600080fd5b8060019080519060200190620001c2929190620001c6565b5050565b828054600181600116156101000203166002900490600052602060002090601f016020900481019282601f106200020957805160ff19168380011785556200023a565b828001600101855582156200023a579182015b82811115620002395782518255916020019190600101906200021c565b5b5090506200024991906200024d565b5090565b6200027291905b808211156200026e57600081600090555060010162000254565b5090565b90565b610c0f80620002856000396000f3fe608060405234801561001057600080fd5b506004361061007d5760003560e01c80634f1531451161005b5780634f153145146102645780635acecc781461031f5780638da5cb5b1461040f578063f2fde38b146104595761007d565b806312d05d3d14610082578063430e0aee1461010557806348cab05b1461015a575b600080fd5b61008a61049d565b6040518080602001828103825283818151815260200191508051906020019080838360005b838110156100ca5780820151818401526020810190506100af565b50505050905090810190601f1680156100f75780820380516001836020036101000a031916815260200191505b509250505060405180910390f35b6101406004803603602081101561011b57600080fd5b8101908080356bffffffffffffffffffffffff1916906020019092919050505061053f565b604051808215151515815260200191505060405180910390f35b610262600480360360a081101561017057600080fd5b8101908080356bffffffffffffffffffffffff19169060200190929190803515159060200190929190803573ffffffffffffffffffffffffffffffffffffffff16906020019092919080359060200190929190803590602001906401000000008111156101dc57600080fd5b8201836020820111156101ee57600080fd5b8035906020019184600183028401116401000000008311171561021057600080fd5b91908080601f016020809104026020016040519081016040528093929190818152602001838380828437600081840152601f19601f82011690508083019250505050505050919291929050505061058a565b005b61031d6004803603602081101561027a57600080fd5b810190808035906020019064010000000081111561029757600080fd5b8201836020820111156102a957600080fd5b803590602001918460018302840111640100000000831117156102cb57600080fd5b91908080601f016020809104026020016040519081016040528093929190818152602001838380828437600081840152601f19601f8201169050808301925050505050505091929192905050506106e5565b005b61035a6004803603602081101561033557600080fd5b8101908080356bffffffffffffffffffffffff19169060200190929190505050610758565b604051808473ffffffffffffffffffffffffffffffffffffffff1673ffffffffffffffffffffffffffffffffffffffff16815260200183815260200180602001828103825283818151815260200191508051906020019080838360005b838110156103d25780820151818401526020810190506103b7565b50505050905090810190601f1680156103ff5780820380516001836020036101000a031916815260200191505b5094505050505060405180910390f35b61041761093f565b604051808273ffffffffffffffffffffffffffffffffffffffff1673ffffffffffffffffffffffffffffffffffffffff16815260200191505060405180910390f35b61049b6004803603602081101561046f57600080fd5b81019080803573ffffffffffffffffffffffffffffffffffffffff169060200190929190505050610964565b005b606060018054600181600116156101000203166002900480601f0160208091040260200160405190810160405280929190818152602001828054600181600116156101000203166002900480156105355780601f1061050a57610100808354040283529160200191610535565b820191906000526020600020905b81548152906001019060200180831161051857829003601f168201915b5050505050905090565b600060026000836bffffffffffffffffffffffff19166bffffffffffffffffffffffff1916815260200190815260200160002060000160009054906101000a900460ff169050919050565b6000809054906101000a900473ffffffffffffffffffffffffffffffffffffffff1673ffffffffffffffffffffffffffffffffffffffff163373ffffffffffffffffffffffffffffffffffffffff16146105e357600080fd5b604051806080016040528085151581526020018473ffffffffffffffffffffffffffffffffffffffff1681526020018381526020018281525060026000876bffffffffffffffffffffffff19166bffffffffffffffffffffffff1916815260200190815260200160002060008201518160000160006101000a81548160ff02191690831515021790555060208201518160000160016101000a81548173ffffffffffffffffffffffffffffffffffffffff021916908373ffffffffffffffffffffffffffffffffffffffff1602179055506040820151816001015560608201518160020190805190602001906106da929190610ab5565b509050505050505050565b6000809054906101000a900473ffffffffffffffffffffffffffffffffffffffff1673ffffffffffffffffffffffffffffffffffffffff163373ffffffffffffffffffffffffffffffffffffffff161461073e57600080fd5b8060019080519060200190610754929190610b35565b5050565b60008060606107668461053f565b6107d8576040517f08c379a00000000000000000000000000000000000000000000000000000000081526004018080602001828103825260128152602001807f44494420646f6573206e6f74206578697374000000000000000000000000000081525060200191505060405180910390fd5b60026000856bffffffffffffffffffffffff19166bffffffffffffffffffffffff1916815260200190815260200160002060000160019054906101000a900473ffffffffffffffffffffffffffffffffffffffff1660026000866bffffffffffffffffffffffff19166bffffffffffffffffffffffff191681526020019081526020016000206001015460026000876bffffffffffffffffffffffff19166bffffffffffffffffffffffff19168152602001908152602001600020600201808054600181600116156101000203166002900480601f01602080910402602001604051908101604052809291908181526020018280546001816001161561010002031660029004801561092b5780601f106109005761010080835404028352916020019161092b565b820191906000526020600020905b81548152906001019060200180831161090e57829003601f168201915b505050505090509250925092509193909250565b6000809054906101000a900473ffffffffffffffffffffffffffffffffffffffff1681565b6000809054906101000a900473ffffffffffffffffffffffffffffffffffffffff1673ffffffffffffffffffffffffffffffffffffffff163373ffffffffffffffffffffffffffffffffffffffff16146109bd57600080fd5b600073ffffffffffffffffffffffffffffffffffffffff168173ffffffffffffffffffffffffffffffffffffffff1614156109f757600080fd5b8073ffffffffffffffffffffffffffffffffffffffff166000809054906101000a900473ffffffffffffffffffffffffffffffffffffffff1673ffffffffffffffffffffffffffffffffffffffff167f8be0079c531659141344cd1fd0a4f28419497f9722a3daafe3b4186f6b6457e060405160405180910390a3806000806101000a81548173ffffffffffffffffffffffffffffffffffffffff021916908373ffffffffffffffffffffffffffffffffffffffff16021790555050565b828054600181600116156101000203166002900490600052602060002090601f016020900481019282601f10610af657805160ff1916838001178555610b24565b82800160010185558215610b24579182015b82811115610b23578251825591602001919060010190610b08565b5b509050610b319190610bb5565b5090565b828054600181600116156101000203166002900490600052602060002090601f016020900481019282601f10610b7657805160ff1916838001178555610ba4565b82800160010185558215610ba4579182015b82811115610ba3578251825591602001919060010190610b88565b5b509050610bb19190610bb5565b5090565b610bd791905b80821115610bd3576000816000905550600101610bbb565b5090565b9056fea265627a7a723158209adf7819135c6338a733b6d8957c05d9f30f68401ef63d97667b66deae230c5f64736f6c63430005100032",
  "source": "pragma solidity >=0.4.22 <0.6.0;\n\nimport './AddressBasedDIDManager.sol';\nimport './Agentable.sol';\n\ncontract AddressBasedDIDManagerWithAgentEnabled is AddressBasedDIDManager, Agentable {\n\n    constructor(bytes memory _prefix, address _dbAddr) AddressBasedDIDManager(_prefix, _dbAddr) public {}\n    event authMsg(bytes msg);\n    event register(address authorizer);\n    event hash(bytes32 msg);\n    function registerByAgent(bytes32 h, bytes memory uri, address authorizer, bytes memory auth) public {\n        bytes memory did = getDID(authorizer);\n        bytes20 internalKey = bytes20(authorizer);\n        require(!db.exist(internalKey), \"duplicate DID\");\n        bytes memory message=getCreateAuthMessage(did, h, uri, msg.sender);\n        bytes memory packed=abi.encodePacked(\"\\x19Ethereum Signed Message:\\n\", uint2str(message.length), message);\n        emit authMsg(message);\n        emit authMsg(packed);\n        emit hash(keccak256(packed));\n        emit register(getSigner(getCreateAuthMessage(did, h, uri, msg.sender), auth));\n        require(authorizer == getSigner(getCreateAuthMessage(did, h, uri, msg.sender), auth), \"invalid signature\");\n        internalCreateDID(did, internalKey, authorizer, h, uri);\n    }\n\n    function updateByAgent(bytes memory did, bytes32 h, bytes memory uri, bytes memory auth) public {\n        bytes20 internalKey = decodeInternalKey(did);\n        require(db.exist(internalKey), \"DID does not exist\");\n        (address authorizer, ,) = db.get(internalKey);\n        bytes memory message=getUpdateAuthMessage(did, h, uri, msg.sender);\n        bytes memory packed=abi.encodePacked(\"\\x19Ethereum Signed Message:\\n\", uint2str(message.length), message);\n        emit authMsg(message);\n        emit authMsg(packed);\n        emit hash(keccak256(packed));\n        emit register(getSigner(getUpdateAuthMessage(did, h, uri, msg.sender), auth));\n        emit register(authorizer);\n        require(authorizer == getSigner(getUpdateAuthMessage(did, h, uri, msg.sender), auth), \"invalid signature\");\n        internalUpdateDID(did, internalKey, authorizer, h, uri);\n    }\n\n    function deregisterByAgent(bytes memory did, bytes memory auth) public {\n        bytes20 internalKey = decodeInternalKey(did);\n        require(db.exist(internalKey), \"DID does not exist\");\n        (address authorizer, ,) = db.get(internalKey);\n        require(authorizer == getSigner(getDeleteAuthMessage(did, msg.sender), auth), \"invalid signature\");\n        internalDeleteDID(did, internalKey, authorizer);\n    }\n}\n",
  "sourcePath": "/root/iotex-did/smartcontracts/contracts/AddressBasedDIDManagerWithAgentEnabled.sol",
  "compiler": {
    "name": "solc",
    "version": "0.5.16+commit.9c3226ce.Emscripten.clang"
  },
  "schemaVersion": "3.2.0",
  "updatedAt": "2020-06-30T09:09:01.104Z",
  "devdoc": {
    "methods": {
      "transferOwnership(address)": {
        "details": "Allows the current owner to transfer control of the contract to a newOwner.",
        "params": {
          "newOwner": "The address to transfer ownership to."
        }
      }
    }
  },
  "userdoc": {
    "methods": {}
  }
}