{
  "contractName": "Agentable",
  "abi": [
    {
      "constant": true,
      "inputs": [
        {
          "internalType": "bytes",
          "name": "did",
          "type": "bytes"
        },
        {
          "internalType": "address",
          "name": "agent",
          "type": "address"
        }
      ],
      "name": "getDeleteAuthMessage",
      "outputs": [
        {
          "internalType": "bytes",
          "name": "",
          "type": "bytes"
        }
      ],
      "payable": false,
      "stateMutability": "view",
      "type": "function"
    },
    {
      "constant": true,
      "inputs": [
        {
          "internalType": "bytes",
          "name": "did",
          "type": "bytes"
        },
        {
          "internalType": "bytes32",
          "name": "h",
          "type": "bytes32"
        },
        {
          "internalType": "bytes",
          "name": "uri",
          "type": "bytes"
        },
        {
          "internalType": "address",
          "name": "agent",
          "type": "address"
        }
      ],
      "name": "getCreateAuthMessage",
      "outputs": [
        {
          "internalType": "bytes",
          "name": "",
          "type": "bytes"
        }
      ],
      "payable": false,
      "stateMutability": "view",
      "type": "function"
    },
    {
      "constant": true,
      "inputs": [
        {
          "internalType": "bytes",
          "name": "did",
          "type": "bytes"
        },
        {
          "internalType": "bytes32",
          "name": "h",
          "type": "bytes32"
        },
        {
          "internalType": "bytes",
          "name": "uri",
          "type": "bytes"
        },
        {
          "internalType": "address",
          "name": "agent",
          "type": "address"
        }
      ],
      "name": "getUpdateAuthMessage",
      "outputs": [
        {
          "internalType": "bytes",
          "name": "",
          "type": "bytes"
        }
      ],
      "payable": false,
      "stateMutability": "view",
      "type": "function"
    }
  ],
  "bytecode": "0x608060405234801561001057600080fd5b50610ecd806100206000396000f3fe608060405234801561001057600080fd5b50600436106100415760003560e01c80633bdcb26c14610046578063cc3b41dc1461019a578063dd1201531461038f575b600080fd5b61011f6004803603604081101561005c57600080fd5b810190808035906020019064010000000081111561007957600080fd5b82018360208201111561008b57600080fd5b803590602001918460018302840111640100000000831117156100ad57600080fd5b91908080601f016020809104026020016040519081016040528093929190818152602001838380828437600081840152601f19601f820116905080830192505050505050509192919290803573ffffffffffffffffffffffffffffffffffffffff169060200190929190505050610584565b6040518080602001828103825283818151815260200191508051906020019080838360005b8381101561015f578082015181840152602081019050610144565b50505050905090810190601f16801561018c5780820380516001836020036101000a031916815260200191505b509250505060405180910390f35b610314600480360360808110156101b057600080fd5b81019080803590602001906401000000008111156101cd57600080fd5b8201836020820111156101df57600080fd5b8035906020019184600183028401116401000000008311171561020157600080fd5b91908080601f016020809104026020016040519081016040528093929190818152602001838380828437600081840152601f19601f820116905080830192505050505050509192919290803590602001909291908035906020019064010000000081111561026e57600080fd5b82018360208201111561028057600080fd5b803590602001918460018302840111640100000000831117156102a257600080fd5b91908080601f016020809104026020016040519081016040528093929190818152602001838380828437600081840152601f19601f820116905080830192505050505050509192919290803573ffffffffffffffffffffffffffffffffffffffff169060200190929190505050610727565b6040518080602001828103825283818151815260200191508051906020019080838360005b83811015610354578082015181840152602081019050610339565b50505050905090810190601f1680156103815780820380516001836020036101000a031916815260200191505b509250505060405180910390f35b610509600480360360808110156103a557600080fd5b81019080803590602001906401000000008111156103c257600080fd5b8201836020820111156103d457600080fd5b803590602001918460018302840111640100000000831117156103f657600080fd5b91908080601f016020809104026020016040519081016040528093929190818152602001838380828437600081840152601f19601f820116905080830192505050505050509192919290803590602001909291908035906020019064010000000081111561046357600080fd5b82018360208201111561047557600080fd5b8035906020019184600183028401116401000000008311171561049757600080fd5b91908080601f016020809104026020016040519081016040528093929190818152602001838380828437600081840152601f19601f820116905080830192505050505050509192919290803573ffffffffffffffffffffffffffffffffffffffff16906020019092919050505061099f565b6040518080602001828103825283818151815260200191508051906020019080838360005b8381101561054957808201518184015260208101905061052e565b50505050905090810190601f1680156105765780820380516001836020036101000a031916815260200191505b509250505060405180910390f35b606061058f82610c17565b8361059930610c17565b60405160200180807f4920617574686f72697a65200000000000000000000000000000000000000000815250600c0184805190602001908083835b602083106105f757805182526020820191506020810190506020830392506105d4565b6001836020036101000a038019825116818451168082178552505050505050905001807f20746f2064656c65746520444944200000000000000000000000000000000000815250600f0183805190602001908083835b60208310610670578051825260208201915060208101905060208303925061064d565b6001836020036101000a038019825116818451168082178552505050505050905001807f20696e20636f6e74726163742000000000000000000000000000000000000000815250600d0182805190602001908083835b602083106106e957805182526020820191506020810190506020830392506106c6565b6001836020036101000a0380198251168184511680821785525050505050509050019350505050604051602081830303815290604052905092915050565b606061073282610c17565b8561073c30610c17565b868660405160200180807f4920617574686f72697a65200000000000000000000000000000000000000000815250600c0186805190602001908083835b6020831061079c5780518252602082019150602081019050602083039250610779565b6001836020036101000a038019825116818451168082178552505050505050905001807f20746f2063726561746520444944200000000000000000000000000000000000815250600f0185805190602001908083835b6020831061081557805182526020820191506020810190506020830392506107f2565b6001836020036101000a038019825116818451168082178552505050505050905001807f20696e20636f6e7472616374207769746820000000000000000000000000000081525060120184805190602001908083835b6020831061088e578051825260208201915060208101905060208303925061086b565b6001836020036101000a038019825116818451168082178552505050505050905001807f2028000000000000000000000000000000000000000000000000000000000000815250600201838152602001807f2c2000000000000000000000000000000000000000000000000000000000000081525060020182805190602001908083835b602083106109355780518252602082019150602081019050602083039250610912565b6001836020036101000a038019825116818451168082178552505050505050905001807f2900000000000000000000000000000000000000000000000000000000000000815250600101955050505050506040516020818303038152906040529050949350505050565b60606109aa82610c17565b856109b430610c17565b868660405160200180807f4920617574686f72697a65200000000000000000000000000000000000000000815250600c0186805190602001908083835b60208310610a1457805182526020820191506020810190506020830392506109f1565b6001836020036101000a038019825116818451168082178552505050505050905001807f20746f2075706461746520444944200000000000000000000000000000000000815250600f0185805190602001908083835b60208310610a8d5780518252602082019150602081019050602083039250610a6a565b6001836020036101000a038019825116818451168082178552505050505050905001807f20696e20636f6e747261637420746f200000000000000000000000000000000081525060100184805190602001908083835b60208310610b065780518252602082019150602081019050602083039250610ae3565b6001836020036101000a038019825116818451168082178552505050505050905001807f2028000000000000000000000000000000000000000000000000000000000000815250600201838152602001807f2c2000000000000000000000000000000000000000000000000000000000000081525060020182805190602001908083835b60208310610bad5780518252602082019150602081019050602083039250610b8a565b6001836020036101000a038019825116818451168082178552505050505050905001807f2900000000000000000000000000000000000000000000000000000000000000815250600101955050505050506040516020818303038152906040529050949350505050565b606060008273ffffffffffffffffffffffffffffffffffffffff1660001b905060606040518060400160405280601081526020017f303132333435363738396162636465660000000000000000000000000000000081525090506060602a6040519080825280601f01601f191660200182016040528015610ca75781602001600182028038833980820191505090505b5090507f300000000000000000000000000000000000000000000000000000000000000081600081518110610cd857fe5b60200101907effffffffffffffffffffffffffffffffffffffffffffffffffffffffffffff1916908160001a9053507f780000000000000000000000000000000000000000000000000000000000000081600181518110610d3557fe5b60200101907effffffffffffffffffffffffffffffffffffffffffffffffffffffffffffff1916908160001a90535060008090505b6014811015610e8c5782600485600c840160208110610d8557fe5b1a60f81b7effffffffffffffffffffffffffffffffffffffffffffffffffffffffffffff1916901c60f81c60ff1681518110610dbd57fe5b602001015160f81c60f81b826002830260020181518110610dda57fe5b60200101907effffffffffffffffffffffffffffffffffffffffffffffffffffffffffffff1916908160001a90535082600f60f81b85600c840160208110610e1e57fe5b1a60f81b1660f81c60ff1681518110610e3357fe5b602001015160f81c60f81b826002830260030181518110610e5057fe5b60200101907effffffffffffffffffffffffffffffffffffffffffffffffffffffffffffff1916908160001a9053508080600101915050610d6a565b5080935050505091905056fea265627a7a723158209766d36ac381f164cca4fb3f3b6d3bdcd50a78010fdd84445e738f6daaa576a764736f6c63430005100032",
  "source": "pragma solidity >=0.4.22 <0.6.0;\n\ncontract Agentable {\n\n    function getDeleteAuthMessage(bytes memory did, address agent) public view returns (bytes memory) {\n        return abi.encodePacked(\n            \"I authorize \", addrToString(agent), \" to delete DID \", did, \" in contract \", addrToString(address(this)));\n    }\n\n    function getCreateAuthMessage(bytes memory did, bytes32 h, bytes memory uri, address agent) public view returns (bytes memory) {\n        return abi.encodePacked(\n            \"I authorize \", addrToString(agent), \" to create DID \", did, \" in contract with \", addrToString(address(this)), \" (\", h, \", \", uri, \")\");\n    }\n\n    function getUpdateAuthMessage(bytes memory did, bytes32 h, bytes memory uri, address agent) public view returns (bytes memory) {\n        return abi.encodePacked(\n            \"I authorize \", addrToString(agent), \" to update DID \", did, \" in contract to \", addrToString(address(this)), \" (\", h, \", \", uri, \")\");\n    }\n\n    function addrToString(address _addr) internal pure returns(string memory) {\n        bytes32 value = bytes32(uint256(_addr));\n        bytes memory alphabet = \"0123456789abcdef\";\n\n        bytes memory str = new bytes(42);\n        str[0] = '0';\n        str[1] = 'x';\n        for (uint i = 0; i < 20; i++) {\n            str[2+i*2] = alphabet[uint8(value[i + 12] >> 4)];\n            str[3+i*2] = alphabet[uint8(value[i + 12] & 0x0f)];\n        }\n        return string(str);\n    }\n\n    function uint2str(uint i) internal pure returns (string memory) {\n        if (i == 0) {\n            return \"0\";\n        }\n        uint j = i;\n        uint length;\n        while (j != 0){\n            length++;\n            j /= 10;\n        }\n        bytes memory b = new bytes(length);\n        uint k = length - 1;\n        while (i != 0){\n            b[k--] = byte(uint8(48 + i % 10));\n            i /= 10;\n        }\n        return string(b);\n    }\n\n\n    function getSigner(bytes memory message, bytes memory signature) internal pure returns (address) {\n        return recover(keccak256(abi.encodePacked(\"\\x19Ethereum Signed Message:\\n\", uint2str(message.length), message)), signature);\n    }\n\n    function recover(bytes32 hash, bytes memory signature)\n        internal\n        pure\n        returns (address)\n    {\n        bytes32 r;\n        bytes32 s;\n        uint8 v;\n        // Check the signature length\n        if (signature.length != 65) {\n            return (address(0));\n        }\n        // Divide the signature in r, s and v variables with inline assembly.\n        assembly {\n            r := mload(add(signature, 0x20))\n            s := mload(add(signature, 0x40))\n            v := byte(0, mload(add(signature, 0x60)))\n        }\n        // Version of signature should be 27 or 28, but 0 and 1 are also possible versions\n        if (v < 27) {\n            v += 27;\n        }\n        // If the version is correct return the signer address\n        if (v != 27 && v != 28) {\n            return (address(0));\n        }\n        return ecrecover(hash, v, r, s);\n    }\n}\n",
  "sourcePath": "/root/iotex-did/smartcontracts/contracts/Agentable.sol",
  "compiler": {
    "name": "solc",
    "version": "0.5.16+commit.9c3226ce.Emscripten.clang"
  },
  "schemaVersion": "3.2.0",
  "updatedAt": "2020-07-15T03:29:24.489Z",
  "devdoc": {
    "methods": {}
  },
  "userdoc": {
    "methods": {}
  }
}