{
  "contractName": "PebbleDIDManager",
  "abi": [
    {
      "inputs": [
        {
          "internalType": "address",
          "name": "_dbAddr",
          "type": "address"
        }
      ],
      "payable": false,
      "stateMutability": "nonpayable",
      "type": "constructor"
    },
    {
      "anonymous": false,
      "inputs": [
        {
          "indexed": true,
          "internalType": "address",
          "name": "operator",
          "type": "address"
        },
        {
          "indexed": false,
          "internalType": "string",
          "name": "did",
          "type": "string"
        },
        {
          "indexed": false,
          "internalType": "bytes32",
          "name": "hash",
          "type": "bytes32"
        },
        {
          "indexed": false,
          "internalType": "string",
          "name": "uri",
          "type": "string"
        }
      ],
      "name": "DIDCreated",
      "type": "event"
    },
    {
      "anonymous": false,
      "inputs": [
        {
          "indexed": true,
          "internalType": "address",
          "name": "operator",
          "type": "address"
        },
        {
          "indexed": true,
          "internalType": "string",
          "name": "did",
          "type": "string"
        }
      ],
      "name": "DIDDeleted",
      "type": "event"
    },
    {
      "anonymous": false,
      "inputs": [
        {
          "indexed": true,
          "internalType": "address",
          "name": "operator",
          "type": "address"
        },
        {
          "indexed": true,
          "internalType": "string",
          "name": "did",
          "type": "string"
        },
        {
          "indexed": false,
          "internalType": "bytes32",
          "name": "hash",
          "type": "bytes32"
        },
        {
          "indexed": false,
          "internalType": "string",
          "name": "uri",
          "type": "string"
        }
      ],
      "name": "DIDUpdated",
      "type": "event"
    },
    {
      "anonymous": false,
      "inputs": [
        {
          "indexed": true,
          "internalType": "address",
          "name": "previousOwner",
          "type": "address"
        },
        {
          "indexed": true,
          "internalType": "address",
          "name": "newOwner",
          "type": "address"
        }
      ],
      "name": "OwnershipTransferred",
      "type": "event"
    },
    {
      "anonymous": false,
      "inputs": [
        {
          "indexed": false,
          "internalType": "address",
          "name": "addr",
          "type": "address"
        }
      ],
      "name": "WhitelistedAddressAdded",
      "type": "event"
    },
    {
      "anonymous": false,
      "inputs": [
        {
          "indexed": false,
          "internalType": "address",
          "name": "addr",
          "type": "address"
        }
      ],
      "name": "WhitelistedAddressRemoved",
      "type": "event"
    },
    {
      "constant": false,
      "inputs": [
        {
          "internalType": "address",
          "name": "addr",
          "type": "address"
        }
      ],
      "name": "addAddressToWhitelist",
      "outputs": [
        {
          "internalType": "bool",
          "name": "success",
          "type": "bool"
        }
      ],
      "payable": false,
      "stateMutability": "nonpayable",
      "type": "function"
    },
    {
      "constant": false,
      "inputs": [
        {
          "internalType": "address[]",
          "name": "addrs",
          "type": "address[]"
        }
      ],
      "name": "addAddressesToWhitelist",
      "outputs": [
        {
          "internalType": "bool",
          "name": "success",
          "type": "bool"
        }
      ],
      "payable": false,
      "stateMutability": "nonpayable",
      "type": "function"
    },
    {
      "constant": false,
      "inputs": [
        {
          "internalType": "bytes",
          "name": "id",
          "type": "bytes"
        },
        {
          "internalType": "bytes32",
          "name": "h",
          "type": "bytes32"
        },
        {
          "internalType": "bytes",
          "name": "uri",
          "type": "bytes"
        }
      ],
      "name": "createDID",
      "outputs": [],
      "payable": false,
      "stateMutability": "nonpayable",
      "type": "function"
    },
    {
      "constant": true,
      "inputs": [],
      "name": "db",
      "outputs": [
        {
          "internalType": "contract DIDStorage",
          "name": "",
          "type": "address"
        }
      ],
      "payable": false,
      "stateMutability": "view",
      "type": "function"
    },
    {
      "constant": false,
      "inputs": [
        {
          "internalType": "bytes",
          "name": "id",
          "type": "bytes"
        }
      ],
      "name": "deleteDID",
      "outputs": [],
      "payable": false,
      "stateMutability": "nonpayable",
      "type": "function"
    },
    {
      "constant": true,
      "inputs": [
        {
          "internalType": "bytes",
          "name": "did",
          "type": "bytes"
        }
      ],
      "name": "getHash",
      "outputs": [
        {
          "internalType": "bytes32",
          "name": "",
          "type": "bytes32"
        }
      ],
      "payable": false,
      "stateMutability": "view",
      "type": "function"
    },
    {
      "constant": true,
      "inputs": [
        {
          "internalType": "bytes",
          "name": "did",
          "type": "bytes"
        }
      ],
      "name": "getOwner",
      "outputs": [
        {
          "internalType": "address",
          "name": "",
          "type": "address"
        }
      ],
      "payable": false,
      "stateMutability": "view",
      "type": "function"
    },
    {
      "constant": true,
      "inputs": [
        {
          "internalType": "bytes",
          "name": "did",
          "type": "bytes"
        }
      ],
      "name": "getURI",
      "outputs": [
        {
          "internalType": "bytes",
          "name": "",
          "type": "bytes"
        }
      ],
      "payable": false,
      "stateMutability": "view",
      "type": "function"
    },
    {
      "constant": true,
      "inputs": [],
      "name": "owner",
      "outputs": [
        {
          "internalType": "address",
          "name": "",
          "type": "address"
        }
      ],
      "payable": false,
      "stateMutability": "view",
      "type": "function"
    },
    {
      "constant": false,
      "inputs": [
        {
          "internalType": "address",
          "name": "addr",
          "type": "address"
        }
      ],
      "name": "removeAddressFromWhitelist",
      "outputs": [
        {
          "internalType": "bool",
          "name": "success",
          "type": "bool"
        }
      ],
      "payable": false,
      "stateMutability": "nonpayable",
      "type": "function"
    },
    {
      "constant": false,
      "inputs": [
        {
          "internalType": "address[]",
          "name": "addrs",
          "type": "address[]"
        }
      ],
      "name": "removeAddressesFromWhitelist",
      "outputs": [
        {
          "internalType": "bool",
          "name": "success",
          "type": "bool"
        }
      ],
      "payable": false,
      "stateMutability": "nonpayable",
      "type": "function"
    },
    {
      "constant": false,
      "inputs": [
        {
          "internalType": "address",
          "name": "newOwner",
          "type": "address"
        }
      ],
      "name": "transferDBOwnership",
      "outputs": [],
      "payable": false,
      "stateMutability": "nonpayable",
      "type": "function"
    },
    {
      "constant": false,
      "inputs": [
        {
          "internalType": "address",
          "name": "newOwner",
          "type": "address"
        }
      ],
      "name": "transferOwnership",
      "outputs": [],
      "payable": false,
      "stateMutability": "nonpayable",
      "type": "function"
    },
    {
      "constant": false,
      "inputs": [
        {
          "internalType": "bytes",
          "name": "id",
          "type": "bytes"
        },
        {
          "internalType": "bytes32",
          "name": "h",
          "type": "bytes32"
        },
        {
          "internalType": "bytes",
          "name": "uri",
          "type": "bytes"
        }
      ],
      "name": "updateDID",
      "outputs": [],
      "payable": false,
      "stateMutability": "nonpayable",
      "type": "function"
    },
    {
      "constant": true,
      "inputs": [
        {
          "internalType": "address",
          "name": "",
          "type": "address"
        }
      ],
      "name": "whitelist",
      "outputs": [
        {
          "internalType": "bool",
          "name": "",
          "type": "bool"
        }
      ],
      "payable": false,
      "stateMutability": "view",
      "type": "function"
    },
    {
      "constant": true,
      "inputs": [
        {
          "internalType": "bytes",
          "name": "id",
          "type": "bytes"
        }
      ],
      "name": "formDID",
      "outputs": [
        {
          "internalType": "bytes",
          "name": "",
          "type": "bytes"
        }
      ],
      "payable": false,
      "stateMutability": "view",
      "type": "function"
    },
    {
      "constant": true,
      "inputs": [
        {
          "internalType": "bytes",
          "name": "did",
          "type": "bytes"
        }
      ],
      "name": "decodeInternalKey",
      "outputs": [
        {
          "internalType": "bytes20",
          "name": "",
          "type": "bytes20"
        }
      ],
      "payable": false,
      "stateMutability": "view",
      "type": "function"
    }
  ],
  "bytecode": "0x60806040523480156200001157600080fd5b506040516200488138038062004881833981810160405260208110156200003757600080fd5b81019080805190602001909291905050506040518060400160405280600e81526020017f6469643a696f3a706562626c653a000000000000000000000000000000000000815250818082336000806101000a81548173ffffffffffffffffffffffffffffffffffffffff021916908373ffffffffffffffffffffffffffffffffffffffff160217905550600073ffffffffffffffffffffffffffffffffffffffff168273ffffffffffffffffffffffffffffffffffffffff161415620001dc57806040516200010690620003ae565b8080602001828103825283818151815260200191508051906020019080838360005b838110156200014557808201518184015260208101905062000128565b50505050905090810190601f168015620001735780820380516001836020036101000a031916815260200191505b5092505050604051809103906000f08015801562000195573d6000803e3d6000fd5b50600160006101000a81548173ffffffffffffffffffffffffffffffffffffffff021916908373ffffffffffffffffffffffffffffffffffffffff1602179055506200021e565b81600160006101000a81548173ffffffffffffffffffffffffffffffffffffffff021916908373ffffffffffffffffffffffffffffffffffffffff1602179055505b505062000231336200023b60201b60201c565b50505050620003bc565b60008060009054906101000a900473ffffffffffffffffffffffffffffffffffffffff1673ffffffffffffffffffffffffffffffffffffffff163373ffffffffffffffffffffffffffffffffffffffff16146200029757600080fd5b600260008373ffffffffffffffffffffffffffffffffffffffff1673ffffffffffffffffffffffffffffffffffffffff16815260200190815260200160002060009054906101000a900460ff16620003a9576001600260008473ffffffffffffffffffffffffffffffffffffffff1673ffffffffffffffffffffffffffffffffffffffff16815260200190815260200160002060006101000a81548160ff0219169083151502179055507fd1bba68c128cc3f427e5831b3c6f99f480b6efa6b9e80c757768f6124158cc3f82604051808273ffffffffffffffffffffffffffffffffffffffff1673ffffffffffffffffffffffffffffffffffffffff16815260200191505060405180910390a1600190505b919050565b610e9480620039ed83390190565b61362180620003cc6000396000f3fe608060405234801561001057600080fd5b506004361061010a5760003560e01c80638da5cb5b116100a2578063bf6d313911610071578063bf6d3139146108e0578063c7ae8c25146109cd578063e2acd5c414610b01578063e2ec6ec314610c5d578063f2fde38b14610d2d5761010a565b80638da5cb5b146106705780639b19251a146106ba578063b00140aa14610716578063b102bfbe146107e55761010a565b80634d655aff116100de5780634d655aff146103db5780637b9417c814610425578063826f0c7e146104815780638626dea91461053c5761010a565b80627133751461010f57806324953eaa1461026b578063286dd3f51461033b57806332aad01714610397575b600080fd5b6102696004803603606081101561012557600080fd5b810190808035906020019064010000000081111561014257600080fd5b82018360208201111561015457600080fd5b8035906020019184600183028401116401000000008311171561017657600080fd5b91908080601f016020809104026020016040519081016040528093929190818152602001838380828437600081840152601f19601f82011690508083019250505050505050919291929080359060200190929190803590602001906401000000008111156101e357600080fd5b8201836020820111156101f557600080fd5b8035906020019184600183028401116401000000008311171561021757600080fd5b91908080601f016020809104026020016040519081016040528093929190818152602001838380828437600081840152601f19601f820116905080830192505050505050509192919290505050610d71565b005b6103216004803603602081101561028157600080fd5b810190808035906020019064010000000081111561029e57600080fd5b8201836020820111156102b057600080fd5b803590602001918460208302840111640100000000831117156102d257600080fd5b919080806020026020016040519081016040528093929190818152602001838360200280828437600081840152601f19601f820116905080830192505050505050509192919290505050610de9565b604051808215151515815260200191505060405180910390f35b61037d6004803603602081101561035157600080fd5b81019080803573ffffffffffffffffffffffffffffffffffffffff169060200190929190505050610e8c565b604051808215151515815260200191505060405180910390f35b6103d9600480360360208110156103ad57600080fd5b81019080803573ffffffffffffffffffffffffffffffffffffffff169060200190929190505050610ffe565b005b6103e3611113565b604051808273ffffffffffffffffffffffffffffffffffffffff1673ffffffffffffffffffffffffffffffffffffffff16815260200191505060405180910390f35b6104676004803603602081101561043b57600080fd5b81019080803573ffffffffffffffffffffffffffffffffffffffff169060200190929190505050611139565b604051808215151515815260200191505060405180910390f35b61053a6004803603602081101561049757600080fd5b81019080803590602001906401000000008111156104b457600080fd5b8201836020820111156104c657600080fd5b803590602001918460018302840111640100000000831117156104e857600080fd5b91908080601f016020809104026020016040519081016040528093929190818152602001838380828437600081840152601f19601f8201169050808301925050505050505091929192905050506112aa565b005b6105f56004803603602081101561055257600080fd5b810190808035906020019064010000000081111561056f57600080fd5b82018360208201111561058157600080fd5b803590602001918460018302840111640100000000831117156105a357600080fd5b91908080601f016020809104026020016040519081016040528093929190818152602001838380828437600081840152601f19601f82011690508083019250505050505050919291929050505061131e565b6040518080602001828103825283818151815260200191508051906020019080838360005b8381101561063557808201518184015260208101905061061a565b50505050905090810190601f1680156106625780820380516001836020036101000a031916815260200191505b509250505060405180910390f35b610678611619565b604051808273ffffffffffffffffffffffffffffffffffffffff1673ffffffffffffffffffffffffffffffffffffffff16815260200191505060405180910390f35b6106fc600480360360208110156106d057600080fd5b81019080803573ffffffffffffffffffffffffffffffffffffffff16906020019092919050505061163e565b604051808215151515815260200191505060405180910390f35b6107cf6004803603602081101561072c57600080fd5b810190808035906020019064010000000081111561074957600080fd5b82018360208201111561075b57600080fd5b8035906020019184600183028401116401000000008311171561077d57600080fd5b91908080601f016020809104026020016040519081016040528093929190818152602001838380828437600081840152601f19601f82011690508083019250505050505050919291929050505061165e565b6040518082815260200191505060405180910390f35b61089e600480360360208110156107fb57600080fd5b810190808035906020019064010000000081111561081857600080fd5b82018360208201111561082a57600080fd5b8035906020019184600183028401116401000000008311171561084c57600080fd5b91908080601f016020809104026020016040519081016040528093929190818152602001838380828437600081840152601f19601f820116905080830192505050505050509192919290505050611958565b604051808273ffffffffffffffffffffffffffffffffffffffff1673ffffffffffffffffffffffffffffffffffffffff16815260200191505060405180910390f35b610999600480360360208110156108f657600080fd5b810190808035906020019064010000000081111561091357600080fd5b82018360208201111561092557600080fd5b8035906020019184600183028401116401000000008311171561094757600080fd5b91908080601f016020809104026020016040519081016040528093929190818152602001838380828437600081840152601f19601f820116905080830192505050505050509192919290505050611c52565b60405180826bffffffffffffffffffffffff19166bffffffffffffffffffffffff1916815260200191505060405180910390f35b610a86600480360360208110156109e357600080fd5b8101908080359060200190640100000000811115610a0057600080fd5b820183602082011115610a1257600080fd5b80359060200191846001830284011164010000000083111715610a3457600080fd5b91908080601f016020809104026020016040519081016040528093929190818152602001838380828437600081840152601f19601f820116905080830192505050505050509192919290505050611faa565b6040518080602001828103825283818151815260200191508051906020019080838360005b83811015610ac6578082015181840152602081019050610aab565b50505050905090810190601f168015610af35780820380516001836020036101000a031916815260200191505b509250505060405180910390f35b610c5b60048036036060811015610b1757600080fd5b8101908080359060200190640100000000811115610b3457600080fd5b820183602082011115610b4657600080fd5b80359060200191846001830284011164010000000083111715610b6857600080fd5b91908080601f016020809104026020016040519081016040528093929190818152602001838380828437600081840152601f19601f8201169050808301925050505050505091929192908035906020019092919080359060200190640100000000811115610bd557600080fd5b820183602082011115610be757600080fd5b80359060200191846001830284011164010000000083111715610c0957600080fd5b91908080601f016020809104026020016040519081016040528093929190818152602001838380828437600081840152601f19601f8201169050808301925050505050505091929192905050506121d1565b005b610d1360048036036020811015610c7357600080fd5b8101908080359060200190640100000000811115610c9057600080fd5b820183602082011115610ca257600080fd5b80359060200191846020830284011164010000000083111715610cc457600080fd5b919080806020026020016040519081016040528093929190818152602001838360200280828437600081840152601f19601f820116905080830192505050505050509192919290505050612249565b604051808215151515815260200191505060405180910390f35b610d6f60048036036020811015610d4357600080fd5b81019080803573ffffffffffffffffffffffffffffffffffffffff1690602001909291905050506122ec565b005b600260003373ffffffffffffffffffffffffffffffffffffffff1673ffffffffffffffffffffffffffffffffffffffff16815260200190815260200160002060009054906101000a900460ff16610dc757600080fd5b610de4610dd384611faa565b610ddc8561243d565b3385856124c8565b505050565b60008060009054906101000a900473ffffffffffffffffffffffffffffffffffffffff1673ffffffffffffffffffffffffffffffffffffffff163373ffffffffffffffffffffffffffffffffffffffff1614610e4457600080fd5b60008090505b8251811015610e8657610e6f838281518110610e6257fe5b6020026020010151610e8c565b15610e7957600191505b8080600101915050610e4a565b50919050565b60008060009054906101000a900473ffffffffffffffffffffffffffffffffffffffff1673ffffffffffffffffffffffffffffffffffffffff163373ffffffffffffffffffffffffffffffffffffffff1614610ee757600080fd5b600260008373ffffffffffffffffffffffffffffffffffffffff1673ffffffffffffffffffffffffffffffffffffffff16815260200190815260200160002060009054906101000a900460ff1615610ff9576000600260008473ffffffffffffffffffffffffffffffffffffffff1673ffffffffffffffffffffffffffffffffffffffff16815260200190815260200160002060006101000a81548160ff0219169083151502179055507ff1abf01a1043b7c244d128e8595cf0c1d10743b022b03a02dffd8ca3bf729f5a82604051808273ffffffffffffffffffffffffffffffffffffffff1673ffffffffffffffffffffffffffffffffffffffff16815260200191505060405180910390a1600190505b919050565b6000809054906101000a900473ffffffffffffffffffffffffffffffffffffffff1673ffffffffffffffffffffffffffffffffffffffff163373ffffffffffffffffffffffffffffffffffffffff161461105757600080fd5b600160009054906101000a900473ffffffffffffffffffffffffffffffffffffffff1673ffffffffffffffffffffffffffffffffffffffff1663f2fde38b826040518263ffffffff1660e01b8152600401808273ffffffffffffffffffffffffffffffffffffffff1673ffffffffffffffffffffffffffffffffffffffff168152602001915050600060405180830381600087803b1580156110f857600080fd5b505af115801561110c573d6000803e3d6000fd5b5050505050565b600160009054906101000a900473ffffffffffffffffffffffffffffffffffffffff1681565b60008060009054906101000a900473ffffffffffffffffffffffffffffffffffffffff1673ffffffffffffffffffffffffffffffffffffffff163373ffffffffffffffffffffffffffffffffffffffff161461119457600080fd5b600260008373ffffffffffffffffffffffffffffffffffffffff1673ffffffffffffffffffffffffffffffffffffffff16815260200190815260200160002060009054906101000a900460ff166112a5576001600260008473ffffffffffffffffffffffffffffffffffffffff1673ffffffffffffffffffffffffffffffffffffffff16815260200190815260200160002060006101000a81548160ff0219169083151502179055507fd1bba68c128cc3f427e5831b3c6f99f480b6efa6b9e80c757768f6124158cc3f82604051808273ffffffffffffffffffffffffffffffffffffffff1673ffffffffffffffffffffffffffffffffffffffff16815260200191505060405180910390a1600190505b919050565b600260003373ffffffffffffffffffffffffffffffffffffffff1673ffffffffffffffffffffffffffffffffffffffff16815260200190815260200160002060009054906101000a900460ff1661130057600080fd5b61131b61130c82611faa565b6113158361243d565b33612897565b50565b6060600061132b83611c52565b9050600160009054906101000a900473ffffffffffffffffffffffffffffffffffffffff1673ffffffffffffffffffffffffffffffffffffffff1663430e0aee826040518263ffffffff1660e01b815260040180826bffffffffffffffffffffffff19166bffffffffffffffffffffffff1916815260200191505060206040518083038186803b1580156113be57600080fd5b505afa1580156113d2573d6000803e3d6000fd5b505050506040513d60208110156113e857600080fd5b810190808051906020019092919050505061146b576040517f08c379a00000000000000000000000000000000000000000000000000000000081526004018080602001828103825260128152602001807f44494420646f6573206e6f74206578697374000000000000000000000000000081525060200191505060405180910390fd5b6060600160009054906101000a900473ffffffffffffffffffffffffffffffffffffffff1673ffffffffffffffffffffffffffffffffffffffff16635acecc78836040518263ffffffff1660e01b815260040180826bffffffffffffffffffffffff19166bffffffffffffffffffffffff1916815260200191505060006040518083038186803b1580156114fe57600080fd5b505afa158015611512573d6000803e3d6000fd5b505050506040513d6000823e3d601f19601f82011682018060405250606081101561153c57600080fd5b8101908080519060200190929190805190602001909291908051604051939291908464010000000082111561157057600080fd5b8382019150602082018581111561158657600080fd5b82518660018202830111640100000000821117156115a357600080fd5b8083526020830192505050908051906020019080838360005b838110156115d75780820151818401526020810190506115bc565b50505050905090810190601f1680156116045780820380516001836020036101000a031916815260200191505b50604052505050925050508092505050919050565b6000809054906101000a900473ffffffffffffffffffffffffffffffffffffffff1681565b60026020528060005260406000206000915054906101000a900460ff1681565b60008061166a83611c52565b9050600160009054906101000a900473ffffffffffffffffffffffffffffffffffffffff1673ffffffffffffffffffffffffffffffffffffffff1663430e0aee826040518263ffffffff1660e01b815260040180826bffffffffffffffffffffffff19166bffffffffffffffffffffffff1916815260200191505060206040518083038186803b1580156116fd57600080fd5b505afa158015611711573d6000803e3d6000fd5b505050506040513d602081101561172757600080fd5b81019080805190602001909291905050506117aa576040517f08c379a00000000000000000000000000000000000000000000000000000000081526004018080602001828103825260128152602001807f44494420646f6573206e6f74206578697374000000000000000000000000000081525060200191505060405180910390fd5b6000600160009054906101000a900473ffffffffffffffffffffffffffffffffffffffff1673ffffffffffffffffffffffffffffffffffffffff16635acecc78836040518263ffffffff1660e01b815260040180826bffffffffffffffffffffffff19166bffffffffffffffffffffffff1916815260200191505060006040518083038186803b15801561183d57600080fd5b505afa158015611851573d6000803e3d6000fd5b505050506040513d6000823e3d601f19601f82011682018060405250606081101561187b57600080fd5b810190808051906020019092919080519060200190929190805160405193929190846401000000008211156118af57600080fd5b838201915060208201858111156118c557600080fd5b82518660018202830111640100000000821117156118e257600080fd5b8083526020830192505050908051906020019080838360005b838110156119165780820151818401526020810190506118fb565b50505050905090810190601f1680156119435780820380516001836020036101000a031916815260200191505b50604052505050509150508092505050919050565b60008061196483611c52565b9050600160009054906101000a900473ffffffffffffffffffffffffffffffffffffffff1673ffffffffffffffffffffffffffffffffffffffff1663430e0aee826040518263ffffffff1660e01b815260040180826bffffffffffffffffffffffff19166bffffffffffffffffffffffff1916815260200191505060206040518083038186803b1580156119f757600080fd5b505afa158015611a0b573d6000803e3d6000fd5b505050506040513d6020811015611a2157600080fd5b8101908080519060200190929190505050611aa4576040517f08c379a00000000000000000000000000000000000000000000000000000000081526004018080602001828103825260128152602001807f44494420646f6573206e6f74206578697374000000000000000000000000000081525060200191505060405180910390fd5b6000600160009054906101000a900473ffffffffffffffffffffffffffffffffffffffff1673ffffffffffffffffffffffffffffffffffffffff16635acecc78836040518263ffffffff1660e01b815260040180826bffffffffffffffffffffffff19166bffffffffffffffffffffffff1916815260200191505060006040518083038186803b158015611b3757600080fd5b505afa158015611b4b573d6000803e3d6000fd5b505050506040513d6000823e3d601f19601f820116820180604052506060811015611b7557600080fd5b81019080805190602001909291908051906020019092919080516040519392919084640100000000821115611ba957600080fd5b83820191506020820185811115611bbf57600080fd5b8251866001820283011164010000000082111715611bdc57600080fd5b8083526020830192505050908051906020019080838360005b83811015611c10578082015181840152602081019050611bf5565b50505050905090810190601f168015611c3d5780820380516001836020036101000a031916815260200191505b50604052505050505090508092505050919050565b6000611dbe82600160009054906101000a900473ffffffffffffffffffffffffffffffffffffffff1673ffffffffffffffffffffffffffffffffffffffff166312d05d3d6040518163ffffffff1660e01b815260040160006040518083038186803b158015611cc057600080fd5b505afa158015611cd4573d6000803e3d6000fd5b505050506040513d6000823e3d601f19601f820116820180604052506020811015611cfe57600080fd5b8101908080516040519392919084640100000000821115611d1e57600080fd5b83820191506020820185811115611d3457600080fd5b8251866001820283011164010000000082111715611d5157600080fd5b8083526020830192505050908051906020019080838360005b83811015611d85578082015181840152602081019050611d6a565b50505050905090810190601f168015611db25780820380516001836020036101000a031916815260200191505b50604052505050612e2c565b611e30576040517f08c379a000000000000000000000000000000000000000000000000000000000815260040180806020018281038252600b8152602001807f696e76616c69642044494400000000000000000000000000000000000000000081525060200191505060405180910390fd5b611fa3611f9e83600160009054906101000a900473ffffffffffffffffffffffffffffffffffffffff1673ffffffffffffffffffffffffffffffffffffffff166312d05d3d6040518163ffffffff1660e01b815260040160006040518083038186803b158015611e9f57600080fd5b505afa158015611eb3573d6000803e3d6000fd5b505050506040513d6000823e3d601f19601f820116820180604052506020811015611edd57600080fd5b8101908080516040519392919084640100000000821115611efd57600080fd5b83820191506020820185811115611f1357600080fd5b8251866001820283011164010000000082111715611f3057600080fd5b8083526020830192505050908051906020019080838360005b83811015611f64578082015181840152602081019050611f49565b50505050905090810190601f168015611f915780820380516001836020036101000a031916815260200191505b5060405250505051612ee9565b61243d565b9050919050565b6060600160009054906101000a900473ffffffffffffffffffffffffffffffffffffffff1673ffffffffffffffffffffffffffffffffffffffff166312d05d3d6040518163ffffffff1660e01b815260040160006040518083038186803b15801561201457600080fd5b505afa158015612028573d6000803e3d6000fd5b505050506040513d6000823e3d601f19601f82011682018060405250602081101561205257600080fd5b810190808051604051939291908464010000000082111561207257600080fd5b8382019150602082018581111561208857600080fd5b82518660018202830111640100000000821117156120a557600080fd5b8083526020830192505050908051906020019080838360005b838110156120d95780820151818401526020810190506120be565b50505050905090810190601f1680156121065780820380516001836020036101000a031916815260200191505b50604052505050826040516020018083805190602001908083835b602083106121445780518252602082019150602081019050602083039250612121565b6001836020036101000a03801982511681845116808217855250505050505090500182805190602001908083835b602083106121955780518252602082019150602081019050602083039250612172565b6001836020036101000a038019825116818451168082178552505050505050905001925050506040516020818303038152906040529050919050565b600260003373ffffffffffffffffffffffffffffffffffffffff1673ffffffffffffffffffffffffffffffffffffffff16815260200190815260200160002060009054906101000a900460ff1661222757600080fd5b61224461223384611faa565b61223c8561243d565b338585612fe4565b505050565b60008060009054906101000a900473ffffffffffffffffffffffffffffffffffffffff1673ffffffffffffffffffffffffffffffffffffffff163373ffffffffffffffffffffffffffffffffffffffff16146122a457600080fd5b60008090505b82518110156122e6576122cf8382815181106122c257fe5b6020026020010151611139565b156122d957600191505b80806001019150506122aa565b50919050565b6000809054906101000a900473ffffffffffffffffffffffffffffffffffffffff1673ffffffffffffffffffffffffffffffffffffffff163373ffffffffffffffffffffffffffffffffffffffff161461234557600080fd5b600073ffffffffffffffffffffffffffffffffffffffff168173ffffffffffffffffffffffffffffffffffffffff16141561237f57600080fd5b8073ffffffffffffffffffffffffffffffffffffffff166000809054906101000a900473ffffffffffffffffffffffffffffffffffffffff1673ffffffffffffffffffffffffffffffffffffffff167f8be0079c531659141344cd1fd0a4f28419497f9722a3daafe3b4186f6b6457e060405160405180910390a3806000806101000a81548173ffffffffffffffffffffffffffffffffffffffff021916908373ffffffffffffffffffffffffffffffffffffffff16021790555050565b60006003826040518082805190602001908083835b602083106124755780518252602082019150602081019050602083039250612452565b6001836020036101000a038019825116818451168082178552505050505050905001915050602060405180830381855afa1580156124b7573d6000803e3d6000fd5b5050506040515160601b9050919050565b600160009054906101000a900473ffffffffffffffffffffffffffffffffffffffff1673ffffffffffffffffffffffffffffffffffffffff1663430e0aee856040518263ffffffff1660e01b815260040180826bffffffffffffffffffffffff19166bffffffffffffffffffffffff1916815260200191505060206040518083038186803b15801561255957600080fd5b505afa15801561256d573d6000803e3d6000fd5b505050506040513d602081101561258357600080fd5b810190808051906020019092919050505015612607576040517f08c379a000000000000000000000000000000000000000000000000000000000815260040180806020018281038252600d8152602001807f6475706c6963617465204449440000000000000000000000000000000000000081525060200191505060405180910390fd5b600160009054906101000a900473ffffffffffffffffffffffffffffffffffffffff1673ffffffffffffffffffffffffffffffffffffffff166348cab05b8560018686866040518663ffffffff1660e01b815260040180866bffffffffffffffffffffffff19166bffffffffffffffffffffffff19168152602001851515151581526020018473ffffffffffffffffffffffffffffffffffffffff1673ffffffffffffffffffffffffffffffffffffffff16815260200183815260200180602001828103825283818151815260200191508051906020019080838360005b838110156127005780820151818401526020810190506126e5565b50505050905090810190601f16801561272d5780820380516001836020036101000a031916815260200191505b509650505050505050600060405180830381600087803b15801561275057600080fd5b505af1158015612764573d6000803e3d6000fd5b505050508273ffffffffffffffffffffffffffffffffffffffff167f0a36151ef7283a91a6a8d052cd44a0c20f8c7207decf22d985eba8eb0a5a268b868484604051808060200184815260200180602001838103835286818151815260200191508051906020019080838360005b838110156127ed5780820151818401526020810190506127d2565b50505050905090810190601f16801561281a5780820380516001836020036101000a031916815260200191505b50838103825284818151815260200191508051906020019080838360005b83811015612853578082015181840152602081019050612838565b50505050905090810190601f1680156128805780820380516001836020036101000a031916815260200191505b509550505050505060405180910390a25050505050565b600160009054906101000a900473ffffffffffffffffffffffffffffffffffffffff1673ffffffffffffffffffffffffffffffffffffffff1663430e0aee836040518263ffffffff1660e01b815260040180826bffffffffffffffffffffffff19166bffffffffffffffffffffffff1916815260200191505060206040518083038186803b15801561292857600080fd5b505afa15801561293c573d6000803e3d6000fd5b505050506040513d602081101561295257600080fd5b81019080805190602001909291905050506129d5576040517f08c379a00000000000000000000000000000000000000000000000000000000081526004018080602001828103825260128152602001807f44494420646f6573206e6f74206578697374000000000000000000000000000081525060200191505060405180910390fd5b6000806060600160009054906101000a900473ffffffffffffffffffffffffffffffffffffffff1673ffffffffffffffffffffffffffffffffffffffff16635acecc78866040518263ffffffff1660e01b815260040180826bffffffffffffffffffffffff19166bffffffffffffffffffffffff1916815260200191505060006040518083038186803b158015612a6b57600080fd5b505afa158015612a7f573d6000803e3d6000fd5b505050506040513d6000823e3d601f19601f820116820180604052506060811015612aa957600080fd5b81019080805190602001909291908051906020019092919080516040519392919084640100000000821115612add57600080fd5b83820191506020820185811115612af357600080fd5b8251866001820283011164010000000082111715612b1057600080fd5b8083526020830192505050908051906020019080838360005b83811015612b44578082015181840152602081019050612b29565b50505050905090810190601f168015612b715780820380516001836020036101000a031916815260200191505b506040525050509250925092508373ffffffffffffffffffffffffffffffffffffffff168373ffffffffffffffffffffffffffffffffffffffff1614612c1f576040517f08c379a000000000000000000000000000000000000000000000000000000000815260040180806020018281038252600d8152602001807f6e6f207065726d697373696f6e0000000000000000000000000000000000000081525060200191505060405180910390fd5b600160009054906101000a900473ffffffffffffffffffffffffffffffffffffffff1673ffffffffffffffffffffffffffffffffffffffff166348cab05b8660008786866040518663ffffffff1660e01b815260040180866bffffffffffffffffffffffff19166bffffffffffffffffffffffff19168152602001851515151581526020018473ffffffffffffffffffffffffffffffffffffffff1673ffffffffffffffffffffffffffffffffffffffff16815260200183815260200180602001828103825283818151815260200191508051906020019080838360005b83811015612d18578082015181840152602081019050612cfd565b50505050905090810190601f168015612d455780820380516001836020036101000a031916815260200191505b509650505050505050600060405180830381600087803b158015612d6857600080fd5b505af1158015612d7c573d6000803e3d6000fd5b50505050856040518082805190602001908083835b60208310612db45780518252602082019150602081019050602083039250612d91565b6001836020036101000a03801982511681845116808217855250505050505090500191505060405180910390203373ffffffffffffffffffffffffffffffffffffffff167f56c5173d83675a7f2b174113df9205152eb36c65ab39e41d5d1b8d9cb88eabd260405160405180910390a3505050505050565b60008151835111612e405760009050612ee3565b60008090505b8251811015612edd57838181518110612e5b57fe5b602001015160f81c60f81b7effffffffffffffffffffffffffffffffffffffffffffffffffffffffffffff1916838281518110612e9457fe5b602001015160f81c60f81b7effffffffffffffffffffffffffffffffffffffffffffffffffffffffffffff191614612ed0576000915050612ee3565b8080600101915050612e46565b50600190505b92915050565b60608183511015612f62576040517f08c379a00000000000000000000000000000000000000000000000000000000081526004018080602001828103825260128152602001807f52656164206f7574206f6620626f756e6473000000000000000000000000000081525060200191505060405180910390fd5b60008284510390506060811560008114612f8757604051915060208201604052612fd8565b6040519150601f8316801560200281840101848101878315602002848b0101015b81831015612fc55780518352602083019250602081019050612fa8565b50858552601f19601f8301166040525050505b50809250505092915050565b600160009054906101000a900473ffffffffffffffffffffffffffffffffffffffff1673ffffffffffffffffffffffffffffffffffffffff1663430e0aee856040518263ffffffff1660e01b815260040180826bffffffffffffffffffffffff19166bffffffffffffffffffffffff1916815260200191505060206040518083038186803b15801561307557600080fd5b505afa158015613089573d6000803e3d6000fd5b505050506040513d602081101561309f57600080fd5b8101908080519060200190929190505050613122576040517f08c379a00000000000000000000000000000000000000000000000000000000081526004018080602001828103825260128152602001807f44494420646f6573206e6f74206578697374000000000000000000000000000081525060200191505060405180910390fd5b6000600160009054906101000a900473ffffffffffffffffffffffffffffffffffffffff1673ffffffffffffffffffffffffffffffffffffffff16635acecc78866040518263ffffffff1660e01b815260040180826bffffffffffffffffffffffff19166bffffffffffffffffffffffff1916815260200191505060006040518083038186803b1580156131b557600080fd5b505afa1580156131c9573d6000803e3d6000fd5b505050506040513d6000823e3d601f19601f8201168201806040525060608110156131f357600080fd5b8101908080519060200190929190805190602001909291908051604051939291908464010000000082111561322757600080fd5b8382019150602082018581111561323d57600080fd5b825186600182028301116401000000008211171561325a57600080fd5b8083526020830192505050908051906020019080838360005b8381101561328e578082015181840152602081019050613273565b50505050905090810190601f1680156132bb5780820380516001836020036101000a031916815260200191505b50604052505050505090508373ffffffffffffffffffffffffffffffffffffffff168173ffffffffffffffffffffffffffffffffffffffff1614613367576040517f08c379a000000000000000000000000000000000000000000000000000000000815260040180806020018281038252600d8152602001807f6e6f207065726d697373696f6e0000000000000000000000000000000000000081525060200191505060405180910390fd5b600160009054906101000a900473ffffffffffffffffffffffffffffffffffffffff1673ffffffffffffffffffffffffffffffffffffffff166348cab05b8660018787876040518663ffffffff1660e01b815260040180866bffffffffffffffffffffffff19166bffffffffffffffffffffffff19168152602001851515151581526020018473ffffffffffffffffffffffffffffffffffffffff1673ffffffffffffffffffffffffffffffffffffffff16815260200183815260200180602001828103825283818151815260200191508051906020019080838360005b83811015613460578082015181840152602081019050613445565b50505050905090810190601f16801561348d5780820380516001836020036101000a031916815260200191505b509650505050505050600060405180830381600087803b1580156134b057600080fd5b505af11580156134c4573d6000803e3d6000fd5b50505050856040518082805190602001908083835b602083106134fc57805182526020820191506020810190506020830392506134d9565b6001836020036101000a03801982511681845116808217855250505050505090500191505060405180910390208473ffffffffffffffffffffffffffffffffffffffff167f30665598c4da8be2cccefb7fe32a379decd1eae407564569a8e95b51e3afccd785856040518083815260200180602001828103825283818151815260200191508051906020019080838360005b838110156135a957808201518184015260208101905061358e565b50505050905090810190601f1680156135d65780820380516001836020036101000a031916815260200191505b50935050505060405180910390a350505050505056fea265627a7a7231582092188ff1b17d9e6b5e5c3b2256cb5db6a1418b6694d83d4205394321cb728ed364736f6c6343000510003260806040523480156200001157600080fd5b5060405162000e9438038062000e94833981810160405260208110156200003757600080fd5b81019080805160405193929190846401000000008211156200005857600080fd5b838201915060208201858111156200006f57600080fd5b82518660018202830111640100000000821117156200008d57600080fd5b8083526020830192505050908051906020019080838360005b83811015620000c3578082015181840152602081019050620000a6565b50505050905090810190601f168015620000f15780820380516001836020036101000a031916815260200191505b50604052505050336000806101000a81548173ffffffffffffffffffffffffffffffffffffffff021916908373ffffffffffffffffffffffffffffffffffffffff16021790555062000149816200015060201b60201c565b5062000275565b6000809054906101000a900473ffffffffffffffffffffffffffffffffffffffff1673ffffffffffffffffffffffffffffffffffffffff163373ffffffffffffffffffffffffffffffffffffffff1614620001aa57600080fd5b8060019080519060200190620001c2929190620001c6565b5050565b828054600181600116156101000203166002900490600052602060002090601f016020900481019282601f106200020957805160ff19168380011785556200023a565b828001600101855582156200023a579182015b82811115620002395782518255916020019190600101906200021c565b5b5090506200024991906200024d565b5090565b6200027291905b808211156200026e57600081600090555060010162000254565b5090565b90565b610c0f80620002856000396000f3fe608060405234801561001057600080fd5b506004361061007d5760003560e01c80634f1531451161005b5780634f153145146102645780635acecc781461031f5780638da5cb5b1461040f578063f2fde38b146104595761007d565b806312d05d3d14610082578063430e0aee1461010557806348cab05b1461015a575b600080fd5b61008a61049d565b6040518080602001828103825283818151815260200191508051906020019080838360005b838110156100ca5780820151818401526020810190506100af565b50505050905090810190601f1680156100f75780820380516001836020036101000a031916815260200191505b509250505060405180910390f35b6101406004803603602081101561011b57600080fd5b8101908080356bffffffffffffffffffffffff1916906020019092919050505061053f565b604051808215151515815260200191505060405180910390f35b610262600480360360a081101561017057600080fd5b8101908080356bffffffffffffffffffffffff19169060200190929190803515159060200190929190803573ffffffffffffffffffffffffffffffffffffffff16906020019092919080359060200190929190803590602001906401000000008111156101dc57600080fd5b8201836020820111156101ee57600080fd5b8035906020019184600183028401116401000000008311171561021057600080fd5b91908080601f016020809104026020016040519081016040528093929190818152602001838380828437600081840152601f19601f82011690508083019250505050505050919291929050505061058a565b005b61031d6004803603602081101561027a57600080fd5b810190808035906020019064010000000081111561029757600080fd5b8201836020820111156102a957600080fd5b803590602001918460018302840111640100000000831117156102cb57600080fd5b91908080601f016020809104026020016040519081016040528093929190818152602001838380828437600081840152601f19601f8201169050808301925050505050505091929192905050506106e5565b005b61035a6004803603602081101561033557600080fd5b8101908080356bffffffffffffffffffffffff19169060200190929190505050610758565b604051808473ffffffffffffffffffffffffffffffffffffffff1673ffffffffffffffffffffffffffffffffffffffff16815260200183815260200180602001828103825283818151815260200191508051906020019080838360005b838110156103d25780820151818401526020810190506103b7565b50505050905090810190601f1680156103ff5780820380516001836020036101000a031916815260200191505b5094505050505060405180910390f35b61041761093f565b604051808273ffffffffffffffffffffffffffffffffffffffff1673ffffffffffffffffffffffffffffffffffffffff16815260200191505060405180910390f35b61049b6004803603602081101561046f57600080fd5b81019080803573ffffffffffffffffffffffffffffffffffffffff169060200190929190505050610964565b005b606060018054600181600116156101000203166002900480601f0160208091040260200160405190810160405280929190818152602001828054600181600116156101000203166002900480156105355780601f1061050a57610100808354040283529160200191610535565b820191906000526020600020905b81548152906001019060200180831161051857829003601f168201915b5050505050905090565b600060026000836bffffffffffffffffffffffff19166bffffffffffffffffffffffff1916815260200190815260200160002060000160009054906101000a900460ff169050919050565b6000809054906101000a900473ffffffffffffffffffffffffffffffffffffffff1673ffffffffffffffffffffffffffffffffffffffff163373ffffffffffffffffffffffffffffffffffffffff16146105e357600080fd5b604051806080016040528085151581526020018473ffffffffffffffffffffffffffffffffffffffff1681526020018381526020018281525060026000876bffffffffffffffffffffffff19166bffffffffffffffffffffffff1916815260200190815260200160002060008201518160000160006101000a81548160ff02191690831515021790555060208201518160000160016101000a81548173ffffffffffffffffffffffffffffffffffffffff021916908373ffffffffffffffffffffffffffffffffffffffff1602179055506040820151816001015560608201518160020190805190602001906106da929190610ab5565b509050505050505050565b6000809054906101000a900473ffffffffffffffffffffffffffffffffffffffff1673ffffffffffffffffffffffffffffffffffffffff163373ffffffffffffffffffffffffffffffffffffffff161461073e57600080fd5b8060019080519060200190610754929190610b35565b5050565b60008060606107668461053f565b6107d8576040517f08c379a00000000000000000000000000000000000000000000000000000000081526004018080602001828103825260128152602001807f44494420646f6573206e6f74206578697374000000000000000000000000000081525060200191505060405180910390fd5b60026000856bffffffffffffffffffffffff19166bffffffffffffffffffffffff1916815260200190815260200160002060000160019054906101000a900473ffffffffffffffffffffffffffffffffffffffff1660026000866bffffffffffffffffffffffff19166bffffffffffffffffffffffff191681526020019081526020016000206001015460026000876bffffffffffffffffffffffff19166bffffffffffffffffffffffff19168152602001908152602001600020600201808054600181600116156101000203166002900480601f01602080910402602001604051908101604052809291908181526020018280546001816001161561010002031660029004801561092b5780601f106109005761010080835404028352916020019161092b565b820191906000526020600020905b81548152906001019060200180831161090e57829003601f168201915b505050505090509250925092509193909250565b6000809054906101000a900473ffffffffffffffffffffffffffffffffffffffff1681565b6000809054906101000a900473ffffffffffffffffffffffffffffffffffffffff1673ffffffffffffffffffffffffffffffffffffffff163373ffffffffffffffffffffffffffffffffffffffff16146109bd57600080fd5b600073ffffffffffffffffffffffffffffffffffffffff168173ffffffffffffffffffffffffffffffffffffffff1614156109f757600080fd5b8073ffffffffffffffffffffffffffffffffffffffff166000809054906101000a900473ffffffffffffffffffffffffffffffffffffffff1673ffffffffffffffffffffffffffffffffffffffff167f8be0079c531659141344cd1fd0a4f28419497f9722a3daafe3b4186f6b6457e060405160405180910390a3806000806101000a81548173ffffffffffffffffffffffffffffffffffffffff021916908373ffffffffffffffffffffffffffffffffffffffff16021790555050565b828054600181600116156101000203166002900490600052602060002090601f016020900481019282601f10610af657805160ff1916838001178555610b24565b82800160010185558215610b24579182015b82811115610b23578251825591602001919060010190610b08565b5b509050610b319190610bb5565b5090565b828054600181600116156101000203166002900490600052602060002090601f016020900481019282601f10610b7657805160ff1916838001178555610ba4565b82800160010185558215610ba4579182015b82811115610ba3578251825591602001919060010190610b88565b5b509050610bb19190610bb5565b5090565b610bd791905b80821115610bd3576000816000905550600101610bbb565b5090565b9056fea265627a7a723158209adf7819135c6338a733b6d8957c05d9f30f68401ef63d97667b66deae230c5f64736f6c63430005100032",
  "source": "pragma solidity >=0.4.22 <0.6.0;\n\nimport './PrivateDIDManager.sol';\n\ncontract PebbleDIDManager is PrivateDIDManager {\n    constructor(address _dbAddr) PrivateDIDManager(\"did:io:pebble:\", _dbAddr) public {}\n\n    function getInternalKey(bytes memory id) internal view returns (bytes20) {\n        return ripemd160(id);\n    }\n\n    function formDID(bytes memory id) public view returns (bytes memory) {\n        // TODO: convert bytes to string\n        return abi.encodePacked(db.getPrefix(), id);\n    }\n\n    function decodeInternalKey(bytes memory did) public view returns (bytes20) {\n        // TODO: verify id format\n        require(hasPrefix(did, db.getPrefix()), \"invalid DID\");\n        return getInternalKey(slice(did, db.getPrefix().length));\n    }\n    /*\n    function verifyDID(string memory did) public view returns (bool) {\n        bytes memory ds = bytes(did);\n        if (ds.length <= prefixBytes.length) {\n            return false;\n        }\n        uint i = 0;\n        // check prefix\n        for (i = 0; i < prefixBytes.length; i++) {\n            if (ds[i] != prefixBytes[i]) {\n                return false;\n            }\n        }\n        // check did format\n        for (; i < ds.length; i++) {\n            if (!(ds[i] >= 'a' && ds[i] <= 'z' || ds[i] >= 'A' && ds[i] <= 'Z' || ds[i] >= '0' && ds[i] <= '9')) {\n                return false;\n            }\n        }\n        return true;\n    }\n    */\n}",
  "sourcePath": "/root/iotex-did/smartcontracts/contracts/PebbleDIDManager.sol",
  "compiler": {
    "name": "solc",
    "version": "0.5.16+commit.9c3226ce.Emscripten.clang"
  },
  "schemaVersion": "3.2.0",
  "updatedAt": "2020-07-15T03:29:24.511Z",
  "devdoc": {
    "methods": {
      "addAddressToWhitelist(address)": {
        "details": "add an address to the whitelist",
        "params": {
          "addr": "address"
        },
        "return": "true if the address was added to the whitelist, false if the address was already in the whitelist"
      },
      "addAddressesToWhitelist(address[])": {
        "details": "add addresses to the whitelist",
        "params": {
          "addrs": "addresses"
        },
        "return": "true if at least one address was added to the whitelist, false if all addresses were already in the whitelist"
      },
      "removeAddressFromWhitelist(address)": {
        "details": "remove an address from the whitelist",
        "params": {
          "addr": "address"
        },
        "return": "true if the address was removed from the whitelist, false if the address wasn't in the whitelist in the first place"
      },
      "removeAddressesFromWhitelist(address[])": {
        "details": "remove addresses from the whitelist",
        "params": {
          "addrs": "addresses"
        },
        "return": "true if at least one address was removed from the whitelist, false if all addresses weren't in the whitelist in the first place"
      },
      "transferOwnership(address)": {
        "details": "Allows the current owner to transfer control of the contract to a newOwner.",
        "params": {
          "newOwner": "The address to transfer ownership to."
        }
      }
    }
  },
  "userdoc": {
    "methods": {}
  }
}