{
  "contractName": "UCamDIDManager",
  "abi": [
    {
      "inputs": [
        {
          "internalType": "address",
          "name": "_dbAddr",
          "type": "address"
        }
      ],
      "payable": false,
      "stateMutability": "nonpayable",
      "type": "constructor"
    },
    {
      "anonymous": false,
      "inputs": [
        {
          "indexed": true,
          "internalType": "address",
          "name": "operator",
          "type": "address"
        },
        {
          "indexed": false,
          "internalType": "string",
          "name": "did",
          "type": "string"
        },
        {
          "indexed": false,
          "internalType": "bytes32",
          "name": "hash",
          "type": "bytes32"
        },
        {
          "indexed": false,
          "internalType": "string",
          "name": "uri",
          "type": "string"
        }
      ],
      "name": "DIDCreated",
      "type": "event"
    },
    {
      "anonymous": false,
      "inputs": [
        {
          "indexed": true,
          "internalType": "address",
          "name": "operator",
          "type": "address"
        },
        {
          "indexed": true,
          "internalType": "string",
          "name": "did",
          "type": "string"
        }
      ],
      "name": "DIDDeleted",
      "type": "event"
    },
    {
      "anonymous": false,
      "inputs": [
        {
          "indexed": true,
          "internalType": "address",
          "name": "operator",
          "type": "address"
        },
        {
          "indexed": true,
          "internalType": "string",
          "name": "did",
          "type": "string"
        },
        {
          "indexed": false,
          "internalType": "bytes32",
          "name": "hash",
          "type": "bytes32"
        },
        {
          "indexed": false,
          "internalType": "string",
          "name": "uri",
          "type": "string"
        }
      ],
      "name": "DIDUpdated",
      "type": "event"
    },
    {
      "anonymous": false,
      "inputs": [
        {
          "indexed": true,
          "internalType": "address",
          "name": "previousOwner",
          "type": "address"
        },
        {
          "indexed": true,
          "internalType": "address",
          "name": "newOwner",
          "type": "address"
        }
      ],
      "name": "OwnershipTransferred",
      "type": "event"
    },
    {
      "anonymous": false,
      "inputs": [
        {
          "indexed": false,
          "internalType": "bytes",
          "name": "msg",
          "type": "bytes"
        }
      ],
      "name": "authMsg",
      "type": "event"
    },
    {
      "anonymous": false,
      "inputs": [
        {
          "indexed": false,
          "internalType": "bytes",
          "name": "msg",
          "type": "bytes"
        }
      ],
      "name": "didmsg",
      "type": "event"
    },
    {
      "anonymous": false,
      "inputs": [
        {
          "indexed": false,
          "internalType": "bytes32",
          "name": "msg",
          "type": "bytes32"
        }
      ],
      "name": "hash",
      "type": "event"
    },
    {
      "anonymous": false,
      "inputs": [
        {
          "indexed": false,
          "internalType": "address",
          "name": "authorizer",
          "type": "address"
        }
      ],
      "name": "register",
      "type": "event"
    },
    {
      "constant": true,
      "inputs": [],
      "name": "db",
      "outputs": [
        {
          "internalType": "contract DIDStorage",
          "name": "",
          "type": "address"
        }
      ],
      "payable": false,
      "stateMutability": "view",
      "type": "function"
    },
    {
      "constant": true,
      "inputs": [
        {
          "internalType": "bytes",
          "name": "did",
          "type": "bytes"
        },
        {
          "internalType": "bytes32",
          "name": "h",
          "type": "bytes32"
        },
        {
          "internalType": "bytes",
          "name": "uri",
          "type": "bytes"
        },
        {
          "internalType": "address",
          "name": "agent",
          "type": "address"
        }
      ],
      "name": "getCreateAuthMessage",
      "outputs": [
        {
          "internalType": "bytes",
          "name": "",
          "type": "bytes"
        }
      ],
      "payable": false,
      "stateMutability": "view",
      "type": "function"
    },
    {
      "constant": true,
      "inputs": [
        {
          "internalType": "bytes",
          "name": "did",
          "type": "bytes"
        },
        {
          "internalType": "address",
          "name": "agent",
          "type": "address"
        }
      ],
      "name": "getDeleteAuthMessage",
      "outputs": [
        {
          "internalType": "bytes",
          "name": "",
          "type": "bytes"
        }
      ],
      "payable": false,
      "stateMutability": "view",
      "type": "function"
    },
    {
      "constant": true,
      "inputs": [
        {
          "internalType": "bytes",
          "name": "did",
          "type": "bytes"
        }
      ],
      "name": "getHash",
      "outputs": [
        {
          "internalType": "bytes32",
          "name": "",
          "type": "bytes32"
        }
      ],
      "payable": false,
      "stateMutability": "view",
      "type": "function"
    },
    {
      "constant": true,
      "inputs": [
        {
          "internalType": "bytes",
          "name": "did",
          "type": "bytes"
        }
      ],
      "name": "getOwner",
      "outputs": [
        {
          "internalType": "address",
          "name": "",
          "type": "address"
        }
      ],
      "payable": false,
      "stateMutability": "view",
      "type": "function"
    },
    {
      "constant": true,
      "inputs": [
        {
          "internalType": "bytes",
          "name": "did",
          "type": "bytes"
        }
      ],
      "name": "getURI",
      "outputs": [
        {
          "internalType": "bytes",
          "name": "",
          "type": "bytes"
        }
      ],
      "payable": false,
      "stateMutability": "view",
      "type": "function"
    },
    {
      "constant": true,
      "inputs": [
        {
          "internalType": "bytes",
          "name": "did",
          "type": "bytes"
        },
        {
          "internalType": "bytes32",
          "name": "h",
          "type": "bytes32"
        },
        {
          "internalType": "bytes",
          "name": "uri",
          "type": "bytes"
        },
        {
          "internalType": "address",
          "name": "agent",
          "type": "address"
        }
      ],
      "name": "getUpdateAuthMessage",
      "outputs": [
        {
          "internalType": "bytes",
          "name": "",
          "type": "bytes"
        }
      ],
      "payable": false,
      "stateMutability": "view",
      "type": "function"
    },
    {
      "constant": true,
      "inputs": [],
      "name": "owner",
      "outputs": [
        {
          "internalType": "address",
          "name": "",
          "type": "address"
        }
      ],
      "payable": false,
      "stateMutability": "view",
      "type": "function"
    },
    {
      "constant": false,
      "inputs": [
        {
          "internalType": "address",
          "name": "newOwner",
          "type": "address"
        }
      ],
      "name": "transferDBOwnership",
      "outputs": [],
      "payable": false,
      "stateMutability": "nonpayable",
      "type": "function"
    },
    {
      "constant": false,
      "inputs": [
        {
          "internalType": "address",
          "name": "newOwner",
          "type": "address"
        }
      ],
      "name": "transferOwnership",
      "outputs": [],
      "payable": false,
      "stateMutability": "nonpayable",
      "type": "function"
    },
    {
      "constant": true,
      "inputs": [
        {
          "internalType": "bytes",
          "name": "did",
          "type": "bytes"
        }
      ],
      "name": "decodeInternalKey",
      "outputs": [
        {
          "internalType": "bytes20",
          "name": "",
          "type": "bytes20"
        }
      ],
      "payable": false,
      "stateMutability": "view",
      "type": "function"
    },
    {
      "constant": false,
      "inputs": [
        {
          "internalType": "bytes20",
          "name": "uid",
          "type": "bytes20"
        },
        {
          "internalType": "bytes32",
          "name": "h",
          "type": "bytes32"
        },
        {
          "internalType": "bytes",
          "name": "uri",
          "type": "bytes"
        },
        {
          "internalType": "address",
          "name": "authorizer",
          "type": "address"
        },
        {
          "internalType": "bytes",
          "name": "auth",
          "type": "bytes"
        }
      ],
      "name": "createDIDByAgent",
      "outputs": [],
      "payable": false,
      "stateMutability": "nonpayable",
      "type": "function"
    },
    {
      "constant": false,
      "inputs": [
        {
          "internalType": "bytes20",
          "name": "uid",
          "type": "bytes20"
        },
        {
          "internalType": "bytes32",
          "name": "h",
          "type": "bytes32"
        },
        {
          "internalType": "bytes",
          "name": "uri",
          "type": "bytes"
        },
        {
          "internalType": "bytes",
          "name": "auth",
          "type": "bytes"
        }
      ],
      "name": "updateDIDByAgent",
      "outputs": [],
      "payable": false,
      "stateMutability": "nonpayable",
      "type": "function"
    },
    {
      "constant": false,
      "inputs": [
        {
          "internalType": "bytes20",
          "name": "uid",
          "type": "bytes20"
        },
        {
          "internalType": "bytes",
          "name": "auth",
          "type": "bytes"
        }
      ],
      "name": "deleteDIDByAgent",
      "outputs": [],
      "payable": false,
      "stateMutability": "nonpayable",
      "type": "function"
    }
  ],
  "bytecode": "0x60806040523480156200001157600080fd5b50604051620058d8380380620058d8833981810160405260208110156200003757600080fd5b8101908080519060200190929190505050806040518060400160405280600c81526020017f6469643a696f3a7563616d3a0000000000000000000000000000000000000000815250336000806101000a81548173ffffffffffffffffffffffffffffffffffffffff021916908373ffffffffffffffffffffffffffffffffffffffff160217905550600073ffffffffffffffffffffffffffffffffffffffff168273ffffffffffffffffffffffffffffffffffffffff161415620001da5780604051620001049062000225565b8080602001828103825283818151815260200191508051906020019080838360005b838110156200014357808201518184015260208101905062000126565b50505050905090810190601f168015620001715780820380516001836020036101000a031916815260200191505b5092505050604051809103906000f08015801562000193573d6000803e3d6000fd5b50600160006101000a81548173ffffffffffffffffffffffffffffffffffffffff021916908373ffffffffffffffffffffffffffffffffffffffff1602179055506200021c565b81600160006101000a81548173ffffffffffffffffffffffffffffffffffffffff021916908373ffffffffffffffffffffffffffffffffffffffff1602179055505b50505062000233565b610e948062004a4483390190565b61480180620002436000396000f3fe608060405234801561001057600080fd5b50600436106100ea5760003560e01c8063b00140aa1161008c578063cc3b41dc11610066578063cc3b41dc14610a10578063d9d5060714610c05578063dd12015314610cd9578063f2fde38b14610ece576100ea565b8063b00140aa14610759578063b102bfbe14610828578063bf6d313914610923576100ea565b80634d655aff116100c85780634d655aff1461041c5780638626dea9146104665780638da5cb5b1461059a57806398793984146105e4576100ea565b806332aad017146100ef5780633bdcb26c146101335780633dc7ad0214610287575b600080fd5b6101316004803603602081101561010557600080fd5b81019080803573ffffffffffffffffffffffffffffffffffffffff169060200190929190505050610f12565b005b61020c6004803603604081101561014957600080fd5b810190808035906020019064010000000081111561016657600080fd5b82018360208201111561017857600080fd5b8035906020019184600183028401116401000000008311171561019a57600080fd5b91908080601f016020809104026020016040519081016040528093929190818152602001838380828437600081840152601f19601f820116905080830192505050505050509192919290803573ffffffffffffffffffffffffffffffffffffffff169060200190929190505050611027565b6040518080602001828103825283818151815260200191508051906020019080838360005b8381101561024c578082015181840152602081019050610231565b50505050905090810190601f1680156102795780820380516001836020036101000a031916815260200191505b509250505060405180910390f35b61041a600480360360a081101561029d57600080fd5b8101908080356bffffffffffffffffffffffff1916906020019092919080359060200190929190803590602001906401000000008111156102dd57600080fd5b8201836020820111156102ef57600080fd5b8035906020019184600183028401116401000000008311171561031157600080fd5b91908080601f016020809104026020016040519081016040528093929190818152602001838380828437600081840152601f19601f820116905080830192505050505050509192919290803573ffffffffffffffffffffffffffffffffffffffff1690602001909291908035906020019064010000000081111561039457600080fd5b8201836020820111156103a657600080fd5b803590602001918460018302840111640100000000831117156103c857600080fd5b91908080601f016020809104026020016040519081016040528093929190818152602001838380828437600081840152601f19601f8201169050808301925050505050505091929192905050506111ca565b005b610424611492565b604051808273ffffffffffffffffffffffffffffffffffffffff1673ffffffffffffffffffffffffffffffffffffffff16815260200191505060405180910390f35b61051f6004803603602081101561047c57600080fd5b810190808035906020019064010000000081111561049957600080fd5b8201836020820111156104ab57600080fd5b803590602001918460018302840111640100000000831117156104cd57600080fd5b91908080601f016020809104026020016040519081016040528093929190818152602001838380828437600081840152601f19601f8201169050808301925050505050505091929192905050506114b8565b6040518080602001828103825283818151815260200191508051906020019080838360005b8381101561055f578082015181840152602081019050610544565b50505050905090810190601f16801561058c5780820380516001836020036101000a031916815260200191505b509250505060405180910390f35b6105a26117b3565b604051808273ffffffffffffffffffffffffffffffffffffffff1673ffffffffffffffffffffffffffffffffffffffff16815260200191505060405180910390f35b610757600480360360808110156105fa57600080fd5b8101908080356bffffffffffffffffffffffff19169060200190929190803590602001909291908035906020019064010000000081111561063a57600080fd5b82018360208201111561064c57600080fd5b8035906020019184600183028401116401000000008311171561066e57600080fd5b91908080601f016020809104026020016040519081016040528093929190818152602001838380828437600081840152601f19601f820116905080830192505050505050509192919290803590602001906401000000008111156106d157600080fd5b8201836020820111156106e357600080fd5b8035906020019184600183028401116401000000008311171561070557600080fd5b91908080601f016020809104026020016040519081016040528093929190818152602001838380828437600081840152601f19601f8201169050808301925050505050505091929192905050506117d8565b005b6108126004803603602081101561076f57600080fd5b810190808035906020019064010000000081111561078c57600080fd5b82018360208201111561079e57600080fd5b803590602001918460018302840111640100000000831117156107c057600080fd5b91908080601f016020809104026020016040519081016040528093929190818152602001838380828437600081840152601f19601f820116905080830192505050505050509192919290505050611a53565b6040518082815260200191505060405180910390f35b6108e16004803603602081101561083e57600080fd5b810190808035906020019064010000000081111561085b57600080fd5b82018360208201111561086d57600080fd5b8035906020019184600183028401116401000000008311171561088f57600080fd5b91908080601f016020809104026020016040519081016040528093929190818152602001838380828437600081840152601f19601f820116905080830192505050505050509192919290505050611d4d565b604051808273ffffffffffffffffffffffffffffffffffffffff1673ffffffffffffffffffffffffffffffffffffffff16815260200191505060405180910390f35b6109dc6004803603602081101561093957600080fd5b810190808035906020019064010000000081111561095657600080fd5b82018360208201111561096857600080fd5b8035906020019184600183028401116401000000008311171561098a57600080fd5b91908080601f016020809104026020016040519081016040528093929190818152602001838380828437600081840152601f19601f820116905080830192505050505050509192919290505050612047565b60405180826bffffffffffffffffffffffff19166bffffffffffffffffffffffff1916815260200191505060405180910390f35b610b8a60048036036080811015610a2657600080fd5b8101908080359060200190640100000000811115610a4357600080fd5b820183602082011115610a5557600080fd5b80359060200191846001830284011164010000000083111715610a7757600080fd5b91908080601f016020809104026020016040519081016040528093929190818152602001838380828437600081840152601f19601f8201169050808301925050505050505091929192908035906020019092919080359060200190640100000000811115610ae457600080fd5b820183602082011115610af657600080fd5b80359060200191846001830284011164010000000083111715610b1857600080fd5b91908080601f016020809104026020016040519081016040528093929190818152602001838380828437600081840152601f19601f820116905080830192505050505050509192919290803573ffffffffffffffffffffffffffffffffffffffff16906020019092919050505061265f565b6040518080602001828103825283818151815260200191508051906020019080838360005b83811015610bca578082015181840152602081019050610baf565b50505050905090810190601f168015610bf75780820380516001836020036101000a031916815260200191505b509250505060405180910390f35b610cd760048036036040811015610c1b57600080fd5b8101908080356bffffffffffffffffffffffff1916906020019092919080359060200190640100000000811115610c5157600080fd5b820183602082011115610c6357600080fd5b80359060200191846001830284011164010000000083111715610c8557600080fd5b91908080601f016020809104026020016040519081016040528093929190818152602001838380828437600081840152601f19601f8201169050808301925050505050505091929192905050506128d7565b005b610e5360048036036080811015610cef57600080fd5b8101908080359060200190640100000000811115610d0c57600080fd5b820183602082011115610d1e57600080fd5b80359060200191846001830284011164010000000083111715610d4057600080fd5b91908080601f016020809104026020016040519081016040528093929190818152602001838380828437600081840152601f19601f8201169050808301925050505050505091929192908035906020019092919080359060200190640100000000811115610dad57600080fd5b820183602082011115610dbf57600080fd5b80359060200191846001830284011164010000000083111715610de157600080fd5b91908080601f016020809104026020016040519081016040528093929190818152602001838380828437600081840152601f19601f820116905080830192505050505050509192919290803573ffffffffffffffffffffffffffffffffffffffff169060200190929190505050612b4c565b6040518080602001828103825283818151815260200191508051906020019080838360005b83811015610e93578082015181840152602081019050610e78565b50505050905090810190601f168015610ec05780820380516001836020036101000a031916815260200191505b509250505060405180910390f35b610f1060048036036020811015610ee457600080fd5b81019080803573ffffffffffffffffffffffffffffffffffffffff169060200190929190505050612dc4565b005b6000809054906101000a900473ffffffffffffffffffffffffffffffffffffffff1673ffffffffffffffffffffffffffffffffffffffff163373ffffffffffffffffffffffffffffffffffffffff1614610f6b57600080fd5b600160009054906101000a900473ffffffffffffffffffffffffffffffffffffffff1673ffffffffffffffffffffffffffffffffffffffff1663f2fde38b826040518263ffffffff1660e01b8152600401808273ffffffffffffffffffffffffffffffffffffffff1673ffffffffffffffffffffffffffffffffffffffff168152602001915050600060405180830381600087803b15801561100c57600080fd5b505af1158015611020573d6000803e3d6000fd5b5050505050565b606061103282612f15565b8361103c30612f15565b60405160200180807f4920617574686f72697a65200000000000000000000000000000000000000000815250600c0184805190602001908083835b6020831061109a5780518252602082019150602081019050602083039250611077565b6001836020036101000a038019825116818451168082178552505050505050905001807f20746f2064656c65746520444944200000000000000000000000000000000000815250600f0183805190602001908083835b6020831061111357805182526020820191506020810190506020830392506110f0565b6001836020036101000a038019825116818451168082178552505050505050905001807f20696e20636f6e74726163742000000000000000000000000000000000000000815250600d0182805190602001908083835b6020831061118c5780518252602082019150602081019050602083039250611169565b6001836020036101000a0380198251168184511680821785525050505050509050019350505050604051602081830303815290604052905092915050565b60606111d586613196565b90507fd8389dc559aa0a8c6ffecc778865159cea397fa8c1cba3db9a4d0a8be374d662856040518082815260200191505060405180910390a17fc2e4ade20a5f1daea9f42d6cb965479b9d5b1819940df0dae836b698513423d9816040518080602001828103825283818151815260200191508051906020019080838360005b83811015611270578082015181840152602081019050611255565b50505050905090810190601f16801561129d5780820380516001836020036101000a031916815260200191505b509250505060405180910390a17f4420e4869750c98a56ac621854d2d00e598698ac87193cdfcbb6ed1164e9cbcd6112e06112da8388883361265f565b84613390565b604051808273ffffffffffffffffffffffffffffffffffffffff1673ffffffffffffffffffffffffffffffffffffffff16815260200191505060405180910390a17f47e6302b843e320d72a50f9412a09b8ccad6d33294db9cd968bd13e90e16e50861134e8287873361265f565b6040518080602001828103825283818151815260200191508051906020019080838360005b8381101561138e578082015181840152602081019050611373565b50505050905090810190601f1680156113bb5780820380516001836020036101000a031916815260200191505b509250505060405180910390a16113dd6113d78287873361265f565b83613390565b73ffffffffffffffffffffffffffffffffffffffff168373ffffffffffffffffffffffffffffffffffffffff161461147d576040517f08c379a00000000000000000000000000000000000000000000000000000000081526004018080602001828103825260118152602001807f696e76616c6964207369676e617475726500000000000000000000000000000081525060200191505060405180910390fd5b61148a8187858888613499565b505050505050565b600160009054906101000a900473ffffffffffffffffffffffffffffffffffffffff1681565b606060006114c583612047565b9050600160009054906101000a900473ffffffffffffffffffffffffffffffffffffffff1673ffffffffffffffffffffffffffffffffffffffff1663430e0aee826040518263ffffffff1660e01b815260040180826bffffffffffffffffffffffff19166bffffffffffffffffffffffff1916815260200191505060206040518083038186803b15801561155857600080fd5b505afa15801561156c573d6000803e3d6000fd5b505050506040513d602081101561158257600080fd5b8101908080519060200190929190505050611605576040517f08c379a00000000000000000000000000000000000000000000000000000000081526004018080602001828103825260128152602001807f44494420646f6573206e6f74206578697374000000000000000000000000000081525060200191505060405180910390fd5b6060600160009054906101000a900473ffffffffffffffffffffffffffffffffffffffff1673ffffffffffffffffffffffffffffffffffffffff16635acecc78836040518263ffffffff1660e01b815260040180826bffffffffffffffffffffffff19166bffffffffffffffffffffffff1916815260200191505060006040518083038186803b15801561169857600080fd5b505afa1580156116ac573d6000803e3d6000fd5b505050506040513d6000823e3d601f19601f8201168201806040525060608110156116d657600080fd5b8101908080519060200190929190805190602001909291908051604051939291908464010000000082111561170a57600080fd5b8382019150602082018581111561172057600080fd5b825186600182028301116401000000008211171561173d57600080fd5b8083526020830192505050908051906020019080838360005b83811015611771578082015181840152602081019050611756565b50505050905090810190601f16801561179e5780820380516001836020036101000a031916815260200191505b50604052505050925050508092505050919050565b6000809054906101000a900473ffffffffffffffffffffffffffffffffffffffff1681565b60606117e385613196565b90506000600160009054906101000a900473ffffffffffffffffffffffffffffffffffffffff1673ffffffffffffffffffffffffffffffffffffffff16635acecc78876040518263ffffffff1660e01b815260040180826bffffffffffffffffffffffff19166bffffffffffffffffffffffff1916815260200191505060006040518083038186803b15801561187857600080fd5b505afa15801561188c573d6000803e3d6000fd5b505050506040513d6000823e3d601f19601f8201168201806040525060608110156118b657600080fd5b810190808051906020019092919080519060200190929190805160405193929190846401000000008211156118ea57600080fd5b8382019150602082018581111561190057600080fd5b825186600182028301116401000000008211171561191d57600080fd5b8083526020830192505050908051906020019080838360005b83811015611951578082015181840152602081019050611936565b50505050905090810190601f16801561197e5780820380516001836020036101000a031916815260200191505b506040525050505050905061199e61199883878733612b4c565b84613390565b73ffffffffffffffffffffffffffffffffffffffff163373ffffffffffffffffffffffffffffffffffffffff1614611a3e576040517f08c379a00000000000000000000000000000000000000000000000000000000081526004018080602001828103825260118152602001807f696e76616c6964207369676e617475726500000000000000000000000000000081525060200191505060405180910390fd5b611a4b8287838888613868565b505050505050565b600080611a5f83612047565b9050600160009054906101000a900473ffffffffffffffffffffffffffffffffffffffff1673ffffffffffffffffffffffffffffffffffffffff1663430e0aee826040518263ffffffff1660e01b815260040180826bffffffffffffffffffffffff19166bffffffffffffffffffffffff1916815260200191505060206040518083038186803b158015611af257600080fd5b505afa158015611b06573d6000803e3d6000fd5b505050506040513d6020811015611b1c57600080fd5b8101908080519060200190929190505050611b9f576040517f08c379a00000000000000000000000000000000000000000000000000000000081526004018080602001828103825260128152602001807f44494420646f6573206e6f74206578697374000000000000000000000000000081525060200191505060405180910390fd5b6000600160009054906101000a900473ffffffffffffffffffffffffffffffffffffffff1673ffffffffffffffffffffffffffffffffffffffff16635acecc78836040518263ffffffff1660e01b815260040180826bffffffffffffffffffffffff19166bffffffffffffffffffffffff1916815260200191505060006040518083038186803b158015611c3257600080fd5b505afa158015611c46573d6000803e3d6000fd5b505050506040513d6000823e3d601f19601f820116820180604052506060811015611c7057600080fd5b81019080805190602001909291908051906020019092919080516040519392919084640100000000821115611ca457600080fd5b83820191506020820185811115611cba57600080fd5b8251866001820283011164010000000082111715611cd757600080fd5b8083526020830192505050908051906020019080838360005b83811015611d0b578082015181840152602081019050611cf0565b50505050905090810190601f168015611d385780820380516001836020036101000a031916815260200191505b50604052505050509150508092505050919050565b600080611d5983612047565b9050600160009054906101000a900473ffffffffffffffffffffffffffffffffffffffff1673ffffffffffffffffffffffffffffffffffffffff1663430e0aee826040518263ffffffff1660e01b815260040180826bffffffffffffffffffffffff19166bffffffffffffffffffffffff1916815260200191505060206040518083038186803b158015611dec57600080fd5b505afa158015611e00573d6000803e3d6000fd5b505050506040513d6020811015611e1657600080fd5b8101908080519060200190929190505050611e99576040517f08c379a00000000000000000000000000000000000000000000000000000000081526004018080602001828103825260128152602001807f44494420646f6573206e6f74206578697374000000000000000000000000000081525060200191505060405180910390fd5b6000600160009054906101000a900473ffffffffffffffffffffffffffffffffffffffff1673ffffffffffffffffffffffffffffffffffffffff16635acecc78836040518263ffffffff1660e01b815260040180826bffffffffffffffffffffffff19166bffffffffffffffffffffffff1916815260200191505060006040518083038186803b158015611f2c57600080fd5b505afa158015611f40573d6000803e3d6000fd5b505050506040513d6000823e3d601f19601f820116820180604052506060811015611f6a57600080fd5b81019080805190602001909291908051906020019092919080516040519392919084640100000000821115611f9e57600080fd5b83820191506020820185811115611fb457600080fd5b8251866001820283011164010000000082111715611fd157600080fd5b8083526020830192505050908051906020019080838360005b83811015612005578082015181840152602081019050611fea565b50505050905090810190601f1680156120325780820380516001836020036101000a031916815260200191505b50604052505050505090508092505050919050565b60006121b382600160009054906101000a900473ffffffffffffffffffffffffffffffffffffffff1673ffffffffffffffffffffffffffffffffffffffff166312d05d3d6040518163ffffffff1660e01b815260040160006040518083038186803b1580156120b557600080fd5b505afa1580156120c9573d6000803e3d6000fd5b505050506040513d6000823e3d601f19601f8201168201806040525060208110156120f357600080fd5b810190808051604051939291908464010000000082111561211357600080fd5b8382019150602082018581111561212957600080fd5b825186600182028301116401000000008211171561214657600080fd5b8083526020830192505050908051906020019080838360005b8381101561217a57808201518184015260208101905061215f565b50505050905090810190601f1680156121a75780820380516001836020036101000a031916815260200191505b50604052505050613e70565b612225576040517f08c379a000000000000000000000000000000000000000000000000000000000815260040180806020018281038252600b8152602001807f696e76616c69642044494400000000000000000000000000000000000000000081525060200191505060405180910390fd5b606061239283600160009054906101000a900473ffffffffffffffffffffffffffffffffffffffff1673ffffffffffffffffffffffffffffffffffffffff166312d05d3d6040518163ffffffff1660e01b815260040160006040518083038186803b15801561229357600080fd5b505afa1580156122a7573d6000803e3d6000fd5b505050506040513d6000823e3d601f19601f8201168201806040525060208110156122d157600080fd5b81019080805160405193929190846401000000008211156122f157600080fd5b8382019150602082018581111561230757600080fd5b825186600182028301116401000000008211171561232457600080fd5b8083526020830192505050908051906020019080838360005b8381101561235857808201518184015260208101905061233d565b50505050905090810190601f1680156123855780820380516001836020036101000a031916815260200191505b5060405250505051613f2d565b9050602881511461240b576040517f08c379a000000000000000000000000000000000000000000000000000000000815260040180806020018281038252600b8152602001807f696e76616c69642044494400000000000000000000000000000000000000000081525060200191505060405180910390fd5b600080905060008060008090505b602881101561264f576101008402935084818151811061243557fe5b602001015160f81c60f81b60f81c60ff16925084600182018151811061245757fe5b602001015160f81c60f81b60f81c60ff16915060618373ffffffffffffffffffffffffffffffffffffffff16101580156124a8575060668373ffffffffffffffffffffffffffffffffffffffff1611155b156124b857605783039250612552565b60308373ffffffffffffffffffffffffffffffffffffffff16101580156124f6575060398373ffffffffffffffffffffffffffffffffffffffff1611155b1561250657603083039250612551565b60418373ffffffffffffffffffffffffffffffffffffffff1610158015612544575060468373ffffffffffffffffffffffffffffffffffffffff1611155b15612550576037830392505b5b5b60618273ffffffffffffffffffffffffffffffffffffffff1610158015612590575060668273ffffffffffffffffffffffffffffffffffffffff1611155b156125a05760578203915061263a565b60308273ffffffffffffffffffffffffffffffffffffffff16101580156125de575060398273ffffffffffffffffffffffffffffffffffffffff1611155b156125ee57603082039150612639565b60418273ffffffffffffffffffffffffffffffffffffffff161015801561262c575060468273ffffffffffffffffffffffffffffffffffffffff1611155b15612638576037820391505b5b5b81601084020184019350600281019050612419565b508260601b945050505050919050565b606061266a82612f15565b8561267430612f15565b868660405160200180807f4920617574686f72697a65200000000000000000000000000000000000000000815250600c0186805190602001908083835b602083106126d457805182526020820191506020810190506020830392506126b1565b6001836020036101000a038019825116818451168082178552505050505050905001807f20746f2063726561746520444944200000000000000000000000000000000000815250600f0185805190602001908083835b6020831061274d578051825260208201915060208101905060208303925061272a565b6001836020036101000a038019825116818451168082178552505050505050905001807f20696e20636f6e7472616374207769746820000000000000000000000000000081525060120184805190602001908083835b602083106127c657805182526020820191506020810190506020830392506127a3565b6001836020036101000a038019825116818451168082178552505050505050905001807f2028000000000000000000000000000000000000000000000000000000000000815250600201838152602001807f2c2000000000000000000000000000000000000000000000000000000000000081525060020182805190602001908083835b6020831061286d578051825260208201915060208101905060208303925061284a565b6001836020036101000a038019825116818451168082178552505050505050905001807f2900000000000000000000000000000000000000000000000000000000000000815250600101955050505050506040516020818303038152906040529050949350505050565b60606128e283613196565b90506000600160009054906101000a900473ffffffffffffffffffffffffffffffffffffffff1673ffffffffffffffffffffffffffffffffffffffff16635acecc78856040518263ffffffff1660e01b815260040180826bffffffffffffffffffffffff19166bffffffffffffffffffffffff1916815260200191505060006040518083038186803b15801561297757600080fd5b505afa15801561298b573d6000803e3d6000fd5b505050506040513d6000823e3d601f19601f8201168201806040525060608110156129b557600080fd5b810190808051906020019092919080519060200190929190805160405193929190846401000000008211156129e957600080fd5b838201915060208201858111156129ff57600080fd5b8251866001820283011164010000000082111715612a1c57600080fd5b8083526020830192505050908051906020019080838360005b83811015612a50578082015181840152602081019050612a35565b50505050905090810190601f168015612a7d5780820380516001836020036101000a031916815260200191505b5060405250505050509050612a9b612a958333611027565b84613390565b73ffffffffffffffffffffffffffffffffffffffff163373ffffffffffffffffffffffffffffffffffffffff1614612b3b576040517f08c379a00000000000000000000000000000000000000000000000000000000081526004018080602001828103825260118152602001807f696e76616c6964207369676e617475726500000000000000000000000000000081525060200191505060405180910390fd5b612b46828583614028565b50505050565b6060612b5782612f15565b85612b6130612f15565b868660405160200180807f4920617574686f72697a65200000000000000000000000000000000000000000815250600c0186805190602001908083835b60208310612bc15780518252602082019150602081019050602083039250612b9e565b6001836020036101000a038019825116818451168082178552505050505050905001807f20746f2075706461746520444944200000000000000000000000000000000000815250600f0185805190602001908083835b60208310612c3a5780518252602082019150602081019050602083039250612c17565b6001836020036101000a038019825116818451168082178552505050505050905001807f20696e20636f6e747261637420746f200000000000000000000000000000000081525060100184805190602001908083835b60208310612cb35780518252602082019150602081019050602083039250612c90565b6001836020036101000a038019825116818451168082178552505050505050905001807f2028000000000000000000000000000000000000000000000000000000000000815250600201838152602001807f2c2000000000000000000000000000000000000000000000000000000000000081525060020182805190602001908083835b60208310612d5a5780518252602082019150602081019050602083039250612d37565b6001836020036101000a038019825116818451168082178552505050505050905001807f2900000000000000000000000000000000000000000000000000000000000000815250600101955050505050506040516020818303038152906040529050949350505050565b6000809054906101000a900473ffffffffffffffffffffffffffffffffffffffff1673ffffffffffffffffffffffffffffffffffffffff163373ffffffffffffffffffffffffffffffffffffffff1614612e1d57600080fd5b600073ffffffffffffffffffffffffffffffffffffffff168173ffffffffffffffffffffffffffffffffffffffff161415612e5757600080fd5b8073ffffffffffffffffffffffffffffffffffffffff166000809054906101000a900473ffffffffffffffffffffffffffffffffffffffff1673ffffffffffffffffffffffffffffffffffffffff167f8be0079c531659141344cd1fd0a4f28419497f9722a3daafe3b4186f6b6457e060405160405180910390a3806000806101000a81548173ffffffffffffffffffffffffffffffffffffffff021916908373ffffffffffffffffffffffffffffffffffffffff16021790555050565b606060008273ffffffffffffffffffffffffffffffffffffffff1660001b905060606040518060400160405280601081526020017f303132333435363738396162636465660000000000000000000000000000000081525090506060602a6040519080825280601f01601f191660200182016040528015612fa55781602001600182028038833980820191505090505b5090507f300000000000000000000000000000000000000000000000000000000000000081600081518110612fd657fe5b60200101907effffffffffffffffffffffffffffffffffffffffffffffffffffffffffffff1916908160001a9053507f78000000000000000000000000000000000000000000000000000000000000008160018151811061303357fe5b60200101907effffffffffffffffffffffffffffffffffffffffffffffffffffffffffffff1916908160001a90535060008090505b601481101561318a5782600485600c84016020811061308357fe5b1a60f81b7effffffffffffffffffffffffffffffffffffffffffffffffffffffffffffff1916901c60f81c60ff16815181106130bb57fe5b602001015160f81c60f81b8260028302600201815181106130d857fe5b60200101907effffffffffffffffffffffffffffffffffffffffffffffffffffffffffffff1916908160001a90535082600f60f81b85600c84016020811061311c57fe5b1a60f81b1660f81c60ff168151811061313157fe5b602001015160f81c60f81b82600283026003018151811061314e57fe5b60200101907effffffffffffffffffffffffffffffffffffffffffffffffffffffffffffff1916908160001a9053508080600101915050613068565b50809350505050919050565b6060600160009054906101000a900473ffffffffffffffffffffffffffffffffffffffff1673ffffffffffffffffffffffffffffffffffffffff166312d05d3d6040518163ffffffff1660e01b815260040160006040518083038186803b15801561320057600080fd5b505afa158015613214573d6000803e3d6000fd5b505050506040513d6000823e3d601f19601f82011682018060405250602081101561323e57600080fd5b810190808051604051939291908464010000000082111561325e57600080fd5b8382019150602082018581111561327457600080fd5b825186600182028301116401000000008211171561329157600080fd5b8083526020830192505050908051906020019080838360005b838110156132c55780820151818401526020810190506132aa565b50505050905090810190601f1680156132f25780820380516001836020036101000a031916815260200191505b50604052505050826040516020018083805190602001908083835b60208310613330578051825260208201915060208101905060208303925061330d565b6001836020036101000a038019825116818451168082178552505050505050905001826bffffffffffffffffffffffff19166bffffffffffffffffffffffff19168152601401925050506040516020818303038152906040529050919050565b600061349161339f84516145bd565b8460405160200180807f19457468657265756d205369676e6564204d6573736167653a0a000000000000815250601a0183805190602001908083835b602083106133fe57805182526020820191506020810190506020830392506133db565b6001836020036101000a03801982511681845116808217855250505050505090500182805190602001908083835b6020831061344f578051825260208201915060208101905060208303925061342c565b6001836020036101000a0380198251168184511680821785525050505050509050019250505060405160208183030381529060405280519060200120836146ea565b905092915050565b600160009054906101000a900473ffffffffffffffffffffffffffffffffffffffff1673ffffffffffffffffffffffffffffffffffffffff1663430e0aee856040518263ffffffff1660e01b815260040180826bffffffffffffffffffffffff19166bffffffffffffffffffffffff1916815260200191505060206040518083038186803b15801561352a57600080fd5b505afa15801561353e573d6000803e3d6000fd5b505050506040513d602081101561355457600080fd5b8101908080519060200190929190505050156135d8576040517f08c379a000000000000000000000000000000000000000000000000000000000815260040180806020018281038252600d8152602001807f6475706c6963617465204449440000000000000000000000000000000000000081525060200191505060405180910390fd5b600160009054906101000a900473ffffffffffffffffffffffffffffffffffffffff1673ffffffffffffffffffffffffffffffffffffffff166348cab05b8560018686866040518663ffffffff1660e01b815260040180866bffffffffffffffffffffffff19166bffffffffffffffffffffffff19168152602001851515151581526020018473ffffffffffffffffffffffffffffffffffffffff1673ffffffffffffffffffffffffffffffffffffffff16815260200183815260200180602001828103825283818151815260200191508051906020019080838360005b838110156136d15780820151818401526020810190506136b6565b50505050905090810190601f1680156136fe5780820380516001836020036101000a031916815260200191505b509650505050505050600060405180830381600087803b15801561372157600080fd5b505af1158015613735573d6000803e3d6000fd5b505050508273ffffffffffffffffffffffffffffffffffffffff167f0a36151ef7283a91a6a8d052cd44a0c20f8c7207decf22d985eba8eb0a5a268b868484604051808060200184815260200180602001838103835286818151815260200191508051906020019080838360005b838110156137be5780820151818401526020810190506137a3565b50505050905090810190601f1680156137eb5780820380516001836020036101000a031916815260200191505b50838103825284818151815260200191508051906020019080838360005b83811015613824578082015181840152602081019050613809565b50505050905090810190601f1680156138515780820380516001836020036101000a031916815260200191505b509550505050505060405180910390a25050505050565b600160009054906101000a900473ffffffffffffffffffffffffffffffffffffffff1673ffffffffffffffffffffffffffffffffffffffff1663430e0aee856040518263ffffffff1660e01b815260040180826bffffffffffffffffffffffff19166bffffffffffffffffffffffff1916815260200191505060206040518083038186803b1580156138f957600080fd5b505afa15801561390d573d6000803e3d6000fd5b505050506040513d602081101561392357600080fd5b81019080805190602001909291905050506139a6576040517f08c379a00000000000000000000000000000000000000000000000000000000081526004018080602001828103825260128152602001807f44494420646f6573206e6f74206578697374000000000000000000000000000081525060200191505060405180910390fd5b6000600160009054906101000a900473ffffffffffffffffffffffffffffffffffffffff1673ffffffffffffffffffffffffffffffffffffffff16635acecc78866040518263ffffffff1660e01b815260040180826bffffffffffffffffffffffff19166bffffffffffffffffffffffff1916815260200191505060006040518083038186803b158015613a3957600080fd5b505afa158015613a4d573d6000803e3d6000fd5b505050506040513d6000823e3d601f19601f820116820180604052506060811015613a7757600080fd5b81019080805190602001909291908051906020019092919080516040519392919084640100000000821115613aab57600080fd5b83820191506020820185811115613ac157600080fd5b8251866001820283011164010000000082111715613ade57600080fd5b8083526020830192505050908051906020019080838360005b83811015613b12578082015181840152602081019050613af7565b50505050905090810190601f168015613b3f5780820380516001836020036101000a031916815260200191505b50604052505050505090508373ffffffffffffffffffffffffffffffffffffffff168173ffffffffffffffffffffffffffffffffffffffff1614613beb576040517f08c379a000000000000000000000000000000000000000000000000000000000815260040180806020018281038252600d8152602001807f6e6f207065726d697373696f6e0000000000000000000000000000000000000081525060200191505060405180910390fd5b600160009054906101000a900473ffffffffffffffffffffffffffffffffffffffff1673ffffffffffffffffffffffffffffffffffffffff166348cab05b8660018787876040518663ffffffff1660e01b815260040180866bffffffffffffffffffffffff19166bffffffffffffffffffffffff19168152602001851515151581526020018473ffffffffffffffffffffffffffffffffffffffff1673ffffffffffffffffffffffffffffffffffffffff16815260200183815260200180602001828103825283818151815260200191508051906020019080838360005b83811015613ce4578082015181840152602081019050613cc9565b50505050905090810190601f168015613d115780820380516001836020036101000a031916815260200191505b509650505050505050600060405180830381600087803b158015613d3457600080fd5b505af1158015613d48573d6000803e3d6000fd5b50505050856040518082805190602001908083835b60208310613d805780518252602082019150602081019050602083039250613d5d565b6001836020036101000a03801982511681845116808217855250505050505090500191505060405180910390208473ffffffffffffffffffffffffffffffffffffffff167f30665598c4da8be2cccefb7fe32a379decd1eae407564569a8e95b51e3afccd785856040518083815260200180602001828103825283818151815260200191508051906020019080838360005b83811015613e2d578082015181840152602081019050613e12565b50505050905090810190601f168015613e5a5780820380516001836020036101000a031916815260200191505b50935050505060405180910390a3505050505050565b60008151835111613e845760009050613f27565b60008090505b8251811015613f2157838181518110613e9f57fe5b602001015160f81c60f81b7effffffffffffffffffffffffffffffffffffffffffffffffffffffffffffff1916838281518110613ed857fe5b602001015160f81c60f81b7effffffffffffffffffffffffffffffffffffffffffffffffffffffffffffff191614613f14576000915050613f27565b8080600101915050613e8a565b50600190505b92915050565b60608183511015613fa6576040517f08c379a00000000000000000000000000000000000000000000000000000000081526004018080602001828103825260128152602001807f52656164206f7574206f6620626f756e6473000000000000000000000000000081525060200191505060405180910390fd5b60008284510390506060811560008114613fcb5760405191506020820160405261401c565b6040519150601f8316801560200281840101848101878315602002848b0101015b818310156140095780518352602083019250602081019050613fec565b50858552601f19601f8301166040525050505b50809250505092915050565b600160009054906101000a900473ffffffffffffffffffffffffffffffffffffffff1673ffffffffffffffffffffffffffffffffffffffff1663430e0aee836040518263ffffffff1660e01b815260040180826bffffffffffffffffffffffff19166bffffffffffffffffffffffff1916815260200191505060206040518083038186803b1580156140b957600080fd5b505afa1580156140cd573d6000803e3d6000fd5b505050506040513d60208110156140e357600080fd5b8101908080519060200190929190505050614166576040517f08c379a00000000000000000000000000000000000000000000000000000000081526004018080602001828103825260128152602001807f44494420646f6573206e6f74206578697374000000000000000000000000000081525060200191505060405180910390fd5b6000806060600160009054906101000a900473ffffffffffffffffffffffffffffffffffffffff1673ffffffffffffffffffffffffffffffffffffffff16635acecc78866040518263ffffffff1660e01b815260040180826bffffffffffffffffffffffff19166bffffffffffffffffffffffff1916815260200191505060006040518083038186803b1580156141fc57600080fd5b505afa158015614210573d6000803e3d6000fd5b505050506040513d6000823e3d601f19601f82011682018060405250606081101561423a57600080fd5b8101908080519060200190929190805190602001909291908051604051939291908464010000000082111561426e57600080fd5b8382019150602082018581111561428457600080fd5b82518660018202830111640100000000821117156142a157600080fd5b8083526020830192505050908051906020019080838360005b838110156142d55780820151818401526020810190506142ba565b50505050905090810190601f1680156143025780820380516001836020036101000a031916815260200191505b506040525050509250925092508373ffffffffffffffffffffffffffffffffffffffff168373ffffffffffffffffffffffffffffffffffffffff16146143b0576040517f08c379a000000000000000000000000000000000000000000000000000000000815260040180806020018281038252600d8152602001807f6e6f207065726d697373696f6e0000000000000000000000000000000000000081525060200191505060405180910390fd5b600160009054906101000a900473ffffffffffffffffffffffffffffffffffffffff1673ffffffffffffffffffffffffffffffffffffffff166348cab05b8660008786866040518663ffffffff1660e01b815260040180866bffffffffffffffffffffffff19166bffffffffffffffffffffffff19168152602001851515151581526020018473ffffffffffffffffffffffffffffffffffffffff1673ffffffffffffffffffffffffffffffffffffffff16815260200183815260200180602001828103825283818151815260200191508051906020019080838360005b838110156144a957808201518184015260208101905061448e565b50505050905090810190601f1680156144d65780820380516001836020036101000a031916815260200191505b509650505050505050600060405180830381600087803b1580156144f957600080fd5b505af115801561450d573d6000803e3d6000fd5b50505050856040518082805190602001908083835b602083106145455780518252602082019150602081019050602083039250614522565b6001836020036101000a03801982511681845116808217855250505050505090500191505060405180910390203373ffffffffffffffffffffffffffffffffffffffff167f56c5173d83675a7f2b174113df9205152eb36c65ab39e41d5d1b8d9cb88eabd260405160405180910390a3505050505050565b60606000821415614605576040518060400160405280600181526020017f300000000000000000000000000000000000000000000000000000000000000081525090506146e5565b600082905060005b6000821461462f578080600101915050600a828161462757fe5b04915061460d565b6060816040519080825280601f01601f1916602001820160405280156146645781602001600182028038833980820191505090505b50905060006001830390505b600086146146dd57600a868161468257fe5b0660300160f81b8282806001900393508151811061469c57fe5b60200101907effffffffffffffffffffffffffffffffffffffffffffffffffffffffffffff1916908160001a905350600a86816146d557fe5b049550614670565b819450505050505b919050565b600080600080604185511461470557600093505050506147c6565b6020850151925060408501519150606085015160001a9050601b8160ff16101561473057601b810190505b601b8160ff16141580156147485750601c8160ff1614155b1561475957600093505050506147c6565b60018682858560405160008152602001604052604051808581526020018460ff1660ff1681526020018381526020018281526020019450505050506020604051602081039080840390855afa1580156147b6573d6000803e3d6000fd5b5050506020604051035193505050505b9291505056fea265627a7a72315820f5704689b6fa1861e8a2ffebb0140e64c4bb0816eac371a5d9b1e65f1ac79da564736f6c6343000510003260806040523480156200001157600080fd5b5060405162000e9438038062000e94833981810160405260208110156200003757600080fd5b81019080805160405193929190846401000000008211156200005857600080fd5b838201915060208201858111156200006f57600080fd5b82518660018202830111640100000000821117156200008d57600080fd5b8083526020830192505050908051906020019080838360005b83811015620000c3578082015181840152602081019050620000a6565b50505050905090810190601f168015620000f15780820380516001836020036101000a031916815260200191505b50604052505050336000806101000a81548173ffffffffffffffffffffffffffffffffffffffff021916908373ffffffffffffffffffffffffffffffffffffffff16021790555062000149816200015060201b60201c565b5062000275565b6000809054906101000a900473ffffffffffffffffffffffffffffffffffffffff1673ffffffffffffffffffffffffffffffffffffffff163373ffffffffffffffffffffffffffffffffffffffff1614620001aa57600080fd5b8060019080519060200190620001c2929190620001c6565b5050565b828054600181600116156101000203166002900490600052602060002090601f016020900481019282601f106200020957805160ff19168380011785556200023a565b828001600101855582156200023a579182015b82811115620002395782518255916020019190600101906200021c565b5b5090506200024991906200024d565b5090565b6200027291905b808211156200026e57600081600090555060010162000254565b5090565b90565b610c0f80620002856000396000f3fe608060405234801561001057600080fd5b506004361061007d5760003560e01c80634f1531451161005b5780634f153145146102645780635acecc781461031f5780638da5cb5b1461040f578063f2fde38b146104595761007d565b806312d05d3d14610082578063430e0aee1461010557806348cab05b1461015a575b600080fd5b61008a61049d565b6040518080602001828103825283818151815260200191508051906020019080838360005b838110156100ca5780820151818401526020810190506100af565b50505050905090810190601f1680156100f75780820380516001836020036101000a031916815260200191505b509250505060405180910390f35b6101406004803603602081101561011b57600080fd5b8101908080356bffffffffffffffffffffffff1916906020019092919050505061053f565b604051808215151515815260200191505060405180910390f35b610262600480360360a081101561017057600080fd5b8101908080356bffffffffffffffffffffffff19169060200190929190803515159060200190929190803573ffffffffffffffffffffffffffffffffffffffff16906020019092919080359060200190929190803590602001906401000000008111156101dc57600080fd5b8201836020820111156101ee57600080fd5b8035906020019184600183028401116401000000008311171561021057600080fd5b91908080601f016020809104026020016040519081016040528093929190818152602001838380828437600081840152601f19601f82011690508083019250505050505050919291929050505061058a565b005b61031d6004803603602081101561027a57600080fd5b810190808035906020019064010000000081111561029757600080fd5b8201836020820111156102a957600080fd5b803590602001918460018302840111640100000000831117156102cb57600080fd5b91908080601f016020809104026020016040519081016040528093929190818152602001838380828437600081840152601f19601f8201169050808301925050505050505091929192905050506106e5565b005b61035a6004803603602081101561033557600080fd5b8101908080356bffffffffffffffffffffffff19169060200190929190505050610758565b604051808473ffffffffffffffffffffffffffffffffffffffff1673ffffffffffffffffffffffffffffffffffffffff16815260200183815260200180602001828103825283818151815260200191508051906020019080838360005b838110156103d25780820151818401526020810190506103b7565b50505050905090810190601f1680156103ff5780820380516001836020036101000a031916815260200191505b5094505050505060405180910390f35b61041761093f565b604051808273ffffffffffffffffffffffffffffffffffffffff1673ffffffffffffffffffffffffffffffffffffffff16815260200191505060405180910390f35b61049b6004803603602081101561046f57600080fd5b81019080803573ffffffffffffffffffffffffffffffffffffffff169060200190929190505050610964565b005b606060018054600181600116156101000203166002900480601f0160208091040260200160405190810160405280929190818152602001828054600181600116156101000203166002900480156105355780601f1061050a57610100808354040283529160200191610535565b820191906000526020600020905b81548152906001019060200180831161051857829003601f168201915b5050505050905090565b600060026000836bffffffffffffffffffffffff19166bffffffffffffffffffffffff1916815260200190815260200160002060000160009054906101000a900460ff169050919050565b6000809054906101000a900473ffffffffffffffffffffffffffffffffffffffff1673ffffffffffffffffffffffffffffffffffffffff163373ffffffffffffffffffffffffffffffffffffffff16146105e357600080fd5b604051806080016040528085151581526020018473ffffffffffffffffffffffffffffffffffffffff1681526020018381526020018281525060026000876bffffffffffffffffffffffff19166bffffffffffffffffffffffff1916815260200190815260200160002060008201518160000160006101000a81548160ff02191690831515021790555060208201518160000160016101000a81548173ffffffffffffffffffffffffffffffffffffffff021916908373ffffffffffffffffffffffffffffffffffffffff1602179055506040820151816001015560608201518160020190805190602001906106da929190610ab5565b509050505050505050565b6000809054906101000a900473ffffffffffffffffffffffffffffffffffffffff1673ffffffffffffffffffffffffffffffffffffffff163373ffffffffffffffffffffffffffffffffffffffff161461073e57600080fd5b8060019080519060200190610754929190610b35565b5050565b60008060606107668461053f565b6107d8576040517f08c379a00000000000000000000000000000000000000000000000000000000081526004018080602001828103825260128152602001807f44494420646f6573206e6f74206578697374000000000000000000000000000081525060200191505060405180910390fd5b60026000856bffffffffffffffffffffffff19166bffffffffffffffffffffffff1916815260200190815260200160002060000160019054906101000a900473ffffffffffffffffffffffffffffffffffffffff1660026000866bffffffffffffffffffffffff19166bffffffffffffffffffffffff191681526020019081526020016000206001015460026000876bffffffffffffffffffffffff19166bffffffffffffffffffffffff19168152602001908152602001600020600201808054600181600116156101000203166002900480601f01602080910402602001604051908101604052809291908181526020018280546001816001161561010002031660029004801561092b5780601f106109005761010080835404028352916020019161092b565b820191906000526020600020905b81548152906001019060200180831161090e57829003601f168201915b505050505090509250925092509193909250565b6000809054906101000a900473ffffffffffffffffffffffffffffffffffffffff1681565b6000809054906101000a900473ffffffffffffffffffffffffffffffffffffffff1673ffffffffffffffffffffffffffffffffffffffff163373ffffffffffffffffffffffffffffffffffffffff16146109bd57600080fd5b600073ffffffffffffffffffffffffffffffffffffffff168173ffffffffffffffffffffffffffffffffffffffff1614156109f757600080fd5b8073ffffffffffffffffffffffffffffffffffffffff166000809054906101000a900473ffffffffffffffffffffffffffffffffffffffff1673ffffffffffffffffffffffffffffffffffffffff167f8be0079c531659141344cd1fd0a4f28419497f9722a3daafe3b4186f6b6457e060405160405180910390a3806000806101000a81548173ffffffffffffffffffffffffffffffffffffffff021916908373ffffffffffffffffffffffffffffffffffffffff16021790555050565b828054600181600116156101000203166002900490600052602060002090601f016020900481019282601f10610af657805160ff1916838001178555610b24565b82800160010185558215610b24579182015b82811115610b23578251825591602001919060010190610b08565b5b509050610b319190610bb5565b5090565b828054600181600116156101000203166002900490600052602060002090601f016020900481019282601f10610b7657805160ff1916838001178555610ba4565b82800160010185558215610ba4579182015b82811115610ba3578251825591602001919060010190610b88565b5b509050610bb19190610bb5565b5090565b610bd791905b80821115610bd3576000816000905550600101610bbb565b5090565b9056fea265627a7a723158209adf7819135c6338a733b6d8957c05d9f30f68401ef63d97667b66deae230c5f64736f6c63430005100032",
  "source": "pragma solidity >=0.4.22 <0.6.0;\n\nimport './Agentable.sol';\nimport './DIDManagerBase.sol';\n\ncontract UCamDIDManager is Agentable, DIDManagerBase {\n\n    constructor(address _dbAddr) DIDBase(_dbAddr, \"did:io:ucam:\") public {}\n\n    function formDID(bytes20 uid) internal view returns (bytes memory) {\n        // TODO: convert uid to string\n        return abi.encodePacked(db.getPrefix(), uid);\n    }\n\n    function decodeInternalKey(bytes memory did) public view returns (bytes20) {\n        require(hasPrefix(did, db.getPrefix()), \"invalid DID\");\n        bytes memory domainID = (slice(did, db.getPrefix().length));\n        require(domainID.length == 40, \"invalid DID\");\n        uint160 uid = 0;\n        uint160 b1;\n        uint160 b2;\n        for (uint i = 0; i < 40; i += 2){\n            uid *= 256;\n            b1 = uint8(domainID[i]);\n            b2 = uint8(domainID[i+1]);\n            if ((b1 >= 97)&&(b1 <= 102)) b1 -= 87;\n            else if ((b1 >= 48)&&(b1 <= 57)) b1 -= 48;\n            else if ((b1 >= 65)&&(b1 <= 70)) b1 -= 55;\n            if ((b2 >= 97)&&(b2 <= 102)) b2 -= 87;\n            else if ((b2 >= 48)&&(b2 <= 57)) b2 -= 48;\n            else if ((b2 >= 65)&&(b2 <= 70)) b2 -= 55;\n            uid += (b1*16+b2);\n        }\n        return bytes20(uid);\n    }\n    event didmsg(bytes msg);\n    event register(address authorizer);\n    event hash(bytes32 msg);\n    event authMsg(bytes msg);\n    function createDIDByAgent(bytes20 uid, bytes32 h, bytes memory uri, address authorizer, bytes memory auth) public {\n        bytes memory did = formDID(uid);\n        emit hash(h);\n        emit didmsg(did);\n        emit register(getSigner(getCreateAuthMessage(did, h, uri, msg.sender), auth));\n        emit authMsg(getCreateAuthMessage(did, h, uri, msg.sender));\n        require(authorizer == getSigner(getCreateAuthMessage(did, h, uri, msg.sender), auth), \"invalid signature\");\n        internalCreateDID(did, uid, authorizer, h, uri);\n    }\n\n    function updateDIDByAgent(bytes20 uid, bytes32 h, bytes memory uri, bytes memory auth) public {\n        bytes memory did = formDID(uid);\n        (address authorizer, ,) = db.get(uid);\n        require(msg.sender == getSigner(getUpdateAuthMessage(did, h, uri, msg.sender), auth), \"invalid signature\");\n        internalUpdateDID(did, uid, authorizer, h, uri);\n    }\n\n    function deleteDIDByAgent(bytes20 uid, bytes memory auth) public {\n        bytes memory did = formDID(uid);\n        (address authorizer, ,) = db.get(uid);\n        require(msg.sender == getSigner(getDeleteAuthMessage(did, msg.sender), auth), \"invalid signature\");\n        internalDeleteDID(did, uid, authorizer);\n    }\n}\n",
  "sourcePath": "/root/iotex-did/smartcontracts/contracts/UCamDIDManager.sol",
  "compiler": {
    "name": "solc",
    "version": "0.5.16+commit.9c3226ce.Emscripten.clang"
  },
  "schemaVersion": "3.2.0",
  "updatedAt": "2020-07-15T03:29:24.514Z",
  "devdoc": {
    "methods": {
      "transferOwnership(address)": {
        "details": "Allows the current owner to transfer control of the contract to a newOwner.",
        "params": {
          "newOwner": "The address to transfer ownership to."
        }
      }
    }
  },
  "userdoc": {
    "methods": {}
  }
}