{
  "contractName": "UCamDIDManager",
  "abi": [
    {
      "inputs": [
        {
          "internalType": "address",
          "name": "_dbAddr",
          "type": "address"
        }
      ],
      "payable": false,
      "stateMutability": "nonpayable",
      "type": "constructor"
    },
    {
      "anonymous": false,
      "inputs": [
        {
          "indexed": true,
          "internalType": "address",
          "name": "operator",
          "type": "address"
        },
        {
          "indexed": false,
          "internalType": "string",
          "name": "did",
          "type": "string"
        },
        {
          "indexed": false,
          "internalType": "bytes32",
          "name": "hash",
          "type": "bytes32"
        },
        {
          "indexed": false,
          "internalType": "string",
          "name": "uri",
          "type": "string"
        }
      ],
      "name": "DIDCreated",
      "type": "event"
    },
    {
      "anonymous": false,
      "inputs": [
        {
          "indexed": true,
          "internalType": "address",
          "name": "operator",
          "type": "address"
        },
        {
          "indexed": true,
          "internalType": "string",
          "name": "did",
          "type": "string"
        }
      ],
      "name": "DIDDeleted",
      "type": "event"
    },
    {
      "anonymous": false,
      "inputs": [
        {
          "indexed": true,
          "internalType": "address",
          "name": "operator",
          "type": "address"
        },
        {
          "indexed": true,
          "internalType": "string",
          "name": "did",
          "type": "string"
        },
        {
          "indexed": false,
          "internalType": "bytes32",
          "name": "hash",
          "type": "bytes32"
        },
        {
          "indexed": false,
          "internalType": "string",
          "name": "uri",
          "type": "string"
        }
      ],
      "name": "DIDUpdated",
      "type": "event"
    },
    {
      "anonymous": false,
      "inputs": [
        {
          "indexed": true,
          "internalType": "address",
          "name": "previousOwner",
          "type": "address"
        },
        {
          "indexed": true,
          "internalType": "address",
          "name": "newOwner",
          "type": "address"
        }
      ],
      "name": "OwnershipTransferred",
      "type": "event"
    },
    {
      "constant": true,
      "inputs": [],
      "name": "db",
      "outputs": [
        {
          "internalType": "contract DIDStorage",
          "name": "",
          "type": "address"
        }
      ],
      "payable": false,
      "stateMutability": "view",
      "type": "function"
    },
    {
      "constant": true,
      "inputs": [
        {
          "internalType": "bytes",
          "name": "did",
          "type": "bytes"
        },
        {
          "internalType": "bytes32",
          "name": "h",
          "type": "bytes32"
        },
        {
          "internalType": "bytes",
          "name": "uri",
          "type": "bytes"
        },
        {
          "internalType": "address",
          "name": "agent",
          "type": "address"
        }
      ],
      "name": "getCreateAuthMessage",
      "outputs": [
        {
          "internalType": "bytes",
          "name": "",
          "type": "bytes"
        }
      ],
      "payable": false,
      "stateMutability": "view",
      "type": "function"
    },
    {
      "constant": true,
      "inputs": [
        {
          "internalType": "bytes",
          "name": "did",
          "type": "bytes"
        },
        {
          "internalType": "address",
          "name": "agent",
          "type": "address"
        }
      ],
      "name": "getDeleteAuthMessage",
      "outputs": [
        {
          "internalType": "bytes",
          "name": "",
          "type": "bytes"
        }
      ],
      "payable": false,
      "stateMutability": "view",
      "type": "function"
    },
    {
      "constant": true,
      "inputs": [
        {
          "internalType": "bytes",
          "name": "did",
          "type": "bytes"
        }
      ],
      "name": "getHash",
      "outputs": [
        {
          "internalType": "bytes32",
          "name": "",
          "type": "bytes32"
        }
      ],
      "payable": false,
      "stateMutability": "view",
      "type": "function"
    },
    {
      "constant": true,
      "inputs": [
        {
          "internalType": "bytes",
          "name": "did",
          "type": "bytes"
        }
      ],
      "name": "getOwner",
      "outputs": [
        {
          "internalType": "address",
          "name": "",
          "type": "address"
        }
      ],
      "payable": false,
      "stateMutability": "view",
      "type": "function"
    },
    {
      "constant": true,
      "inputs": [
        {
          "internalType": "bytes",
          "name": "did",
          "type": "bytes"
        }
      ],
      "name": "getURI",
      "outputs": [
        {
          "internalType": "bytes",
          "name": "",
          "type": "bytes"
        }
      ],
      "payable": false,
      "stateMutability": "view",
      "type": "function"
    },
    {
      "constant": true,
      "inputs": [
        {
          "internalType": "bytes",
          "name": "did",
          "type": "bytes"
        },
        {
          "internalType": "bytes32",
          "name": "h",
          "type": "bytes32"
        },
        {
          "internalType": "bytes",
          "name": "uri",
          "type": "bytes"
        },
        {
          "internalType": "address",
          "name": "agent",
          "type": "address"
        }
      ],
      "name": "getUpdateAuthMessage",
      "outputs": [
        {
          "internalType": "bytes",
          "name": "",
          "type": "bytes"
        }
      ],
      "payable": false,
      "stateMutability": "view",
      "type": "function"
    },
    {
      "constant": true,
      "inputs": [],
      "name": "owner",
      "outputs": [
        {
          "internalType": "address",
          "name": "",
          "type": "address"
        }
      ],
      "payable": false,
      "stateMutability": "view",
      "type": "function"
    },
    {
      "constant": false,
      "inputs": [
        {
          "internalType": "address",
          "name": "newOwner",
          "type": "address"
        }
      ],
      "name": "transferDBOwnership",
      "outputs": [],
      "payable": false,
      "stateMutability": "nonpayable",
      "type": "function"
    },
    {
      "constant": false,
      "inputs": [
        {
          "internalType": "address",
          "name": "newOwner",
          "type": "address"
        }
      ],
      "name": "transferOwnership",
      "outputs": [],
      "payable": false,
      "stateMutability": "nonpayable",
      "type": "function"
    },
    {
      "constant": true,
      "inputs": [
        {
          "internalType": "bytes",
          "name": "did",
          "type": "bytes"
        }
      ],
      "name": "decodeInternalKey",
      "outputs": [
        {
          "internalType": "bytes20",
          "name": "",
          "type": "bytes20"
        }
      ],
      "payable": false,
      "stateMutability": "view",
      "type": "function"
    },
    {
      "constant": false,
      "inputs": [
        {
          "internalType": "bytes20",
          "name": "uid",
          "type": "bytes20"
        },
        {
          "internalType": "bytes32",
          "name": "h",
          "type": "bytes32"
        },
        {
          "internalType": "bytes",
          "name": "uri",
          "type": "bytes"
        },
        {
          "internalType": "address",
          "name": "authorizer",
          "type": "address"
        },
        {
          "internalType": "bytes",
          "name": "auth",
          "type": "bytes"
        }
      ],
      "name": "createDIDByAgent",
      "outputs": [],
      "payable": false,
      "stateMutability": "nonpayable",
      "type": "function"
    },
    {
      "constant": false,
      "inputs": [
        {
          "internalType": "bytes20",
          "name": "uid",
          "type": "bytes20"
        },
        {
          "internalType": "bytes32",
          "name": "h",
          "type": "bytes32"
        },
        {
          "internalType": "bytes",
          "name": "uri",
          "type": "bytes"
        },
        {
          "internalType": "bytes",
          "name": "auth",
          "type": "bytes"
        }
      ],
      "name": "updateDIDByAgent",
      "outputs": [],
      "payable": false,
      "stateMutability": "nonpayable",
      "type": "function"
    },
    {
      "constant": false,
      "inputs": [
        {
          "internalType": "bytes20",
          "name": "uid",
          "type": "bytes20"
        },
        {
          "internalType": "bytes",
          "name": "auth",
          "type": "bytes"
        }
      ],
      "name": "deleteDIDByAgent",
      "outputs": [],
      "payable": false,
      "stateMutability": "nonpayable",
      "type": "function"
    }
  ],
  "bytecode": "0x60806040523480156200001157600080fd5b506040516200564938038062005649833981810160405260208110156200003757600080fd5b8101908080519060200190929190505050806040518060400160405280600b81526020017f6469643a696f3a7563616d000000000000000000000000000000000000000000815250336000806101000a81548173ffffffffffffffffffffffffffffffffffffffff021916908373ffffffffffffffffffffffffffffffffffffffff160217905550600073ffffffffffffffffffffffffffffffffffffffff168273ffffffffffffffffffffffffffffffffffffffff161415620001da5780604051620001049062000225565b8080602001828103825283818151815260200191508051906020019080838360005b838110156200014357808201518184015260208101905062000126565b50505050905090810190601f168015620001715780820380516001836020036101000a031916815260200191505b5092505050604051809103906000f08015801562000193573d6000803e3d6000fd5b50600160006101000a81548173ffffffffffffffffffffffffffffffffffffffff021916908373ffffffffffffffffffffffffffffffffffffffff1602179055506200021c565b81600160006101000a81548173ffffffffffffffffffffffffffffffffffffffff021916908373ffffffffffffffffffffffffffffffffffffffff1602179055505b50505062000233565b610e9480620047b583390190565b61457280620002436000396000f3fe608060405234801561001057600080fd5b50600436106100ea5760003560e01c8063b00140aa1161008c578063cc3b41dc11610066578063cc3b41dc14610a10578063d9d5060714610c05578063dd12015314610cd9578063f2fde38b14610ece576100ea565b8063b00140aa14610759578063b102bfbe14610828578063bf6d313914610923576100ea565b80634d655aff116100c85780634d655aff1461041c5780638626dea9146104665780638da5cb5b1461059a57806398793984146105e4576100ea565b806332aad017146100ef5780633bdcb26c146101335780633dc7ad0214610287575b600080fd5b6101316004803603602081101561010557600080fd5b81019080803573ffffffffffffffffffffffffffffffffffffffff169060200190929190505050610f12565b005b61020c6004803603604081101561014957600080fd5b810190808035906020019064010000000081111561016657600080fd5b82018360208201111561017857600080fd5b8035906020019184600183028401116401000000008311171561019a57600080fd5b91908080601f016020809104026020016040519081016040528093929190818152602001838380828437600081840152601f19601f820116905080830192505050505050509192919290803573ffffffffffffffffffffffffffffffffffffffff169060200190929190505050611027565b6040518080602001828103825283818151815260200191508051906020019080838360005b8381101561024c578082015181840152602081019050610231565b50505050905090810190601f1680156102795780820380516001836020036101000a031916815260200191505b509250505060405180910390f35b61041a600480360360a081101561029d57600080fd5b8101908080356bffffffffffffffffffffffff1916906020019092919080359060200190929190803590602001906401000000008111156102dd57600080fd5b8201836020820111156102ef57600080fd5b8035906020019184600183028401116401000000008311171561031157600080fd5b91908080601f016020809104026020016040519081016040528093929190818152602001838380828437600081840152601f19601f820116905080830192505050505050509192919290803573ffffffffffffffffffffffffffffffffffffffff1690602001909291908035906020019064010000000081111561039457600080fd5b8201836020820111156103a657600080fd5b803590602001918460018302840111640100000000831117156103c857600080fd5b91908080601f016020809104026020016040519081016040528093929190818152602001838380828437600081840152601f19601f8201169050808301925050505050505091929192905050506111ca565b005b6104246112a1565b604051808273ffffffffffffffffffffffffffffffffffffffff1673ffffffffffffffffffffffffffffffffffffffff16815260200191505060405180910390f35b61051f6004803603602081101561047c57600080fd5b810190808035906020019064010000000081111561049957600080fd5b8201836020820111156104ab57600080fd5b803590602001918460018302840111640100000000831117156104cd57600080fd5b91908080601f016020809104026020016040519081016040528093929190818152602001838380828437600081840152601f19601f8201169050808301925050505050505091929192905050506112c7565b6040518080602001828103825283818151815260200191508051906020019080838360005b8381101561055f578082015181840152602081019050610544565b50505050905090810190601f16801561058c5780820380516001836020036101000a031916815260200191505b509250505060405180910390f35b6105a26115c2565b604051808273ffffffffffffffffffffffffffffffffffffffff1673ffffffffffffffffffffffffffffffffffffffff16815260200191505060405180910390f35b610757600480360360808110156105fa57600080fd5b8101908080356bffffffffffffffffffffffff19169060200190929190803590602001909291908035906020019064010000000081111561063a57600080fd5b82018360208201111561064c57600080fd5b8035906020019184600183028401116401000000008311171561066e57600080fd5b91908080601f016020809104026020016040519081016040528093929190818152602001838380828437600081840152601f19601f820116905080830192505050505050509192919290803590602001906401000000008111156106d157600080fd5b8201836020820111156106e357600080fd5b8035906020019184600183028401116401000000008311171561070557600080fd5b91908080601f016020809104026020016040519081016040528093929190818152602001838380828437600081840152601f19601f8201169050808301925050505050505091929192905050506115e7565b005b6108126004803603602081101561076f57600080fd5b810190808035906020019064010000000081111561078c57600080fd5b82018360208201111561079e57600080fd5b803590602001918460018302840111640100000000831117156107c057600080fd5b91908080601f016020809104026020016040519081016040528093929190818152602001838380828437600081840152601f19601f820116905080830192505050505050509192919290505050611862565b6040518082815260200191505060405180910390f35b6108e16004803603602081101561083e57600080fd5b810190808035906020019064010000000081111561085b57600080fd5b82018360208201111561086d57600080fd5b8035906020019184600183028401116401000000008311171561088f57600080fd5b91908080601f016020809104026020016040519081016040528093929190818152602001838380828437600081840152601f19601f820116905080830192505050505050509192919290505050611b5c565b604051808273ffffffffffffffffffffffffffffffffffffffff1673ffffffffffffffffffffffffffffffffffffffff16815260200191505060405180910390f35b6109dc6004803603602081101561093957600080fd5b810190808035906020019064010000000081111561095657600080fd5b82018360208201111561096857600080fd5b8035906020019184600183028401116401000000008311171561098a57600080fd5b91908080601f016020809104026020016040519081016040528093929190818152602001838380828437600081840152601f19601f820116905080830192505050505050509192919290505050611e56565b60405180826bffffffffffffffffffffffff19166bffffffffffffffffffffffff1916815260200191505060405180910390f35b610b8a60048036036080811015610a2657600080fd5b8101908080359060200190640100000000811115610a4357600080fd5b820183602082011115610a5557600080fd5b80359060200191846001830284011164010000000083111715610a7757600080fd5b91908080601f016020809104026020016040519081016040528093929190818152602001838380828437600081840152601f19601f8201169050808301925050505050505091929192908035906020019092919080359060200190640100000000811115610ae457600080fd5b820183602082011115610af657600080fd5b80359060200191846001830284011164010000000083111715610b1857600080fd5b91908080601f016020809104026020016040519081016040528093929190818152602001838380828437600081840152601f19601f820116905080830192505050505050509192919290803573ffffffffffffffffffffffffffffffffffffffff1690602001909291905050506123d0565b6040518080602001828103825283818151815260200191508051906020019080838360005b83811015610bca578082015181840152602081019050610baf565b50505050905090810190601f168015610bf75780820380516001836020036101000a031916815260200191505b509250505060405180910390f35b610cd760048036036040811015610c1b57600080fd5b8101908080356bffffffffffffffffffffffff1916906020019092919080359060200190640100000000811115610c5157600080fd5b820183602082011115610c6357600080fd5b80359060200191846001830284011164010000000083111715610c8557600080fd5b91908080601f016020809104026020016040519081016040528093929190818152602001838380828437600081840152601f19601f820116905080830192505050505050509192919290505050612648565b005b610e5360048036036080811015610cef57600080fd5b8101908080359060200190640100000000811115610d0c57600080fd5b820183602082011115610d1e57600080fd5b80359060200191846001830284011164010000000083111715610d4057600080fd5b91908080601f016020809104026020016040519081016040528093929190818152602001838380828437600081840152601f19601f8201169050808301925050505050505091929192908035906020019092919080359060200190640100000000811115610dad57600080fd5b820183602082011115610dbf57600080fd5b80359060200191846001830284011164010000000083111715610de157600080fd5b91908080601f016020809104026020016040519081016040528093929190818152602001838380828437600081840152601f19601f820116905080830192505050505050509192919290803573ffffffffffffffffffffffffffffffffffffffff1690602001909291905050506128bd565b6040518080602001828103825283818151815260200191508051906020019080838360005b83811015610e93578082015181840152602081019050610e78565b50505050905090810190601f168015610ec05780820380516001836020036101000a031916815260200191505b509250505060405180910390f35b610f1060048036036020811015610ee457600080fd5b81019080803573ffffffffffffffffffffffffffffffffffffffff169060200190929190505050612b35565b005b6000809054906101000a900473ffffffffffffffffffffffffffffffffffffffff1673ffffffffffffffffffffffffffffffffffffffff163373ffffffffffffffffffffffffffffffffffffffff1614610f6b57600080fd5b600160009054906101000a900473ffffffffffffffffffffffffffffffffffffffff1673ffffffffffffffffffffffffffffffffffffffff1663f2fde38b826040518263ffffffff1660e01b8152600401808273ffffffffffffffffffffffffffffffffffffffff1673ffffffffffffffffffffffffffffffffffffffff168152602001915050600060405180830381600087803b15801561100c57600080fd5b505af1158015611020573d6000803e3d6000fd5b5050505050565b606061103282612c86565b8361103c30612c86565b60405160200180807f4920617574686f72697a65200000000000000000000000000000000000000000815250600c0184805190602001908083835b6020831061109a5780518252602082019150602081019050602083039250611077565b6001836020036101000a038019825116818451168082178552505050505050905001807f20746f2064656c65746520444944200000000000000000000000000000000000815250600f0183805190602001908083835b6020831061111357805182526020820191506020810190506020830392506110f0565b6001836020036101000a038019825116818451168082178552505050505050905001807f20696e20636f6e74726163742000000000000000000000000000000000000000815250600d0182805190602001908083835b6020831061118c5780518252602082019150602081019050602083039250611169565b6001836020036101000a0380198251168184511680821785525050505050509050019350505050604051602081830303815290604052905092915050565b60606111d586612f07565b90506111ec6111e6828787336123d0565b83613101565b73ffffffffffffffffffffffffffffffffffffffff163373ffffffffffffffffffffffffffffffffffffffff161461128c576040517f08c379a00000000000000000000000000000000000000000000000000000000081526004018080602001828103825260118152602001807f696e76616c6964207369676e617475726500000000000000000000000000000081525060200191505060405180910390fd5b611299818785888861320a565b505050505050565b600160009054906101000a900473ffffffffffffffffffffffffffffffffffffffff1681565b606060006112d483611e56565b9050600160009054906101000a900473ffffffffffffffffffffffffffffffffffffffff1673ffffffffffffffffffffffffffffffffffffffff1663430e0aee826040518263ffffffff1660e01b815260040180826bffffffffffffffffffffffff19166bffffffffffffffffffffffff1916815260200191505060206040518083038186803b15801561136757600080fd5b505afa15801561137b573d6000803e3d6000fd5b505050506040513d602081101561139157600080fd5b8101908080519060200190929190505050611414576040517f08c379a00000000000000000000000000000000000000000000000000000000081526004018080602001828103825260128152602001807f44494420646f6573206e6f74206578697374000000000000000000000000000081525060200191505060405180910390fd5b6060600160009054906101000a900473ffffffffffffffffffffffffffffffffffffffff1673ffffffffffffffffffffffffffffffffffffffff16635acecc78836040518263ffffffff1660e01b815260040180826bffffffffffffffffffffffff19166bffffffffffffffffffffffff1916815260200191505060006040518083038186803b1580156114a757600080fd5b505afa1580156114bb573d6000803e3d6000fd5b505050506040513d6000823e3d601f19601f8201168201806040525060608110156114e557600080fd5b8101908080519060200190929190805190602001909291908051604051939291908464010000000082111561151957600080fd5b8382019150602082018581111561152f57600080fd5b825186600182028301116401000000008211171561154c57600080fd5b8083526020830192505050908051906020019080838360005b83811015611580578082015181840152602081019050611565565b50505050905090810190601f1680156115ad5780820380516001836020036101000a031916815260200191505b50604052505050925050508092505050919050565b6000809054906101000a900473ffffffffffffffffffffffffffffffffffffffff1681565b60606115f285612f07565b90506000600160009054906101000a900473ffffffffffffffffffffffffffffffffffffffff1673ffffffffffffffffffffffffffffffffffffffff16635acecc78876040518263ffffffff1660e01b815260040180826bffffffffffffffffffffffff19166bffffffffffffffffffffffff1916815260200191505060006040518083038186803b15801561168757600080fd5b505afa15801561169b573d6000803e3d6000fd5b505050506040513d6000823e3d601f19601f8201168201806040525060608110156116c557600080fd5b810190808051906020019092919080519060200190929190805160405193929190846401000000008211156116f957600080fd5b8382019150602082018581111561170f57600080fd5b825186600182028301116401000000008211171561172c57600080fd5b8083526020830192505050908051906020019080838360005b83811015611760578082015181840152602081019050611745565b50505050905090810190601f16801561178d5780820380516001836020036101000a031916815260200191505b50604052505050505090506117ad6117a7838787336128bd565b84613101565b73ffffffffffffffffffffffffffffffffffffffff163373ffffffffffffffffffffffffffffffffffffffff161461184d576040517f08c379a00000000000000000000000000000000000000000000000000000000081526004018080602001828103825260118152602001807f696e76616c6964207369676e617475726500000000000000000000000000000081525060200191505060405180910390fd5b61185a82878388886135d9565b505050505050565b60008061186e83611e56565b9050600160009054906101000a900473ffffffffffffffffffffffffffffffffffffffff1673ffffffffffffffffffffffffffffffffffffffff1663430e0aee826040518263ffffffff1660e01b815260040180826bffffffffffffffffffffffff19166bffffffffffffffffffffffff1916815260200191505060206040518083038186803b15801561190157600080fd5b505afa158015611915573d6000803e3d6000fd5b505050506040513d602081101561192b57600080fd5b81019080805190602001909291905050506119ae576040517f08c379a00000000000000000000000000000000000000000000000000000000081526004018080602001828103825260128152602001807f44494420646f6573206e6f74206578697374000000000000000000000000000081525060200191505060405180910390fd5b6000600160009054906101000a900473ffffffffffffffffffffffffffffffffffffffff1673ffffffffffffffffffffffffffffffffffffffff16635acecc78836040518263ffffffff1660e01b815260040180826bffffffffffffffffffffffff19166bffffffffffffffffffffffff1916815260200191505060006040518083038186803b158015611a4157600080fd5b505afa158015611a55573d6000803e3d6000fd5b505050506040513d6000823e3d601f19601f820116820180604052506060811015611a7f57600080fd5b81019080805190602001909291908051906020019092919080516040519392919084640100000000821115611ab357600080fd5b83820191506020820185811115611ac957600080fd5b8251866001820283011164010000000082111715611ae657600080fd5b8083526020830192505050908051906020019080838360005b83811015611b1a578082015181840152602081019050611aff565b50505050905090810190601f168015611b475780820380516001836020036101000a031916815260200191505b50604052505050509150508092505050919050565b600080611b6883611e56565b9050600160009054906101000a900473ffffffffffffffffffffffffffffffffffffffff1673ffffffffffffffffffffffffffffffffffffffff1663430e0aee826040518263ffffffff1660e01b815260040180826bffffffffffffffffffffffff19166bffffffffffffffffffffffff1916815260200191505060206040518083038186803b158015611bfb57600080fd5b505afa158015611c0f573d6000803e3d6000fd5b505050506040513d6020811015611c2557600080fd5b8101908080519060200190929190505050611ca8576040517f08c379a00000000000000000000000000000000000000000000000000000000081526004018080602001828103825260128152602001807f44494420646f6573206e6f74206578697374000000000000000000000000000081525060200191505060405180910390fd5b6000600160009054906101000a900473ffffffffffffffffffffffffffffffffffffffff1673ffffffffffffffffffffffffffffffffffffffff16635acecc78836040518263ffffffff1660e01b815260040180826bffffffffffffffffffffffff19166bffffffffffffffffffffffff1916815260200191505060006040518083038186803b158015611d3b57600080fd5b505afa158015611d4f573d6000803e3d6000fd5b505050506040513d6000823e3d601f19601f820116820180604052506060811015611d7957600080fd5b81019080805190602001909291908051906020019092919080516040519392919084640100000000821115611dad57600080fd5b83820191506020820185811115611dc357600080fd5b8251866001820283011164010000000082111715611de057600080fd5b8083526020830192505050908051906020019080838360005b83811015611e14578082015181840152602081019050611df9565b50505050905090810190601f168015611e415780820380516001836020036101000a031916815260200191505b50604052505050505090508092505050919050565b6000611fc282600160009054906101000a900473ffffffffffffffffffffffffffffffffffffffff1673ffffffffffffffffffffffffffffffffffffffff166312d05d3d6040518163ffffffff1660e01b815260040160006040518083038186803b158015611ec457600080fd5b505afa158015611ed8573d6000803e3d6000fd5b505050506040513d6000823e3d601f19601f820116820180604052506020811015611f0257600080fd5b8101908080516040519392919084640100000000821115611f2257600080fd5b83820191506020820185811115611f3857600080fd5b8251866001820283011164010000000082111715611f5557600080fd5b8083526020830192505050908051906020019080838360005b83811015611f89578082015181840152602081019050611f6e565b50505050905090810190601f168015611fb65780820380516001836020036101000a031916815260200191505b50604052505050613be1565b612034576040517f08c379a000000000000000000000000000000000000000000000000000000000815260040180806020018281038252600b8152602001807f696e76616c69642044494400000000000000000000000000000000000000000081525060200191505060405180910390fd5b60606121a183600160009054906101000a900473ffffffffffffffffffffffffffffffffffffffff1673ffffffffffffffffffffffffffffffffffffffff166312d05d3d6040518163ffffffff1660e01b815260040160006040518083038186803b1580156120a257600080fd5b505afa1580156120b6573d6000803e3d6000fd5b505050506040513d6000823e3d601f19601f8201168201806040525060208110156120e057600080fd5b810190808051604051939291908464010000000082111561210057600080fd5b8382019150602082018581111561211657600080fd5b825186600182028301116401000000008211171561213357600080fd5b8083526020830192505050908051906020019080838360005b8381101561216757808201518184015260208101905061214c565b50505050905090810190601f1680156121945780820380516001836020036101000a031916815260200191505b5060405250505051613c9e565b9050602881511461221a576040517f08c379a000000000000000000000000000000000000000000000000000000000815260040180806020018281038252600b8152602001807f696e76616c69642044494400000000000000000000000000000000000000000081525060200191505060405180910390fd5b600080905060008060008090505b60288110156123c0576101008402935084818151811061224457fe5b602001015160f81c60f81b60f81c60ff16925084600182018151811061226657fe5b602001015160f81c60f81b60f81c60ff16915060618373ffffffffffffffffffffffffffffffffffffffff16101580156122b7575060668373ffffffffffffffffffffffffffffffffffffffff1611155b156122c757605783039250612312565b60308373ffffffffffffffffffffffffffffffffffffffff1610158015612305575060398373ffffffffffffffffffffffffffffffffffffffff1611155b15612311576030830392505b5b60618273ffffffffffffffffffffffffffffffffffffffff1610158015612350575060668273ffffffffffffffffffffffffffffffffffffffff1611155b15612360576057820391506123ab565b60308273ffffffffffffffffffffffffffffffffffffffff161015801561239e575060398273ffffffffffffffffffffffffffffffffffffffff1611155b156123aa576030820391505b5b81601084020184019350600281019050612228565b508260601b945050505050919050565b60606123db82612c86565b856123e530612c86565b868660405160200180807f4920617574686f72697a65200000000000000000000000000000000000000000815250600c0186805190602001908083835b602083106124455780518252602082019150602081019050602083039250612422565b6001836020036101000a038019825116818451168082178552505050505050905001807f20746f2063726561746520444944200000000000000000000000000000000000815250600f0185805190602001908083835b602083106124be578051825260208201915060208101905060208303925061249b565b6001836020036101000a038019825116818451168082178552505050505050905001807f20696e20636f6e7472616374207769746820000000000000000000000000000081525060120184805190602001908083835b602083106125375780518252602082019150602081019050602083039250612514565b6001836020036101000a038019825116818451168082178552505050505050905001807f2028000000000000000000000000000000000000000000000000000000000000815250600201838152602001807f2c2000000000000000000000000000000000000000000000000000000000000081525060020182805190602001908083835b602083106125de57805182526020820191506020810190506020830392506125bb565b6001836020036101000a038019825116818451168082178552505050505050905001807f2900000000000000000000000000000000000000000000000000000000000000815250600101955050505050506040516020818303038152906040529050949350505050565b606061265383612f07565b90506000600160009054906101000a900473ffffffffffffffffffffffffffffffffffffffff1673ffffffffffffffffffffffffffffffffffffffff16635acecc78856040518263ffffffff1660e01b815260040180826bffffffffffffffffffffffff19166bffffffffffffffffffffffff1916815260200191505060006040518083038186803b1580156126e857600080fd5b505afa1580156126fc573d6000803e3d6000fd5b505050506040513d6000823e3d601f19601f82011682018060405250606081101561272657600080fd5b8101908080519060200190929190805190602001909291908051604051939291908464010000000082111561275a57600080fd5b8382019150602082018581111561277057600080fd5b825186600182028301116401000000008211171561278d57600080fd5b8083526020830192505050908051906020019080838360005b838110156127c15780820151818401526020810190506127a6565b50505050905090810190601f1680156127ee5780820380516001836020036101000a031916815260200191505b506040525050505050905061280c6128068333611027565b84613101565b73ffffffffffffffffffffffffffffffffffffffff163373ffffffffffffffffffffffffffffffffffffffff16146128ac576040517f08c379a00000000000000000000000000000000000000000000000000000000081526004018080602001828103825260118152602001807f696e76616c6964207369676e617475726500000000000000000000000000000081525060200191505060405180910390fd5b6128b7828583613d99565b50505050565b60606128c882612c86565b856128d230612c86565b868660405160200180807f4920617574686f72697a65200000000000000000000000000000000000000000815250600c0186805190602001908083835b60208310612932578051825260208201915060208101905060208303925061290f565b6001836020036101000a038019825116818451168082178552505050505050905001807f20746f2075706461746520444944200000000000000000000000000000000000815250600f0185805190602001908083835b602083106129ab5780518252602082019150602081019050602083039250612988565b6001836020036101000a038019825116818451168082178552505050505050905001807f20696e20636f6e747261637420746f200000000000000000000000000000000081525060100184805190602001908083835b60208310612a245780518252602082019150602081019050602083039250612a01565b6001836020036101000a038019825116818451168082178552505050505050905001807f2028000000000000000000000000000000000000000000000000000000000000815250600201838152602001807f2c2000000000000000000000000000000000000000000000000000000000000081525060020182805190602001908083835b60208310612acb5780518252602082019150602081019050602083039250612aa8565b6001836020036101000a038019825116818451168082178552505050505050905001807f2900000000000000000000000000000000000000000000000000000000000000815250600101955050505050506040516020818303038152906040529050949350505050565b6000809054906101000a900473ffffffffffffffffffffffffffffffffffffffff1673ffffffffffffffffffffffffffffffffffffffff163373ffffffffffffffffffffffffffffffffffffffff1614612b8e57600080fd5b600073ffffffffffffffffffffffffffffffffffffffff168173ffffffffffffffffffffffffffffffffffffffff161415612bc857600080fd5b8073ffffffffffffffffffffffffffffffffffffffff166000809054906101000a900473ffffffffffffffffffffffffffffffffffffffff1673ffffffffffffffffffffffffffffffffffffffff167f8be0079c531659141344cd1fd0a4f28419497f9722a3daafe3b4186f6b6457e060405160405180910390a3806000806101000a81548173ffffffffffffffffffffffffffffffffffffffff021916908373ffffffffffffffffffffffffffffffffffffffff16021790555050565b606060008273ffffffffffffffffffffffffffffffffffffffff1660001b905060606040518060400160405280601081526020017f303132333435363738396162636465660000000000000000000000000000000081525090506060602a6040519080825280601f01601f191660200182016040528015612d165781602001600182028038833980820191505090505b5090507f300000000000000000000000000000000000000000000000000000000000000081600081518110612d4757fe5b60200101907effffffffffffffffffffffffffffffffffffffffffffffffffffffffffffff1916908160001a9053507f780000000000000000000000000000000000000000000000000000000000000081600181518110612da457fe5b60200101907effffffffffffffffffffffffffffffffffffffffffffffffffffffffffffff1916908160001a90535060008090505b6014811015612efb5782600485600c840160208110612df457fe5b1a60f81b7effffffffffffffffffffffffffffffffffffffffffffffffffffffffffffff1916901c60f81c60ff1681518110612e2c57fe5b602001015160f81c60f81b826002830260020181518110612e4957fe5b60200101907effffffffffffffffffffffffffffffffffffffffffffffffffffffffffffff1916908160001a90535082600f60f81b85600c840160208110612e8d57fe5b1a60f81b1660f81c60ff1681518110612ea257fe5b602001015160f81c60f81b826002830260030181518110612ebf57fe5b60200101907effffffffffffffffffffffffffffffffffffffffffffffffffffffffffffff1916908160001a9053508080600101915050612dd9565b50809350505050919050565b6060600160009054906101000a900473ffffffffffffffffffffffffffffffffffffffff1673ffffffffffffffffffffffffffffffffffffffff166312d05d3d6040518163ffffffff1660e01b815260040160006040518083038186803b158015612f7157600080fd5b505afa158015612f85573d6000803e3d6000fd5b505050506040513d6000823e3d601f19601f820116820180604052506020811015612faf57600080fd5b8101908080516040519392919084640100000000821115612fcf57600080fd5b83820191506020820185811115612fe557600080fd5b825186600182028301116401000000008211171561300257600080fd5b8083526020830192505050908051906020019080838360005b8381101561303657808201518184015260208101905061301b565b50505050905090810190601f1680156130635780820380516001836020036101000a031916815260200191505b50604052505050826040516020018083805190602001908083835b602083106130a1578051825260208201915060208101905060208303925061307e565b6001836020036101000a038019825116818451168082178552505050505050905001826bffffffffffffffffffffffff19166bffffffffffffffffffffffff19168152601401925050506040516020818303038152906040529050919050565b6000613202613110845161432e565b8460405160200180807f19457468657265756d205369676e6564204d6573736167653a0a000000000000815250601a0183805190602001908083835b6020831061316f578051825260208201915060208101905060208303925061314c565b6001836020036101000a03801982511681845116808217855250505050505090500182805190602001908083835b602083106131c0578051825260208201915060208101905060208303925061319d565b6001836020036101000a03801982511681845116808217855250505050505090500192505050604051602081830303815290604052805190602001208361445b565b905092915050565b600160009054906101000a900473ffffffffffffffffffffffffffffffffffffffff1673ffffffffffffffffffffffffffffffffffffffff1663430e0aee856040518263ffffffff1660e01b815260040180826bffffffffffffffffffffffff19166bffffffffffffffffffffffff1916815260200191505060206040518083038186803b15801561329b57600080fd5b505afa1580156132af573d6000803e3d6000fd5b505050506040513d60208110156132c557600080fd5b810190808051906020019092919050505015613349576040517f08c379a000000000000000000000000000000000000000000000000000000000815260040180806020018281038252600d8152602001807f6475706c6963617465204449440000000000000000000000000000000000000081525060200191505060405180910390fd5b600160009054906101000a900473ffffffffffffffffffffffffffffffffffffffff1673ffffffffffffffffffffffffffffffffffffffff166348cab05b8560018686866040518663ffffffff1660e01b815260040180866bffffffffffffffffffffffff19166bffffffffffffffffffffffff19168152602001851515151581526020018473ffffffffffffffffffffffffffffffffffffffff1673ffffffffffffffffffffffffffffffffffffffff16815260200183815260200180602001828103825283818151815260200191508051906020019080838360005b83811015613442578082015181840152602081019050613427565b50505050905090810190601f16801561346f5780820380516001836020036101000a031916815260200191505b509650505050505050600060405180830381600087803b15801561349257600080fd5b505af11580156134a6573d6000803e3d6000fd5b505050508273ffffffffffffffffffffffffffffffffffffffff167f0a36151ef7283a91a6a8d052cd44a0c20f8c7207decf22d985eba8eb0a5a268b868484604051808060200184815260200180602001838103835286818151815260200191508051906020019080838360005b8381101561352f578082015181840152602081019050613514565b50505050905090810190601f16801561355c5780820380516001836020036101000a031916815260200191505b50838103825284818151815260200191508051906020019080838360005b8381101561359557808201518184015260208101905061357a565b50505050905090810190601f1680156135c25780820380516001836020036101000a031916815260200191505b509550505050505060405180910390a25050505050565b600160009054906101000a900473ffffffffffffffffffffffffffffffffffffffff1673ffffffffffffffffffffffffffffffffffffffff1663430e0aee856040518263ffffffff1660e01b815260040180826bffffffffffffffffffffffff19166bffffffffffffffffffffffff1916815260200191505060206040518083038186803b15801561366a57600080fd5b505afa15801561367e573d6000803e3d6000fd5b505050506040513d602081101561369457600080fd5b8101908080519060200190929190505050613717576040517f08c379a00000000000000000000000000000000000000000000000000000000081526004018080602001828103825260128152602001807f44494420646f6573206e6f74206578697374000000000000000000000000000081525060200191505060405180910390fd5b6000600160009054906101000a900473ffffffffffffffffffffffffffffffffffffffff1673ffffffffffffffffffffffffffffffffffffffff16635acecc78866040518263ffffffff1660e01b815260040180826bffffffffffffffffffffffff19166bffffffffffffffffffffffff1916815260200191505060006040518083038186803b1580156137aa57600080fd5b505afa1580156137be573d6000803e3d6000fd5b505050506040513d6000823e3d601f19601f8201168201806040525060608110156137e857600080fd5b8101908080519060200190929190805190602001909291908051604051939291908464010000000082111561381c57600080fd5b8382019150602082018581111561383257600080fd5b825186600182028301116401000000008211171561384f57600080fd5b8083526020830192505050908051906020019080838360005b83811015613883578082015181840152602081019050613868565b50505050905090810190601f1680156138b05780820380516001836020036101000a031916815260200191505b50604052505050505090508373ffffffffffffffffffffffffffffffffffffffff168173ffffffffffffffffffffffffffffffffffffffff161461395c576040517f08c379a000000000000000000000000000000000000000000000000000000000815260040180806020018281038252600d8152602001807f6e6f207065726d697373696f6e0000000000000000000000000000000000000081525060200191505060405180910390fd5b600160009054906101000a900473ffffffffffffffffffffffffffffffffffffffff1673ffffffffffffffffffffffffffffffffffffffff166348cab05b8660018787876040518663ffffffff1660e01b815260040180866bffffffffffffffffffffffff19166bffffffffffffffffffffffff19168152602001851515151581526020018473ffffffffffffffffffffffffffffffffffffffff1673ffffffffffffffffffffffffffffffffffffffff16815260200183815260200180602001828103825283818151815260200191508051906020019080838360005b83811015613a55578082015181840152602081019050613a3a565b50505050905090810190601f168015613a825780820380516001836020036101000a031916815260200191505b509650505050505050600060405180830381600087803b158015613aa557600080fd5b505af1158015613ab9573d6000803e3d6000fd5b50505050856040518082805190602001908083835b60208310613af15780518252602082019150602081019050602083039250613ace565b6001836020036101000a03801982511681845116808217855250505050505090500191505060405180910390208473ffffffffffffffffffffffffffffffffffffffff167f30665598c4da8be2cccefb7fe32a379decd1eae407564569a8e95b51e3afccd785856040518083815260200180602001828103825283818151815260200191508051906020019080838360005b83811015613b9e578082015181840152602081019050613b83565b50505050905090810190601f168015613bcb5780820380516001836020036101000a031916815260200191505b50935050505060405180910390a3505050505050565b60008151835111613bf55760009050613c98565b60008090505b8251811015613c9257838181518110613c1057fe5b602001015160f81c60f81b7effffffffffffffffffffffffffffffffffffffffffffffffffffffffffffff1916838281518110613c4957fe5b602001015160f81c60f81b7effffffffffffffffffffffffffffffffffffffffffffffffffffffffffffff191614613c85576000915050613c98565b8080600101915050613bfb565b50600190505b92915050565b60608183511015613d17576040517f08c379a00000000000000000000000000000000000000000000000000000000081526004018080602001828103825260128152602001807f52656164206f7574206f6620626f756e6473000000000000000000000000000081525060200191505060405180910390fd5b60008284510390506060811560008114613d3c57604051915060208201604052613d8d565b6040519150601f8316801560200281840101848101878315602002848b0101015b81831015613d7a5780518352602083019250602081019050613d5d565b50858552601f19601f8301166040525050505b50809250505092915050565b600160009054906101000a900473ffffffffffffffffffffffffffffffffffffffff1673ffffffffffffffffffffffffffffffffffffffff1663430e0aee836040518263ffffffff1660e01b815260040180826bffffffffffffffffffffffff19166bffffffffffffffffffffffff1916815260200191505060206040518083038186803b158015613e2a57600080fd5b505afa158015613e3e573d6000803e3d6000fd5b505050506040513d6020811015613e5457600080fd5b8101908080519060200190929190505050613ed7576040517f08c379a00000000000000000000000000000000000000000000000000000000081526004018080602001828103825260128152602001807f44494420646f6573206e6f74206578697374000000000000000000000000000081525060200191505060405180910390fd5b6000806060600160009054906101000a900473ffffffffffffffffffffffffffffffffffffffff1673ffffffffffffffffffffffffffffffffffffffff16635acecc78866040518263ffffffff1660e01b815260040180826bffffffffffffffffffffffff19166bffffffffffffffffffffffff1916815260200191505060006040518083038186803b158015613f6d57600080fd5b505afa158015613f81573d6000803e3d6000fd5b505050506040513d6000823e3d601f19601f820116820180604052506060811015613fab57600080fd5b81019080805190602001909291908051906020019092919080516040519392919084640100000000821115613fdf57600080fd5b83820191506020820185811115613ff557600080fd5b825186600182028301116401000000008211171561401257600080fd5b8083526020830192505050908051906020019080838360005b8381101561404657808201518184015260208101905061402b565b50505050905090810190601f1680156140735780820380516001836020036101000a031916815260200191505b506040525050509250925092508373ffffffffffffffffffffffffffffffffffffffff168373ffffffffffffffffffffffffffffffffffffffff1614614121576040517f08c379a000000000000000000000000000000000000000000000000000000000815260040180806020018281038252600d8152602001807f6e6f207065726d697373696f6e0000000000000000000000000000000000000081525060200191505060405180910390fd5b600160009054906101000a900473ffffffffffffffffffffffffffffffffffffffff1673ffffffffffffffffffffffffffffffffffffffff166348cab05b8660008786866040518663ffffffff1660e01b815260040180866bffffffffffffffffffffffff19166bffffffffffffffffffffffff19168152602001851515151581526020018473ffffffffffffffffffffffffffffffffffffffff1673ffffffffffffffffffffffffffffffffffffffff16815260200183815260200180602001828103825283818151815260200191508051906020019080838360005b8381101561421a5780820151818401526020810190506141ff565b50505050905090810190601f1680156142475780820380516001836020036101000a031916815260200191505b509650505050505050600060405180830381600087803b15801561426a57600080fd5b505af115801561427e573d6000803e3d6000fd5b50505050856040518082805190602001908083835b602083106142b65780518252602082019150602081019050602083039250614293565b6001836020036101000a03801982511681845116808217855250505050505090500191505060405180910390203373ffffffffffffffffffffffffffffffffffffffff167f56c5173d83675a7f2b174113df9205152eb36c65ab39e41d5d1b8d9cb88eabd260405160405180910390a3505050505050565b60606000821415614376576040518060400160405280600181526020017f30000000000000000000000000000000000000000000000000000000000000008152509050614456565b600082905060005b600082146143a0578080600101915050600a828161439857fe5b04915061437e565b6060816040519080825280601f01601f1916602001820160405280156143d55781602001600182028038833980820191505090505b50905060006001830390505b6000861461444e57600a86816143f357fe5b0660300160f81b8282806001900393508151811061440d57fe5b60200101907effffffffffffffffffffffffffffffffffffffffffffffffffffffffffffff1916908160001a905350600a868161444657fe5b0495506143e1565b819450505050505b919050565b60008060008060418551146144765760009350505050614537565b6020850151925060408501519150606085015160001a9050601b8160ff1610156144a157601b810190505b601b8160ff16141580156144b95750601c8160ff1614155b156144ca5760009350505050614537565b60018682858560405160008152602001604052604051808581526020018460ff1660ff1681526020018381526020018281526020019450505050506020604051602081039080840390855afa158015614527573d6000803e3d6000fd5b5050506020604051035193505050505b9291505056fea265627a7a72315820f107cc0fcdfb78fb8e1b63bdaa92ee71c5dee4140daa204f0600442ccd0959b664736f6c6343000510003260806040523480156200001157600080fd5b5060405162000e9438038062000e94833981810160405260208110156200003757600080fd5b81019080805160405193929190846401000000008211156200005857600080fd5b838201915060208201858111156200006f57600080fd5b82518660018202830111640100000000821117156200008d57600080fd5b8083526020830192505050908051906020019080838360005b83811015620000c3578082015181840152602081019050620000a6565b50505050905090810190601f168015620000f15780820380516001836020036101000a031916815260200191505b50604052505050336000806101000a81548173ffffffffffffffffffffffffffffffffffffffff021916908373ffffffffffffffffffffffffffffffffffffffff16021790555062000149816200015060201b60201c565b5062000275565b6000809054906101000a900473ffffffffffffffffffffffffffffffffffffffff1673ffffffffffffffffffffffffffffffffffffffff163373ffffffffffffffffffffffffffffffffffffffff1614620001aa57600080fd5b8060019080519060200190620001c2929190620001c6565b5050565b828054600181600116156101000203166002900490600052602060002090601f016020900481019282601f106200020957805160ff19168380011785556200023a565b828001600101855582156200023a579182015b82811115620002395782518255916020019190600101906200021c565b5b5090506200024991906200024d565b5090565b6200027291905b808211156200026e57600081600090555060010162000254565b5090565b90565b610c0f80620002856000396000f3fe608060405234801561001057600080fd5b506004361061007d5760003560e01c80634f1531451161005b5780634f153145146102645780635acecc781461031f5780638da5cb5b1461040f578063f2fde38b146104595761007d565b806312d05d3d14610082578063430e0aee1461010557806348cab05b1461015a575b600080fd5b61008a61049d565b6040518080602001828103825283818151815260200191508051906020019080838360005b838110156100ca5780820151818401526020810190506100af565b50505050905090810190601f1680156100f75780820380516001836020036101000a031916815260200191505b509250505060405180910390f35b6101406004803603602081101561011b57600080fd5b8101908080356bffffffffffffffffffffffff1916906020019092919050505061053f565b604051808215151515815260200191505060405180910390f35b610262600480360360a081101561017057600080fd5b8101908080356bffffffffffffffffffffffff19169060200190929190803515159060200190929190803573ffffffffffffffffffffffffffffffffffffffff16906020019092919080359060200190929190803590602001906401000000008111156101dc57600080fd5b8201836020820111156101ee57600080fd5b8035906020019184600183028401116401000000008311171561021057600080fd5b91908080601f016020809104026020016040519081016040528093929190818152602001838380828437600081840152601f19601f82011690508083019250505050505050919291929050505061058a565b005b61031d6004803603602081101561027a57600080fd5b810190808035906020019064010000000081111561029757600080fd5b8201836020820111156102a957600080fd5b803590602001918460018302840111640100000000831117156102cb57600080fd5b91908080601f016020809104026020016040519081016040528093929190818152602001838380828437600081840152601f19601f8201169050808301925050505050505091929192905050506106e5565b005b61035a6004803603602081101561033557600080fd5b8101908080356bffffffffffffffffffffffff19169060200190929190505050610758565b604051808473ffffffffffffffffffffffffffffffffffffffff1673ffffffffffffffffffffffffffffffffffffffff16815260200183815260200180602001828103825283818151815260200191508051906020019080838360005b838110156103d25780820151818401526020810190506103b7565b50505050905090810190601f1680156103ff5780820380516001836020036101000a031916815260200191505b5094505050505060405180910390f35b61041761093f565b604051808273ffffffffffffffffffffffffffffffffffffffff1673ffffffffffffffffffffffffffffffffffffffff16815260200191505060405180910390f35b61049b6004803603602081101561046f57600080fd5b81019080803573ffffffffffffffffffffffffffffffffffffffff169060200190929190505050610964565b005b606060018054600181600116156101000203166002900480601f0160208091040260200160405190810160405280929190818152602001828054600181600116156101000203166002900480156105355780601f1061050a57610100808354040283529160200191610535565b820191906000526020600020905b81548152906001019060200180831161051857829003601f168201915b5050505050905090565b600060026000836bffffffffffffffffffffffff19166bffffffffffffffffffffffff1916815260200190815260200160002060000160009054906101000a900460ff169050919050565b6000809054906101000a900473ffffffffffffffffffffffffffffffffffffffff1673ffffffffffffffffffffffffffffffffffffffff163373ffffffffffffffffffffffffffffffffffffffff16146105e357600080fd5b604051806080016040528085151581526020018473ffffffffffffffffffffffffffffffffffffffff1681526020018381526020018281525060026000876bffffffffffffffffffffffff19166bffffffffffffffffffffffff1916815260200190815260200160002060008201518160000160006101000a81548160ff02191690831515021790555060208201518160000160016101000a81548173ffffffffffffffffffffffffffffffffffffffff021916908373ffffffffffffffffffffffffffffffffffffffff1602179055506040820151816001015560608201518160020190805190602001906106da929190610ab5565b509050505050505050565b6000809054906101000a900473ffffffffffffffffffffffffffffffffffffffff1673ffffffffffffffffffffffffffffffffffffffff163373ffffffffffffffffffffffffffffffffffffffff161461073e57600080fd5b8060019080519060200190610754929190610b35565b5050565b60008060606107668461053f565b6107d8576040517f08c379a00000000000000000000000000000000000000000000000000000000081526004018080602001828103825260128152602001807f44494420646f6573206e6f74206578697374000000000000000000000000000081525060200191505060405180910390fd5b60026000856bffffffffffffffffffffffff19166bffffffffffffffffffffffff1916815260200190815260200160002060000160019054906101000a900473ffffffffffffffffffffffffffffffffffffffff1660026000866bffffffffffffffffffffffff19166bffffffffffffffffffffffff191681526020019081526020016000206001015460026000876bffffffffffffffffffffffff19166bffffffffffffffffffffffff19168152602001908152602001600020600201808054600181600116156101000203166002900480601f01602080910402602001604051908101604052809291908181526020018280546001816001161561010002031660029004801561092b5780601f106109005761010080835404028352916020019161092b565b820191906000526020600020905b81548152906001019060200180831161090e57829003601f168201915b505050505090509250925092509193909250565b6000809054906101000a900473ffffffffffffffffffffffffffffffffffffffff1681565b6000809054906101000a900473ffffffffffffffffffffffffffffffffffffffff1673ffffffffffffffffffffffffffffffffffffffff163373ffffffffffffffffffffffffffffffffffffffff16146109bd57600080fd5b600073ffffffffffffffffffffffffffffffffffffffff168173ffffffffffffffffffffffffffffffffffffffff1614156109f757600080fd5b8073ffffffffffffffffffffffffffffffffffffffff166000809054906101000a900473ffffffffffffffffffffffffffffffffffffffff1673ffffffffffffffffffffffffffffffffffffffff167f8be0079c531659141344cd1fd0a4f28419497f9722a3daafe3b4186f6b6457e060405160405180910390a3806000806101000a81548173ffffffffffffffffffffffffffffffffffffffff021916908373ffffffffffffffffffffffffffffffffffffffff16021790555050565b828054600181600116156101000203166002900490600052602060002090601f016020900481019282601f10610af657805160ff1916838001178555610b24565b82800160010185558215610b24579182015b82811115610b23578251825591602001919060010190610b08565b5b509050610b319190610bb5565b5090565b828054600181600116156101000203166002900490600052602060002090601f016020900481019282601f10610b7657805160ff1916838001178555610ba4565b82800160010185558215610ba4579182015b82811115610ba3578251825591602001919060010190610b88565b5b509050610bb19190610bb5565b5090565b610bd791905b80821115610bd3576000816000905550600101610bbb565b5090565b9056fea265627a7a723158209adf7819135c6338a733b6d8957c05d9f30f68401ef63d97667b66deae230c5f64736f6c63430005100032",
  "source": "pragma solidity >=0.4.22 <0.6.0;\n\nimport './Agentable.sol';\nimport './DIDManagerBase.sol';\n\ncontract UCamDIDManager is Agentable, DIDManagerBase {\n\n    constructor(address _dbAddr) DIDBase(_dbAddr, \"did:io:ucam\") public {}\n\n    function formDID(bytes20 uid) internal view returns (bytes memory) {\n        // TODO: convert uid to string\n        return abi.encodePacked(db.getPrefix(), uid);\n    }\n\n    function decodeInternalKey(bytes memory did) public view returns (bytes20) {\n        require(hasPrefix(did, db.getPrefix()), \"invalid DID\");\n        bytes memory domainID = (slice(did, db.getPrefix().length));\n        require(domainID.length == 40, \"invalid DID\");\n        uint160 uid = 0;\n        uint160 b1;\n        uint160 b2;\n        for (uint i = 0; i < 40; i += 2){\n            uid *= 256;\n            b1 = uint8(domainID[i]);\n            b2 = uint8(domainID[i+1]);\n            if ((b1 >= 97)&&(b1 <= 102)) b1 -= 87;\n            else if ((b1 >= 48)&&(b1 <= 57)) b1 -= 48;\n            if ((b2 >= 97)&&(b2 <= 102)) b2 -= 87;\n            else if ((b2 >= 48)&&(b2 <= 57)) b2 -= 48;\n            uid += (b1*16+b2);\n        }\n        return bytes20(uid);\n    }\n\n    function createDIDByAgent(bytes20 uid, bytes32 h, bytes memory uri, address authorizer, bytes memory auth) public {\n        bytes memory did = formDID(uid);\n        require(msg.sender == getSigner(getCreateAuthMessage(did, h, uri, msg.sender), auth), \"invalid signature\");\n        internalCreateDID(did, uid, authorizer, h, uri);\n    }\n\n    function updateDIDByAgent(bytes20 uid, bytes32 h, bytes memory uri, bytes memory auth) public {\n        bytes memory did = formDID(uid);\n        (address authorizer, ,) = db.get(uid);\n        require(msg.sender == getSigner(getUpdateAuthMessage(did, h, uri, msg.sender), auth), \"invalid signature\");\n        internalUpdateDID(did, uid, authorizer, h, uri);\n    }\n\n    function deleteDIDByAgent(bytes20 uid, bytes memory auth) public {\n        bytes memory did = formDID(uid);\n        (address authorizer, ,) = db.get(uid);\n        require(msg.sender == getSigner(getDeleteAuthMessage(did, msg.sender), auth), \"invalid signature\");\n        internalDeleteDID(did, uid, authorizer);\n    }\n}\n",
  "sourcePath": "/root/iotex-did/smartcontracts/contracts/UCamDIDManager.sol",
  "compiler": {
    "name": "solc",
    "version": "0.5.16+commit.9c3226ce.Emscripten.clang"
  },
  "schemaVersion": "3.2.0",
  "updatedAt": "2020-06-30T09:09:01.152Z",
  "devdoc": {
    "methods": {
      "transferOwnership(address)": {
        "details": "Allows the current owner to transfer control of the contract to a newOwner.",
        "params": {
          "newOwner": "The address to transfer ownership to."
        }
      }
    }
  },
  "userdoc": {
    "methods": {}
  }
}